:03000000021CD50A
:0C1CD500787FE4F6D8FD758122021D1C0A
:1017DF00206B65795F7363616E0D0A00204B45596D
:1017EF005F325F505245530D0A0052203D2025664F
:1017FF0020200D0A0074656D702076616C3A2564A7
:10180F00200D0A0063616C695F74656D70207661ED
:10181F006C3A2564200D0A000D0A3D3D3D3D3D3DCE
:10182F003D3D3D3D3D3D3D3D3D3D3D3D3D3D3D3DD9
:10183F003D3D3D3D3D3D3D3D3D3D3D3D0D0A007333
:10184F006B753A4B2564200D0A00736F6674207612
:10185F00657273696F6E3A2573200D0A00312E3051
:10186F00332E303000676170202564200D0A00741C
:10187F00696D6572202564200D0A003D3D3D3D3D9B
:10188F003D3D3D3D3D3D3D3D3D3D3D3D3D3D3D3D79
:10189F003D3D3D3D3D3D3D3D3D3D3D3D3D0D0A0009
:101B86004200B800004100BA004100B7004100B66B
:011B9600004E
:1024D900758E5390FE917401F090FF027410F022F2
:10119400E4900000F09000B7E0700A121EEA90009C
:1011A40000EFF08005E4900000F0900000E064019E
:1011B40070639000ACE0705D7BFF7A1779DF1208F2
:1011C400E2122527EF700D7F0112252D1223DDE495
:1011D400FF022468E4FF12252D121DEB9000ADE000
:1011E400FFD394034016A3E0FE70059000A280098B
:1011F400EED3940340069000957402F09000BA7404
:1012040001F0121E759000ADE0FF1216049000AEBE
:10121400E0FF021D61122527EF60030212C2900055
:1012240000E0640270507BFF7A1779EB1208E290B9
:1012340000ADE0C394095005E004F080069000ADD1
:101244007401F09000ADE0FFD394034016A3E0FED8
:1012540070059000A28009EED39403400690009597
:101264007402F09000BA7401F0121E759000ADE0A3
:10127400FF1216048045900000E064037040900063
:10128400AEE0C394055005E004F08005E49000AEA0
:10129400F09000ADE0D394034016A3E0FF700590F6
:1012A40000A28009EFD3940340069000957402F0E5
:0E12B4009000AEE0FF121D61121DEB1223161A
:0112C2002209
:081A1D00900006EEF0A3EFF0CB
:101A2500900091E0640270659000ACE06401705D27
:101A3500900006A3E0FFE4900091F0900072E0FEB4
:101A4500D3940F4048EED39F400CE09F9000AFF039
:101A5500A37401F08016900072E0FEC3EF9EFF9024
:101A650000AFF01225129000B07402F09000AFE0C4
:101A7500FFC394024006EFD394144007E49000AFEF
:101A8500F0A3F01223167D027F021223A09000B06E
:101A9500E0FDB401149000AFE0FF7E00900006EE7B
:101AA5008FF0120624AFF0FE22EDB402189000AFBD
:101AB500E0FFC3900007E09FFF900006E09400FE62
:0D1AC500F0A3EFF022900006E0FEA3E0FF8A
:011AD20022F1
:100CFA00900008ECF0A3EDF0900006EEF0FAA3EFF6
:020D0A00F0FBFC
:100D0C00E490000AF0A37432F0A3740AF0A3120763
:100D1C00A600000000C3EB9432EA94004016900049
:100D2C0008E0FEA3E0FF900006E0FCA3E0FDD39FEB
:100D3C00EC9E4003020DD3E4120342E4FBFA797AF1
:100D4C007844120227C004C005C006C007900008F2
:100D5C00E0FCA3E0FDE4120342E4FBFA797A784468
:100D6C00120227D003D002D001D000120029C004F7
:100D7C00C005C006C007900006E0FCA3E0FDE4122D
:100D8C000342E4FBFA797A7844120227E4FBFA79FD
:100D9C00FF7843120227A804A905AA06AB07D007BF
:100DAC00D006D005D00412022790000D12079AE449
:100DBC00FFFEFDFC90000DE0F8A3E0F9A3E0FAA320
:100DCC00E0FB1202C450057E007FFF227BFF7A17E6
:100DDC0079F990000DE0FCA3E0FDA3E0FEA3E0FF99
:100DEC0090004412079A1208E290000DE0FCA3E078
:100DFC00FDA3E0FEA3E0FFE4FBFAF9784112022721
:100E0C0090000D12079AE4FFFE7D927C4290000D3B
:100E1C00E0F8A3E0F9A3E0FAA3E0FB1202C450044B
:100E2C00E4FEFF2290000DE0FCA3E0FDA3E0FEA396
:100E3C00E0FF7BF37A1F79B6784212022790000DFF
:100E4C0012079A7FF37E1F7DB67C4290000DE0F86E
:100E5C00A3E0F9A3E0FAA3E0FB12011E7BF37A1FD7
:100E6C0079B678421202C4504C90000DE0FCA3E01D
:100E7C00FDA3E0FEA3E0FF7B497A9D7980783F12C9
:100E8C00022790000D12079A90000AE004F0E4FF8C
:100E9C00FE7D807C3F90000DE0F8A3E0F9A3E0FA22
:100EAC00A3E0FB1202C4600250BF90000AE0FFA353
:100EBC00E02FF0804E90000DE0FCA3E0FDA3E0FEDF
:100ECC00A3E0FF7B6D7AC5797E783F1202279000F4
:100EDC000D12079A90000AE004F0E4FFFE7D807C7E
:100EEC003F90000DE0F8A3E0F9A3E0FAA3E0FB12B9
:100EFC0002C440C190000BE0FF90000AE0FEC3EF7B
:0A0F0C009EA3F090000BE0FF7E00B2
:010F160022B8
:100F1700E4900000F0A3F0A3F0A3F0A3F0A3F090F7
:100F270000B9E004F070069000B8E004F0D3900038
:100F3700B9E094109000B8E094275003021063E4DE
:100F4700F0A3F07B0190000904F0A37400F0A374F0
:100F570004F07A0079021212C3900002E0FEA3E0C7
:100F6700FFA3E0FCA3E0FD120CFA900000EEF0A353
:100F7700EFF07BFF7A187904900044EEF0A3EFF0CE
:100F87001208E2900000E0FEA3E0FF121A1D900095
:100F970000EEF0A3EFF07BFF7A187913900044EE90
:100FA700F0A3EFF01208E2D3900003E09432900030
:100FB70002E094005003021042122527EF704D9073
:100FC70000BAE0B40129E4F0D3900001E094329034
:100FD7000000E0940090009874024009F090009F90
:100FE700740CF0800AF090009914F090009FF09034
:100FF70000AEE0FF121D619000ADE0FF12160490F5
:101007000000E0FEA3E0FF121AD380299000ACE0B5
:10101700B40118E4FF1224681223DD9000ADE0FF4D
:101027001216049000BC7401F0800AE4FF122468D1
:101037007F04122432E49000B7F022E49000ACF071
:101047009000BCF01223DDE4FF1224689000B67410
:0C105700FFF0FF1216049000B77401F0C7
:01106300226A
:101C33001224D912229E12244DD2AF12000E122466
:101C4300971210647FC87E0012235E1222EF7F205A
:101C53007E031224807F02122505E4FF1224687B91
:101C6300FF7A1879271208E27BFF7A18794E9000E1
:101C7300447423F0A37433F01208E290004474FF19
:101C8300F0A37418F0A3746CF07BFF7A18795912DF
:101C930008E27BFF7A1879749000ADE0FF9000446E
:101CA300E4F0A3EFF01208E27BFF7A18797E90004C
:101CB300AEE0FF900044E4F0A3EFF01208E27BFFF4
:101CC3007A18798A1208E2121194120F1712254317
:021CD30080F59A
:10219800900008EEF0A3EFF0A3ECF0A3EDF0D39FCE
:1021A800EC9E4004E4FF802290009FE0FFC3900073
:1021B80009E09FFF900008E09400FEC390000BE048
:0E21C8009F90000AE09E50057F0A12246822B4
:101AD300900006EEF0A3EFF0900099E0B40103024A
:101AE3001B769000ADE0B40A004003021B85901AF8
:101AF300F8F8282873021B16021B22021B2E021B56
:101B03003A021B46021B52021B5E021B6A021B6A3D
:101B1300021B76900006E0FCA3E0FD7F1E805E9032
:101B23000006E0FCA3E0FD7F308052900006E0FC5D
:101B3300A3E0FD7F348046900006E0FCA3E0FD7F38
:101B430036803A900006E0FCA3E0FD7F3B802E90B8
:101B53000006E0FCA3E0FD7F418022900006E0FC4C
:101B6300A3E0FD7F468016900006E0FCA3E0FD7F26
:101B73004B800A900006E0FCA3E0FD7F507E00123C
:031B830021982284
:10238000900094E0B401189000ADE0D39403400FA6
:102390007403F0FF121604122316E4900094F02246
:1014FE000D0A3D3D3D3D3D3D3D3D3D3D3D3D3D3D71
:10150E003D3D3D3D3D3D3D3D3D3D3D3D3D3D3D3DFD
:10151E003D3D3D3D3D3D3D3D3D3D0D0A00706F77EE
:10152E006572206F6E20666C617368206761703A19
:10153E002564202074696D65723A2564200D0A00B9
:10154E00706F776572206F6E20666C61736820769F
:10155E00616C75653A256420207369676E3A25645F
:10156E00200D0A003D3D3D3D3D3D3D3D3D3D3D3D5A
:10157E003D3D3D3D3D3D3D3D3D3D3D3D3D3D3D3D8D
:10158E003D3D3D3D3D3D3D3D3D3D3D3D0D0A003D1D
:10159E003D3D3D3D3D3D3D3D3D3D3D3D66697273AD
:1015AE007420696E697420646174613D3D3D3D3DFA
:1015BE003D3D3D3D3D3D200D0A00307825303458EF
:1015CE00202030782530345820203078253034587B
:1015DE002020307825303458200D0A00666C617357
:1015EE0068206761703A2564202074696D65723ACF
:0615FE002564200D0A0027
:101B97004400AD000000004400B1202005014100D1
:021BA700B50186
:062527009000B5E0FF2268
:06252D009000B5EFF02262
:10233C00D310AF01C3C0D075FDF075FC0F8EFA8FB2
:10234C00F975FDD275FC2D75FDE175FC1ED0D09292
:02235C00AF22AE
:1022C700D310AF01C3C0D08FFB75FDF075FC0FAE07
:1022D70004AF058EFA8FF975FDB475FC4B75FDE1FA
:0822E70075FC1ED0D092AF225D
:0C1F59007B017A0079AD7D047F047E3CA2
:101F6500D310AF01C3C0D0900008EEF0A3EFF0A3EB
:0B1F7500EDF0A3EBF0A3EAF0A3E9F00D
:101F8000E4A3F0C2AFF090000AE0FF90000EE0C3BF
:101F90009F502C90000BE0FBA3E475F00112063A71
:101FA000A9F0FA120577FF900008E475F001120617
:101FB0003AADF0FC1222C790000EE004F080C7D2C8
:011FC000AF71
:051FC100D0D092AF2218
:040003008F828E83D7
:03000700E493FF80
:01000A0022D3
:0620D4007B017D047E3C4F
:1020DA00900008EEF0A3EFF0A3EBF0A3EAF0A3E977
:1020EA00F0AF051DEF6028900008E475F0011206B4
:1020FA003A85F082F583E493FF90000AE0FBA3E4BB
:10210A0075F00112063AA9F0FAEF1205BD80D22243
:10221200E4FDFCED2400FFE4343CFE12000374B143
:102222002DF582E43400F583E0B507030C80037FCB
:1022320000220DEDB404DCECC3940440037F0122C0
:022242007F001B
:012244002277
:10106400E4900000F090FE927404F0122212EF70EB
:101074000790000004F080767BFF7A1479FE120852
:10108400E27A0079AD7F041220D47BFF7A15792BA4
:101094009000ADE0FF900044E4F0A3EFF09000AEC8
:1010A400E0FF900046E4F0A3EFF01208E27BFF7A41
:1010B40015794E9000AFE0FF900044E4F0A3EFF008
:1010C4009000B0E0FF900046E4F0A3EFF01208E2D5
:1010D4007BFF7A1579721208E29000ADE0D394098F
:1010E4005006A3E0940540069000007401F09000BF
:1010F40000E0640170777BFF7A15799D1208E29015
:1011040000AD7401F0A37403F07F007E3C12233C15
:101114007B017A0079B17D04121F65121F597A0090
:1011240079B17F001220D47BFF7A1579C89000B181
:10113400E0FF900044E4F0A3EFF09000B2E0FF90F1
:101144000046E4F0A3EFF09000B3E0FF900048E421
:10115400F0A3EFF09000B4E0FF90004AE4F0A3EFB6
:10116400F01208E27BFF7A1579721208E27BFF7AAB
:101174001579EA9000ADE0FF900044E4F0A3EFF0AD
:101184009000AEE0FF900046E4F0A3EFF00208E226
:102316007F047E3C12233C7B017A0079B17D047FE9
:1023260000121F65121F597B017A0079AD7D047F6B
:06233600047E3C0220DAE7
:0E24E900EF1F70011E144E6004000080F322ED
:102480007DA07C01ED1D70011C144C70F7EF1F70D6
:06249000011E144E70EA6B
:012496002223
:032547000224E982
:1024170090FF0974C1F090FF08F090FF07F090FF5C
:0B24270006F0D291D290D287D286221C
:08211A00900044EFF0A3EDF08A
:10212200E4A3F0F0900045E0FFA3E0C39F5027C274
:1021320087900044E020E704C2868002D286D287DC
:102142007F057E00122547900044E025E0F09000D4
:0621520046E004F080CE1F
:012158002264
:08215900900044EFF0A3EDF04B
:10216100E4A3F0F0900045E0FFA3E0C39F5027C235
:1021710087900044E020E004C2868002D286D287A4
:102181007F057E00122547900044E0C313F09000C4
:0621910046E004F080CEE0
:012197002225
:10243200900007EFF0C2917D047F8012211A900074
:0B24420007E0FF7D0812211AD2912252
:10227200900042EFF0A3EDF0C2917D037FA0122106
:102282001A900042E025E025E0FF7D0612211A9017
:0C2292000043E0FF7D04122159D291228C
:09251E00D291D290D287D286221C
:081BA9004100BB004100BC003B
:052539007F06022432C0
:05253E007F04022432BD
:1023BF00E4900000F0F0900000E0FFC39420500D77
:0D23CF007D0F122272900000E004F080E902
:0123DC0022DE
:1023DD00E4900041F0F0900041E0FFC39420500DD7
:0D23ED00E4FD122272900041E004F080E94E
:0123FA0022C0
:1022EF001224177F521224327F301224327F0A12A7
:1022FF0024327F081224327F021224327F061224E6
:07230F00321223DD0223BF9F
:0E24F700E4FD7F1C122272E4FD7F1F022272A0
:101D6100900006EFF07F06122432E4FD7F1F12225D
:101D710072E4FD7F1C122272900006E014601B14B5
:101D8100602314602B14603A1460492405705A7D55
:101D91000A7F1B1222727D0E80317D0B7F1B122266
:101DA100727D0A80267D0E7F1B1222727D0A801BA6
:101DB1007D0A7F1B1222727D0A7F1C1222727D0B0B
:101DC10080227D0A7F1B1222727D0B7F1C122272E0
:101DD1007D0A80107D0A7F1B1222727D0A7F1C12F0
:0A1DE10022727D0E7F1F1222722273
:10160400900006EFF07F06122432E4FD7F1D1222C3
:1016140072E4FD7F1E1222729000BCE06401700E21
:101624009000BBE070057D060216DB0216EE90000A
:1016340006E0B401047D068063900006E0B4020B6A
:101644007D0B7F1D1222727D0C8065900006E0B434
:10165400030B7D0F7F1D1222727D048053900006C0
:10166400E0B4040B7D067F1D1222727D068041903A
:101674000006E0B4050B7D0D7F1D1222727D0680ED
:101684002F900006E0B4060B7D0D7F1D1222727DA3
:101694000E801D900006E0B407067D077F1D80596B
:1016A400900006E0B4080D7D0F7F1D1222727D0E9E
:1016B4007F1E8045900006E0B4090D7D0F7F1D124A
:1016C40022727D067F1E8031900006E0F4702D901A
:1016D40000BBE070157D017F1D1222727D0E7F1EFE
:1016E4001222729000BB7401F022E49000BBF0FD62
:0D16F4007F1C122272E4FD7F1F1222722261
:101BB1005E00730000000000000000000000000053
:101BC1000000000000000000000000000000000014
:091BD10000410091004100720086
:10229E0090FF0E74C1F090FF0F7461F090FFA07468
:1022AE0016F090FFA104F075CEFF75CDE675CC0645
:0922BE00759E02759810D2AC2245
:0C251200C2AC8F993099FDC299D2AC2266
:03254A0002251255
:0B22450090000DEBF0A3EAF0A3E9F01D
:10225000E4FEEEC39D501A90000DE0FBA3E0FAA34C
:10226000E0F98E82758300120590FF12254A0E80D8
:01227000E18C
:01227100224A
:1023A0009000087455F0A3EFF0A3EDF0A3740DF0C6
:0F23B000A3740AF07B017A0079087D05022245AB
:06253300AE071225122282
:0300230002208731
:0D208700C0E0C083C082C0D075D000C0078B
:10209400E59830E030AF995398FE900091E01460D9
:1020A40019047021EFB4551D900073F0900071E095
:1020B40004F09000917401F0800B900072EFF090A6
:0520C40000917402F020
:0B20C900D007D0D0D082D083D0E0320E
:101BDA004100AC004100A3004200A400004100A65D
:0F1BEA00004200A700004100A9014200AA00002C
:10000E0090FF1D7461F090FF15F090FF16F090FFB9
:03001E0002F022CB
:1018AF00E4900002F0A2A533900001F09000A3E0B5
:1018BF0014602614604E147003021952240360033F
:1018CF0002195B900001E060030219609000A4F020
:1018DF00A3F09000A304F08078900001E0706B906B
:1018EF0000A5E004F070069000A4E004F0C390009F
:1018FF00A5E094039000A4E09400403E9000A374F0
:10190F0002F08036900001E0B40106A37404F08069
:10191F003B9000A5E004F070069000A4E004F0C333
:10192F009000A5E094789000A4E09400400C900003
:10193F00027405F09000A37403F07F0A7E00122456
:10194F0080800E900001E0B401078000E49000A3B6
:06195F00F0900002E0FF21
:01196500225F
:10196600E4900002F0A2A633900001F09000A6E0F9
:1019760014602614604E147003021A0924036003CF
:10198600021A12900001E06003021A179000A7F0F5
:10199600A3F09000A604F08078900001E0706B90B0
:1019A60000A8E004F070069000A7E004F0C39000E1
:1019B600A8E094039000A7E09400403E9000A6742F
:1019C60002F08036900001E0B40106A37404F080B2
:1019D6003B9000A8E004F070069000A7E004F0C376
:1019E6009000A8E094F09000A7E09400400C9000CE
:1019F600027406F09000A67403F07F0A7E0012249B
:101A060080800E900001E0B401078000E49000A6FB
:061A1600F0900002E0FF69
:011A1C0022A7
:101EEA001218AFBF05037F0122121966BF0612122C
:101EFA002527BF01059000AC8039E49000ACF08042
:101F0A00359000A9E0602330A60320B51D9000ACEF
:101F1A00E070177F32FE122480E49000A9F020A618
:101F2A00037F032220B50F7F022230A60930B506AF
:101F3A009000A97401F030A513D39000ABE094018E
:0E1F4A009000AAE094004004E4F0A3F07F00B1
:011F58002266
:101701007365742074696D65207365636F6E643AE7
:1017110025640D0A0065786368616E67655F6865B9
:1017210061745F76616C7565200D0A0074696D6581
:10173100207365636F6E643A2564200D0A00707230
:101741006F74656374200D0A0074696D65206F669E
:1017510066200D0A0074696D655F746F5F302E3508
:1017610048202074696D655F7365633D2564200DB4
:101771000A0074696D655F746F5F31482020746978
:101781006D655F7365633D2564200D0A0074696DA5
:10179100655F746F5F3248202074696D655F7365A2
:1017A100633D2564200D0A0074696D655F746F5F88
:1017B1003448202074696D655F7365633D2564203D
:1017C1000D0A0074696D655F746F5F38482020747D
:0E17D100696D655F7365633D2564200D0A0038
:101BF90041009E0042009C00004200A000004100FC
:101C09009400410095004100A20041009F0041005D
:101C19009800420096000042009A0000420092009B
:051C29000041009900DC
:1023FB0090009CEEF0A3EFF0E4A3F07BFF7A17794B
:0C240B0001900044EEF0A3EFF00208E2A4
:101E7500EFB40A00506E901E82F8282873021EA047
:101E8500021EAA021EAC021EAE021EB8021EC2022D
:101E95001ECC021ED6021EE0021EE0900092E4F067
:101EA500A3741EF02280028000900092E4F0A374D7
:101EB5003CF022900092E4F0A3745AF02290009234
:101EC500E4F0A37478F022900092E4F0A37496F005
:101ED50022900092E4F0A374B4F022900092E4F012
:051EE500A374F0F022DF
:102030009000ADE0B40A00504D902040F82828737D
:1020400002205E02206002206202206902207002EB
:1020500020720220790220800220800220808002EB
:10206000800090009F7401F02290009F7403F02282
:10207000800090009F7405F02290009F7408F02269
:0720800090009F740CF02298
:1021D600900098E0B40234900096E475F00112067F
:1021E60024FEC3900093E095F0900092E09E501B71
:1021F6007BFF7A1779161208E2E4900098F09000B7
:0C22060096F0A3F0900099F01220302216
:101DEB00E490009EF09000AEE0FF700890009CF035
:101DFB00A3F08052EFB4010C90009C7407F0A30485
:101E0B00F0E48042EFB4020D90009C740EF0A374CA
:101E1B0010F0E48031EFB4030D90009C741CF0A320
:101E2B007420F0E48020EFB4040D90009C7438F023
:101E3B00A37440F0E4800FEFB4051790009C74700E
:101E4B00F0A37480F0E49000A0F0A3F090009AF05F
:101E5B00A3F07BFF7A17792D90009CE0FFA3E09015
:0A1E6B000044CFF0A3EFF00208E2FC
:10249700E490FE80F0F589758CF2758AFBC28DD2C7
:0624A700A9D28CD2AF2285
:03000B000213EFEE
:1013EF00C0E0C0F0C083C082C0D075D000C000C0C4
:1013FF0001C002C003C004C005C006C007122527E4
:10140F00EF60030214E390009EE004F0E0C39464E5
:10141F0050030214E31221D69000A2E0B4022D90E3
:10142F0000A1E004F070069000A0E004F0D390005B
:10143F00A1E094209000A0E0941C40109000A2E442
:10144F00F09000A0F0A3F090009404F0D390009DD2
:10145F00E0940090009CE094004048A3E024FFF04B
:10146F0090009CE034FFF0900095E0640270609073
:10147F0000A1E004F070069000A0E004F0D390000B
:10148F00A1E094209000A0E0941C4043900094743D
:10149F0001F0A3E4F09000A0F0A3F07BFF7A17799E
:1014AF003F80299000AEE060267F0112252D90002D
:1014BF009CE4F0A3F09000A0F0A3F0900095F090C2
:1014CF0000A2F01223DD7BFF7A17794A1208E2900F
:1014DF00009EE4F0D007D006D005D004D003D00290
:0F14EF00D001D000D0D0D082D083D0F0D0E03266
:101FC60090009AE475F001120624FEE5F08EF012F8
:101FD600081D1FF007081FF80E1020001C202008FF
:101FE6003840201070800000202F7BFF7A1779562A
:101FF600801E7BFF7A17797380167BFF7A17798E9E
:10200600800E7BFF7A1779A980067BFF7A1779C441
:1020160090009CE0FFA3E0900044CFF0A3EFF01205
:0A20260008E2E490009AF0A3F02213
:041C2E004100BD00B4
:102468007E009000BDE0FD7C0012084AE47B64FA1F
:07247800F9F81206FA8FDFEC
:01247F00223A
:10235E0090FF0074C1F0E490FF9CF0AC06AD077ED8
:10236E007A7F121205CFEF149000BDF0F5DE75DD09
:02237E009722A4
:10244D0090FF017401F090FF03F075B4807F147E4E
:0B245D00001224E990FE9B7449F0225D
:1024AD00E4FFFE75B50143B440E5B430E5FB53B42C
:0524BD00DFAEB7AFB671
:0124C20022F7
:1024C300E4FFFE75B50343B440E5B430E5FB53B414
:0524D300DFAEB7AFB65B
:0124D80022E1
:0B12C300900006EBF0A3EAF0A3E9F0B6
:1012CE0090000C1207A600000000E4900010F0F051
:1012DE0090000CE0F8A3E0F9A3E0FAA3E0FB1224DF
:1012EE00ADE4FCFDEB2FFFEA3EFEED39FDEC38FCE4
:1012FE0090000C12079A900010E004F0E0C39405E1
:10130E0040CE90000CE0FCA3E0FDA3E0FEA3E0FFC6
:10131E00E47B05FAF9F81206FA90000C12079AE42B
:10132E007F887E13FDFC90000CE0F8A3E0F9A3E0AB
:10133E00FAA3E0FB12066FE4FB7A10F9F81206FA34
:10134E00900006E0FBA3E0FAA3E0F9EE8FF01206A0
:10135E005090000C1207A600000000E4900010F060
:10136E0090000CE0F8A3E0F9A3E0FAA3E0FB12244E
:10137E00C3E4FCFDEB2FFFEA3EFEED39FDEC38FC3D
:10138E0090000C12079A900010E004F0E0C3940550
:10139E0040CE90000CE0FCA3E0FDA3E0FEA3E0FF36
:1013AE00E47B05FAF9F81206FA90000C12079AE49B
:1013BE007F887E13FDFC90000CE0F8A3E0F9A3E01B
:1013CE00FAA3E0FB12066FE4FB7A10F9F81206FAA4
:1013DE00900009E0FBA3E0FAA3E0F9EE8FF002061D
:0113EE0050AE
:0D25050075BD17EF75F02BA490FEA0F0221D
:0425430043BD102262
:100026000203B0E86480F8E933E83360110460F055
:10003600ED33EC337009E8FCE9FDEAFEEBFF220440
:1000460060DED3EB9FEA9EE99DE8C2E78CF0C2F73B
:1000560095F0400CE8CCF8E9CDF9EACEFAEBCFFB07
:1000660012037B85D0F05804700320D5B3E80470E2
:10007600075002B2D50203BA92D5EC0460F7E4CC7D
:10008600C0E0C398F8603B94186008400DD0E0FBD0
:10009600020392E4FBFAC9FC8028E830E406E4C9CE
:1000A600FBE4CAFCE830E305E4C9CACBFCE8540724
:1000B6006010F8C3E913F9EA13FAEB13FBEC13FC2F
:1000C600D8F130F52FC3E49CFCEF9BFFEE9AFEEDD2
:1000D60099FDD0E0FBEF4E4D4C701222DB0302037C
:1000E600B7EC2CFCEF33FFEE33FEED33FDED30E7DE
:1000F600EB020392EF2BFFEE3AFEED39FDD0E0FB6B
:1001060050130BBB00030203BAED13FDEE13FEEF13
:0801160013FFEC13FC0203923D
:10011E00EC4D6011E8497017ED33EC3304600DE4DB
:10012E00FCFFFEFD22E933E8330470F80203B0123F
:10013E00037B58046009E4CC248150062850090240
:10014E0003BA2840030203B7C0E0EB4A7044B980FB
:10015E0006D0E0FB0203A6EF4E701CBD8008EBFF3D
:10016E00EAFEE9FD80EBE98DF0A4FEE5F002020760
:10017E00E9CDF9EAFEEBFFEF89F0A4FCE5F0CE89BC
:10018E00F0A42EFFE435F0CD89F0A42DFEE435F079
:10019E008067EF4E7005BD80D780C3EF8BF0A4ACA7
:1001AE00F0EE8BF0A42CFCE435F0F8EF8AF0A42CE2
:1001BE00E5F038FCE433CB8DF0A42CFCE5F03BF8F5
:1001CE00EE8AF0A42CFCE5F038F8E433CF89F0A4E5
:1001DE002CFCE5F038CF3400CE89F0A42FFFE5F0EB
:1001EE003EFEE433C98DF0A42EFEE5F039CD8AF043
:1001FE00A42FFFE5F03EFEE43DFD33D0E0FB5007BB
:10020E000BBB000F0203BAEC2CFCEF33FFEE33FEF8
:06021E00ED33FD02039226
:100224000203BAEC5D046005E8590470030203B0EC
:1002340012037B580460F6EC4860F2EC7004FDFE97
:10024400FF22C860DB2481C85009C39860025006AD
:100254000203B79850CAF582E9294B4A7005AB826C
:100264000203A675F0007C1A7880C3EF9BEE9AED2A
:1002740099400DC3EF9BFFEE9AFEED99FDE842F025
:10028400DC23ACF0D0E0FFD0E0FED0E0FDAB822078
:10029400E7101BEB60BAEC2CFCEF33FFEE33FEED02
:1002A40033FD020392E803F830E705C0F075F0006F
:1002B400EF2FFFEE33FEED33FD40B830E7C280AAE6
:1002C40074F8CC6480CCC86480C8F58204604FC3E1
:1002D400EB9FF5F0EA9E42F0E99D42F0E89C45F080
:1002E400603C501DE5825FFFE582D313CB5BCBF40A
:1002F4002B5582FB50280ABA002409B90020088033
:100304001DE5825BFBE582D313CF5FCFF4C3132FCC
:100314005582FF50090EBE00050DBD00010CC3EB54
:100324009FF5F0EA9E42F0E99D42F0E89C45F060BA
:0903340007CC4820E701B3EC22DC
:10033D0075F020800E75F010800575F0087D007E3B
:10034D00007F003392D530D50312078CEC3340106B
:10035D00EF33FFEE33FEED33FDEC33FCD5F0ED2244
:0E036D00E5F0247EA2D513CC92E7CDCEFF2280
:10087700E50D2444F582E43400F583E0050D22906C
:100887000041301003900044E475F0011207D702CD
:1008970005772009E97F2ED2098018EF540F24909D
:1008A700D43440D4FF300D0BEF24BFB41A005003EB
:1008B7002461FFE50E6002150E0511E511700205B2
:1008C7001030100E900041E475F0011207D7EF02C7
:1008D70005BD0225337403D2108003E4C210F50D61
:1008E7009000411207EEE4F50EF510F511E50E60E4
:1008F700077F201208BA80F5750FFFC20AC209C226
:100907000BC20CC20EC20FC211120886FF700D3047
:1009170010057F001208CBAF11AE1022B4255FC2BD
:10092700D5C20D120886FF24D0B40A00501A75F0FC
:100937000A780E30D50508B6FF0106C6A426F620AC
:10094700D5047002D20C80D924CFB41A00EF50041A
:10095700C2E5D20D020BBDD20A80C6D20980C0D231
:100967000B80BCD2D580BAD20E80B47F201208BAD1
:10097700200B077401B50E0040F1120877FF12082B
:10098700BA0208F4D211D20F8095120877FB120829
:1009970077FA120877F94A4B700679BB7A0C7BFF16
:1009A700200B2EE50E602A7E008E827583001205CD
:1009B7009060060EEE650F70F0C2D5EBC0E0EAC09E
:1009C700E0E9C0E0EE120C1ED0E0F9D0E0FAD0E08A
:1009D700FB120577FF60AAEBC0E0EAC0E0E9C0E0E0
:1009E7001208BAD0E02401F9D0E03400FAD0E0FBD5
:1009F700E50F0460DCD50FD98087D20B80A2120CDB
:100A07000060F7E50F7001041203C5A90F600DE53B
:100A17000F600914F50F120CA8EF60F3EA30E70234
:100A2700F404C3995079EAF4250F0430E701E4048C
:100A3700F50F800D120C0060C1EA050F250F120398
:100A4700C5EA900070F030E701E4250F04D50F04E4
:100A5700200E0114120C1EE4C0E0120CA8900070C6
:100A6700E0601320E70714F01208A2802204F0D0F8
:100A7700E014C0E07F001208A2E50F600712089992
:100A8700150F800B300E03120899D0E00208F4D03E
:100A9700E00480C4120C00609EE50F041203C590A9
:100AA7000070EAF0E50F200E026001042404120C26
:010AB7001E20
:100AB80074FF04C0E0120CA81208A2E50F200E0271
:100AC8006003120899D0E0B50FE87F451208AC9092
:100AD8000070E07F2B30E7047F2DF404C0E012089B
:100AE800BAD0E075F00A84C0F01208A3D0E012086A
:100AF800A30208F4791080027908C20FC211800895
:100B0800D2D5790A8004790AC2D5E50F047002F5B6
:100B18000FE4FAFDFEFF120877FC7B08200A131287
:100B28000877FD7B1030090A120877FE120877FF54
:100B38007B20EC3382D592D55013C3E43009069F4D
:100B4800FFE49EFEE4200A039DFDE49CFCE4CBF850
:100B5800C20AEC700CCFCECDCCE824F8F870F38044
:100B680017C3EF33FFEE33FEED33FDEC33FCEB330D
:100B7800FB994002FB0FD8E9EB300A05F8D0E0C436
:100B880048B20AC0E00AEC4D4E4F78207B0070C294
:100B9800EAB50F0040BCC0E0120C20D0F0D0E02035
:100BA8000A04C4C0E0C4B20AC0F01208A3D0F0D549
:100BB800F0EB0208F41207F70991530AFC5809628E
:100BC8004C095E420B004F0B08440B084909774358
:100BD8000B0E550A3B460A9B450A05470CDB500994
:100BE800662D096A2E098D2B096E23098B200CC4EA
:100BF8002A09264800000985E50FB4FF03750F068A
:100C0800120877FC120877FD120877FE120877FFA2
:100C1800900069020402790AA2D5200C14300E094A
:100C2800B910020404B9080104A2D5200F0250012A
:100C380004200B68920BB50E005034C0E07F2030C2
:100C48000C197F30A20B720F720E500F120C77C264
:100C58000BC20FC20EC2117F30800F300E03E9C0E5
:100C6800E01208BA300E03D0E0F9D0E0B50ECC306F
:100C78000E177F30B9100C1208BA7F58300D077F55
:100C8800788003B908031208BA300B057F2D0208D3
:100C9800BA7F202011F87F2B200FF322920B80CFF0
:100CA8007F00B40700500B2469F582E43400F58313
:100CB800E0FF22286E756C6C2900D20A1208773082
:100CC8000AF8C20A780E30D50108F60209262D5016
:100CD8004349581208772403B405004001E4900CF6
:100CE800D6931208AB743A1208ABD20C750E0402F4
:020CF8000AFCF4
:10037B00E9D2E7C933E833F892D5EDD2E7CD33ECC8
:07038B0033FC5002B2D52241
:10039200EC30E7100FBF000C0EBE00080DBD0004CC
:1003A2000BEB6014A2D5EB13FCED92E7FD2274FF78
:1003B200FCFDFEFF22E480F8A2D574FF13FC7D80D1
:0303C200E480EFE5
:1003C500F920E73624F950037907E4F42402FBE524
:1003D50082158270021583DBF6E024FB501BE96071
:1003E50014E4F0E582158270021583E004F0B40A86
:0D03F50008E4F0D9EE7401F00A22C2D5220E
:10040200ED33EC3392D5FA602AB4FF33EDC2E77BC9
:10041200FF60067A047927E4227A04793020D50431
:100422007A04792B224E614E002B494E46002D490B
:100432004E4600E47A08F0A3DAFC7B00740722C07F
:1004420083C082ECC0E0EDC0E0EEC0E0EFC0E0EAC5
:1004520075F010A4CAABF075F04DA42BFBE435F097
:10046200FCEA2410FAEB34C5FBEC34D9FCEDC2E70C
:10047200FF75F056A4F42411C5F0F434C58FF0A42E
:100482002AE5F03BE43CF020E714120537D0E0FF08
:10049200D0E0FED0E0FDD0E0FC1202278014F4048C
:1004A200120537D0E0FFD0E0FED0E0FDD0E0FC1234
:1004B200011ED082D083E0FAEDD2E7CD33EC3324B3
:1004C20082FBE4C3CF33CFCE33CECD33CD33DBF398
:1004D2007B0775F00A846004F0A31B0AE5F0F0A321
:1004E2008FF0740AA4FFACF08EF0740AA42CFEAC58
:1004F200F050010C8DF0740AA42CFDE435F0F0A349
:05050200DBDE7407229E
:100507003F8000004120000042C80000447A0000FC
:10051700461C400047C35000497424004B1896807E
:100527004CBEBC205A0E1BCA6753C21C749DC5AE75
:10053700FB60065407601C2323120565EB543860E3
:100547000912055112056012011EECF8EDF9EEFAD9
:10055700EFCB22EB12056080F1543803241C900581
:1005670007FE93FC0EEE93FD0EEE930ECE93FF2245
:101CE100021C33E493A3F8E493A34003F68001F2CA
:101CF10008DFF48029E493A3F85407240CC8C33304
:101D0100C4540F4420C8834004F456800146F6DFD2
:101D1100E4800B0102040810204080901B86E47EC1
:101D2100019360BCA3FF543F30E509541FFEE493C7
:101D3100A360010ECF54C025E060A840B8E493A38E
:101D4100FAE493A3F8E493A3C8C582C8CAC583CAB9
:101D5100F0A3C8C582C8CAC583CADFE9DEE780BE71
:011C320000B1
:10057700BB010689828A83E0225002E722BBFE0282
:09058700E32289828A83E49322B5
:10059000BB010CE58229F582E5833AF583E0225020
:1005A00006E92582F8E622BBFE06E92582F8E2226A
:0D05B000E58229F582E5833AF583E4932284
:1005BD00BB010689828A83F0225002F722BBFE011D
:0205CD00F32217
:1005CF00BC000BBE0029EF8DF084FFADF022E4CC10
:1005DF00F875F008EF2FFFEE33FEEC33FCEE9DECD9
:1005EF00984005FCEE9DFE0FD5F0E9E4CEFD22ED1F
:1005FF00F8F5F0EE8420D21CFEADF075F008EF2F69
:10060F00FFED33FD4007985006D5F0F222C398FD59
:05061F000FD5F0EA22F6
:10062400C5F0F8A3E028F0C5F0F8E5821582700261
:060634001583E038F022FE
:10063A00A3F8E0C5F025F0F0E58215827002158373
:06064A00E0C838F0E822D0
:10065000BB010A89828A83F0E5F0A3F0225006F7F5
:0F06600009A7F01922BBFE06F3E5F009F31922F2
:10066F00E88FF0A4CC8BF0A42CFCE98EF0A42CFC2A
:10067F008AF0EDA42CFCEA8EF0A4CDA8F08BF0A4A8
:10068F002DCC3825F0FDE98FF0A42CCD35F0FCEB07
:10069F008EF0A4FEA9F0EB8FF0A4CFC5F02ECD39CC
:0F06AF00FEE43CFCEAA42DCE35F0FDE43CFC2239
:1006BE0075F008758200EF2FFFEE33FECD33CDCCF3
:1006CE0033CCC58233C5829BED9AEC99E582984076
:1006DE000CF582EE9BFEED9AFDEC99FC0FD5F0D653
:1006EE00E4CEFBE4CDFAE4CCF9A88222B800C1B97D
:1006FE000059BA002DEC8BF084CFCECDFCE5F0CBBB
:10070E00F97818EF2FFFEE33FEED33FDEC33FCEBF3
:10071E0033FB10D703994004EB99FB0FD8E5E4F9AE
:10072E00FA227818EF2FFFEE33FEED33FDEC33FC9B
:10073E00C933C910D7059BE99A4007EC9BFCE99A8F
:10074E00F90FD8E0E4C9FAE4CCFB2275F010EF2FD4
:10075E00FFEE33FEED33FDCC33CCC833C810D707D4
:10076E009BEC9AE899400AED9BFDEC9AFCE899F80F
:0E077E000FD5F0DAE4CDFBE4CCFAE4C8F922A2
:0E078C00C3E49FFFE49EFEE49DFDE49CFC227E
:0C079A00ECF0A3EDF0A3EEF0A3EFF022D2
:1007A600A8828583F0D083D0821207BD1207BD12BE
:1007B60007BD1207BDE473E493A3C583C5F0C583E3
:1007C600C8C582C8F0A3C583C5F0C583C8C582C89D
:0107D6002200
:1007D700F8E0FBA3A3E0F925F0F0E58215827002AB
:0707E7001583E0FA38F0224F
:0907EE00EBF0A3EAF0A3E9F0220C
:1007F700D083D082F8E4937012740193700DA3A391
:1008070093F8740193F5828883E4737402936860A4
:06081700EFA3A3A380DFA4
:10081D00D083D082F8E4937012740193700DA3A36A
:10082D0093F8740193F5828883E473740293B5F0A1
:0D083D00067403936860E9A3A3A3A380D809
:10084A00EC8EF0A4CCC5F0CCCDF8EFA4CEC5F02D3B
:10085A00FDE43CFCE8A42EC8C5F03DFDE43CFCEFF9
:0D086A00A4FFE5F028FEE43DFDE43CFC2287
:00000001FF
