:03000000021E8657
:0C1E8600787FE4F6D8FD758122021ECDA5
:101DE100206B65795F7363616E0D0A0052203D209F
:101DF100256620200D0A002564200D0A000D0A3DEC
:101E01003D3D3D3D3D3D3D3D3D3D3D3D3D3D3D3D01
:101E11003D3D3D3D3D3D3D3D3D3D3D3D3D3D3D3DF1
:101E21003D0D0A00736B753A4B2564200D0A007352
:101E31006F66742076657273696F6E3A2573200D33
:101E41000A00312E31302E30300067617020256458
:101E5100200D0A0074696D6572202564200D0A0049
:101E61003D3D3D3D3D3D3D3D3D3D3D3D3D3D3D3DA1
:101E71003D3D3D3D3D3D3D3D3D3D3D3D3D3D3D3D91
:051E81003D3D0D0A00CB
:101985004200BC00004100BF004100BB004100BE59
:05199500004100BA0052
:10000E00758E5390FE917401F090FF027410F022E1
:10145500E4900000F09000BBE0700A121F9C900021
:1014650000EFF08005E4900000F0900000E06404D7
:1014750070699000B9E070637BFF7A1D79E112080D
:10148500E2122815EF70107F0112281B122690E436
:10149500FF1227190227EA1227B5E4FF12281B12AB
:1014A500211B9000A8E0FFD394034016A3E0FE7033
:1014B500059000A58009EED394034006900096742C
:1014C50002F09000BF7401F012209F9000A8E0FF89
:1014D50012108A9000A9E0FF021F12122815EF6072
:1014E50003021586900000E06402704A1227B59049
:1014F50000A8E0C394095005E004F080069000A818
:101505007401F09000A8E0FFD394034016A3E0FE19
:1015150070059000A58009EED394034006900096CF
:101525007402F09000BF7401F012209F9000A8E0B3
:10153500FF12108A8048900000E064037043122770
:10154500B59000A9E0C394055005E004F08005E4DA
:101555009000A9F09000A8E0D394034016A3E0FF03
:1015650070059000A58009EFD3940340069000967E
:101575007402F09000A9E0FF121F1212211B122520
:01158500A6BF
:011586002242
:081A4900900006EEF0A3EFF09F
:101A5100900091E06402706A9000B9E064017062E4
:101A6100900006A3E0FFE4900091F09000AC04F038
:101A7100900072E0FED3940F4048EED39F400CE0FB
:101A81009F9000AAF0A37401F08016900072E0FE0E
:101A9100C3EF9EFF9000AAF01227DE9000AB740204
:101AA100F09000AAE0FFC394024006EFD3941440E3
:101AB10007E49000AAF0A3F01225A67D027F02128E
:101AC10026539000ABE0FDB401149000AAE0FF7E24
:101AD10000900006EE8FF0120624AFF0FE22EDB466
:101AE10002189000AAE0FFC3900007E09FFF90005A
:101AF10006E09400FEF0A3EFF022900006E0FEA3C2
:021B0100E0FF03
:011B030022BF
:100CFA00900008ECF0A3EDF0900006EEF0FAA3EFF6
:020D0A00F0FBFC
:100D0C00E490000AF0A37432F0A3740AF0A3120763
:100D1C00A600000000C3EB9432EA94004016900049
:100D2C0008E0FEA3E0FF900006E0FCA3E0FDD39FEB
:100D3C00EC9E4003020DD3E4120342E4FBFA797AF1
:100D4C007844120227C004C005C006C007900008F2
:100D5C00E0FCA3E0FDE4120342E4FBFA797A784468
:100D6C00120227D003D002D001D000120029C004F7
:100D7C00C005C006C007900006E0FCA3E0FDE4122D
:100D8C000342E4FBFA797A7844120227E4FBFA79FD
:100D9C00FF7843120227A804A905AA06AB07D007BF
:100DAC00D006D005D00412022790000D12079AE449
:100DBC00FFFEFDFC90000DE0F8A3E0F9A3E0FAA320
:100DCC00E0FB1202C450057E007FFF227BFF7A1DE0
:100DDC0079ED90000DE0FCA3E0FDA3E0FEA3E0FFA5
:100DEC0090004412079A1208E290000DE0FCA3E078
:100DFC00FDA3E0FEA3E0FFE4FBFAF9784112022721
:100E0C0090000D12079AE4FFFE7D8C7C4290000D41
:100E1C00E0F8A3E0F9A3E0FAA3E0FB1202C450054A
:100E2C007E007F652290000DE0FCA3E0FDA3E0FEB8
:100E3C00A3E0FF7BF37A1F79B67842120227900069
:100E4C000D12079A7FF37E1F7DB67C4290000DE059
:100E5C00F8A3E0F9A3E0FAA3E0FB12011E7BF37AFE
:100E6C001F79B678421202C4504C90000DE0FCA3DE
:100E7C00E0FDA3E0FEA3E0FF7B497A9D7980783FFB
:100E8C0012022790000D12079A90000AE004F0E479
:100E9C00FFFE7D807C3F90000DE0F8A3E0F9A3E01D
:100EAC00FAA3E0FB1202C4600250BF90000AE0FFFC
:100EBC00A3E02FF0804E90000DE0FCA3E0FDA3E03A
:100ECC00FEA3E0FF7B6D7AC5797E783F12022790F6
:100EDC00000D12079A90000AE004F0E4FFFE7D80FA
:100EEC007C3F90000DE0F8A3E0F9A3E0FAA3E0FB4F
:100EFC001202C440C190000BE0FF90000AE0FEC358
:100F0C00EF9EA3F09000BEE0B401057E007FFE22B0
:070F1C0090000BE0FF7E00D6
:010F230022AB
:100F2400E4900000F0A3F0A3F0A3F0A3F0A3F090EA
:100F340000BDE004F070069000BCE004F0D3900023
:100F4400BDE094109000BCE094275003021089E4A3
:100F5400F0A3F07B0190000B04F0A37400F0A374E1
:100F640004F07A007902121587900002E0FEA3E0F3
:100F7400FFA3E0FCA3E0FD120CFA900000EEF0A346
:100F8400EFF0121A49900000EEF0A3EFF07BFF7A25
:100F94001D79F8900044EEF0A3EFF01208E2D3902C
:100FA4000003E09432900002E094005003021044E5
:100FB4009000BEE06003021044122815EF704D90BB
:100FC40000BFE0B40129E4F0D3900001E094329032
:100FD4000000E0940090009974024009F09000A091
:100FE4007404F0800AF090009A14F09000A0F0903D
:100FF40000A9E0FF121F129000A8E0FF12108A90CF
:101004000000E0FEA3E0FF1218BC802E9000B9E0BF
:10101400B40118E4FF1227191226909000A8E0FFEB
:1010240012108A9000C47401F0800FE4FF12271993
:101034007F041226C9E49000C4F0E49000BBF022BF
:101044009000BEE070179000B9F09000C4F0122632
:1010540090E4FF1227199000BA74FF801D9000BE1F
:10106400E0B40121E49000B9F09000C4F01226909D
:10107400E4FF1227199000BA74FEF0FF12108A9050
:0510840000BB7401F047
:011089002244
:101B040012000E12252E1226E4D2AF1225CC122773
:101B1400481211DB7FC87E001226111227B5122548
:101B24007F7F207E031227311226907F0312108AB2
:101B34007F021227D17F0A1227191226FFE4FF120F
:101B440027197BFF7A1D79FE1208E27BFF7A1E7942
:101B5400259000447423F0A3743BF01208E2900033
:101B64004474FFF0A3741EF0A37443F07BFF7A1E49
:101B740079301208E27BFF7A1E794B9000A8E0FFCF
:101B8400900044E4F0A3EFF01208E27BFF7A1E79A0
:101B9400559000A9E0FF900044E4F0A3EFF0120890
:101BA400E27BFF7A1E79611208E2121455120F24A7
:081BB40012280212282C80F215
:1023C900900008EEF0A3EFF0A3ECF0A3EDF0D39F9B
:1023D900EC9E4004E4FF80229000A0E0FFC390003F
:1023E90009E09FFF900008E09400FEC390000BE015
:0E23F9009F90000AE09E50057F0A12271922CD
:1018BC00900006EEF0A3EFF090009AE0B4010D90CA
:1018CC000006E0FCA3E0FD7F4D02197F9000A8E02C
:1018DC00B40A0040030219849018EBF8282873020C
:1018EC00190902191502192102192D0219390219A7
:1018FC004502195102195D02196902197590000609
:10190C00E0FCA3E0FD7F1E806A900006E0FCA3E0F3
:10191C00FD7F2B805E900006E0FCA3E0FD7F2F8016
:10192C0052900006E0FCA3E0FD7F3280469000065A
:10193C00E0FCA3E0FD7F36803A900006E0FCA3E0DB
:10194C00FD7F3C802E900006E0FCA3E0FD7F4180F3
:10195C0022900006E0FCA3E0FD7F46801690000676
:10196C00E0FCA3E0FD7F4A800A900006E0FCA3E0C7
:09197C00FD7F4E7E001223C922FA
:10263300900095E0B401189000A8E0D39403400FF4
:102643007403F0FF12108A1225A6E4900095F0227D
:0A28020030A1069000BE7401F02220
:1016B3000D0A3D3D3D3D3D3D3D3D3D3D3D3D3D3DBA
:1016C3003D3D3D3D3D3D3D3D3D3D3D3D3D3D3D3D47
:1016D3003D3D3D3D3D3D3D3D3D3D0D0A00706F7738
:1016E3006572206F6E20666C617368206761703A63
:1016F3002564202074696D65723A2564200D0A0003
:10170300706F776572206F6E20666C6173682076E8
:10171300616C75653A256420207369676E3A2564A8
:10172300200D0A003D3D3D3D3D3D3D3D3D3D3D3DA3
:101733003D3D3D3D3D3D3D3D3D3D3D3D3D3D3D3DD6
:101743003D3D3D3D3D3D3D3D3D3D3D3D0D0A003D66
:101753003D3D3D3D3D3D3D3D3D3D3D3D66697273F6
:101763007420696E697420646174613D3D3D3D3D43
:101773003D3D3D3D3D3D200D0A0030782530345838
:1017830020203078253034582020307825303458C4
:101793002020307825303458200D0A00666C6173A0
:1017A30068206761703A2564202074696D65723A18
:0617B3002564200D0A0070
:10199A004500A800000000004400AD2020050141D8
:0319AA0000B10188
:062815009000B1E0FF227B
:06281B009000B1EFF02275
:1025EF00D310AF01C3C0D075FDF075FC0F8EFA8FFD
:1025FF00F975FDD275FC2D75FDE175FC1ED0D092DD
:02260F00AF22F8
:10255700D310AF01C3C0D08FFB75FDF075FC0FAE74
:1025670004AF058EFA8FF975FDB475FC4B75FDE167
:0825770075FC1ED0D092AF22CA
:0C218E007B017A0079A87D057F047E3C6F
:10219A00D310AF01C3C0D0900008EEF0A3EFF0A3B4
:0B21AA00EDF0A3EBF0A3EAF0A3E9F0D6
:1021B500E4A3F0C2AFF090000AE0FF90000EE0C388
:1021C5009F502C90000BE0FBA3E475F00112063A3A
:1021D500A9F0FA120577FF900008E475F0011206E0
:1021E5003AADF0FC12255790000EE004F080C7D2FE
:0121F500AF3A
:0521F600D0D092AF22E1
:040003008F828E83D7
:03000700E493FF80
:01000A0022D3
:10230B00900008EEF0A3EFF0A3EBF0A3EAF0A3E943
:10231B00F0AF051DEF6028900008E475F001120680
:10232B003A85F082F583E493FF90000AE0FBA3E487
:10233B0075F00112063AA9F0FAEF1205BD80D22210
:10244300E4FDFCED2400FFE4343CFE12000374AD14
:102453002DF582E43400F583E0B507030C80037F98
:1024630000220DEDB404DCECC3940440037F01228D
:022473007F00E8
:012475002244
:1011DB00E4900000F090FE927404F0122443EF7040
:1011EB000790000004F0807C7BFF7A1679B312081D
:1011FB00E27B017A0079A87D057F047E3C12230BEC
:10120B007BFF7A1679E09000A8E0FF900044E4F0B1
:10121B00A3EFF09000A9E0FF900046E4F0A3EFF0FD
:10122B001208E27BFF7A1779039000AAE0FF900087
:10123B0044E4F0A3EFF09000ABE0FF900046E4F045
:10124B00A3EFF01208E27BFF7A1779271208E290DE
:10125B0000A8E0D394095006A3E094054006900043
:10126B00007401F0900000E0640160030212F77B50
:10127B00FF7A1779521208E29000A87401F0A37458
:10128B0003F07F007E3C1225EF7B017A0079AD7D68
:10129B000412219A12218E7B017A0079AD7D047F95
:1012AB00007E3C12230B7BFF7A17797D9000ADE01B
:1012BB00FF900044E4F0A3EFF09000AEE0FF90004D
:1012CB0046E4F0A3EFF09000AFE0FF900048E4F0AD
:1012DB00A3EFF09000B0E0FF90004AE4F0A3EFF032
:1012EB001208E27BFF7A1779271208E27BFF7A1745
:1012FB00799F9000A8E0FF900044E4F0A3EFF090FA
:0F130B0000A9E0FF900046E4F0A3EFF00208E233
:1025A6007F047E3C1225EF7B017A0079AD7D047FA6
:1025B6000012219A12218E7B017A0079A87D057F6F
:0625C600047E3C02230B21
:0E279900EF1F70011E144E6004000080F3223A
:102731007DA07C01ED1D70011C144C70F7EF1F7022
:06274100011E144E70EAB7
:01274700226F
:03283000022799E3
:1026AE0090FF0974C1F090FF08F090FF07F090FFC3
:0B26BE0006F0D291D290D287D2862283
:08234B00900044EFF0A3EDF057
:10235300E4A3F0F0900045E0FFA3E0C39F5027C241
:1023630087900044E020E704C2868002D286D287A9
:102373007F057E00122830900044E025E0F09000B5
:0623830046E004F080CEEC
:012389002231
:08238A00900044EFF0A3EDF018
:10239200E4A3F0F0900045E0FFA3E0C39F5027C202
:1023A20087900044E020E004C2868002D286D28771
:1023B2007F057E00122830900044E0C313F09000A5
:0623C20046E004F080CEAD
:0123C80022F2
:1026C900900007EFF0C2917D047F8012234B9000A8
:0B26D90007E0FF7D0812234BD2912286
:10250200900042EFF0A3EDF0C2917D037FA0122371
:102512004B900042E025E025E0FF7D0612234B9020
:0C2522000043E0FF7D0412238AD29122C6
:09280C00D291D290D287D286222B
:0819AD004100C3004100C40029
:05001E007F060226C967
:052827007F040226C938
:10267200E4900000F0F0900000E0FFC39420500DC1
:0D2682007D0F122502900000E004F080E9B9
:01268F002228
:10269000E4900041F0F0900041E0FFC39420500D21
:0D26A000E4FD122502900041E004F080E905
:0126AD00220A
:10257F001226AE7F521226C97F301226C97F0A1249
:10258F0026C97F081226C97F021226C97F06122686
:07259F00C91226900226720A
:0E27A700E4FD7F1C122502E4FD7F1F022502C7
:101F1200900006EFF07F061226C9E4FD7F1F12250E
:101F220002E4FD7F1C122502900006E014601B14DF
:101F3200602314602B14603A1460492405705A7DA2
:101F42000A7F1B1225027D0E80317D0B7F1B12251D
:101F5200027D0A80267D0E7F1B1225027D0A801BD0
:101F62007D0A7F1B1225027D0A7F1C1225027D0B32
:101F720080227D0A7F1B1225027D0B7F1C12250207
:101F82007D0A80107D0A7F1B1225027D0A7F1C12AA
:0A1F920025027D0E7F1F122502229A
:10108A00900006EFF07F061226C9E4FD7F1D1225A7
:10109A0002E4FD7F1E1225029000C4E06401701F65
:1010AA009000C3E070117D067F1D1225027D0E7F20
:1010BA001E1225020211BDE49000C3F002119290A3
:1010CA000006E0B401047D068063900006E0B402E5
:1010DA000B7D0B7F1D1225027D0C8066900006E0B9
:1010EA00B4030B7D0F7F1D1225027D0480549000EE
:1010FA0006E0B4040B7D067F1D1225027D068042A0
:10110A00900006E0B4050B7D0D7F1D1225027D06B9
:10111A008030900006E0B4060B7D0D7F1D1225027B
:10112A007D0E801E900006E0B407077D077F1D0232
:10113A0011D7900006E0B4080E7D0F7F1D1225021C
:10114A007D0E7F1E0211D7900006E0B4090D7D0FB7
:10115A007F1D1225027D067F1E8072900006E0F434
:10116A0070329000C3E070177D017F1D1225027D49
:10117A000E7F1E1225029000C37401F00227B5E407
:10118A009000C3F01227EAE4FD7F1C122502E4FD59
:10119A007F1F8039900006E064FE70349000C3E03F
:1011AA0070187D097F1D1225027D0E7F1E122502F1
:1011BA001227B59000C37401F022E49000C3F01224
:1011CA0027EAE4FD7F1C122502E4FD7F1F12250297
:0111DA0022F2
:1019B5005E00730000000000000000000000000051
:1019C5000000000000000000000000000000000012
:0919D50000410091004100720084
:10252E0090FF0E74C1F090FF0F7461F090FFA074D5
:10253E0016F090FFA104F075CEFF75CDE675CC06B2
:09254E00759E02759810D2AC22B2
:0C27DE00C2AC8F993099FDC299D2AC2298
:032833000227DE9B
:0B24D50090000DEBF0A3EAF0A3E9F08B
:1024E000E4FEEEC39D501A90000DE0FBA3E0FAA3BA
:1024F000E0F98E82758300120590FF1228330E805A
:01250000E1F9
:0125010022B7
:102653009000087455F0A3EFF0A3EDF0A3740DF010
:0F266300A3740AF07B017A0079087D050224D563
:06282100AE071227DE22C3
:030023000222BEF8
:0D22BE00C0E0C083C082C0D075D000C00752
:1022CB00E59830E030AF995398FE900091E01460A0
:1022DB0019047021EFB4551D900073F0900071E05C
:1022EB0004F09000917401F0800B900072EFF0906D
:0522FB0000917402F0E7
:0B230000D007D0D0D082D083D0E032D4
:1019DE004100B9004100B2004200B300004100B521
:0A19EE00004200B600004100B801FD
:1025CC0090FF1D7461F090FF15F090FF16F090FFD6
:1025DC0002F090FF1774C1F090FF00F090FF11749F
:0325EC0051F02289
:101BBC00E4900002F0A2A533900001F09000B2E096
:101BCC0014602614604E147003021C5F240360031F
:101BDC00021C68900001E06003021C6D9000B3F0E1
:101BEC00A3F09000B204F08078900001E0706B904C
:101BFC0000B4E004F070069000B3E004F0C3900071
:101C0C00B4E094039000B3E09400403E9000B274B2
:101C1C0002F08036900001E0B40106A37404F08059
:101C2C003B9000B4E004F070069000B3E004F0C305
:101C3C009000B4E0943C9000B3E09400400C900011
:101C4C00027405F09000B27403F07F0A7E00122734
:101C5C0031800E900001E0B401078000E49000B2E6
:061C6C00F0900002E0FF11
:011C7200224F
:101C7300E4900002F0A2A633900001F09000B5E0DA
:101C830014602614604E147003021D1624036003AF
:101C9300021D1F900001E06003021D249000B6F0B6
:101CA300A3F09000B504F08078900001E0706B9091
:101CB30000B7E004F070069000B6E004F0C39000B3
:101CC300B7E094039000B6E09400403E9000B574F2
:101CD30002F08036900001E0B40106A37404F080A2
:101CE3003B9000B7E004F070069000B6E004F0C348
:101CF3009000B7E094F09000B6E09400400C9000A0
:101D0300027406F09000B57403F07F0A7E00122778
:101D130031800E900001E0B401078000E49000B52B
:061D2300F0900002E0FF59
:011D29002297
:101F9C00121BBCBF05037F01229000B8E060122029
:101FAC00A50F7F327E00122731E49000B8F07F0439
:101FBC0022121C73BF0621122815BF01149000AC0D
:101FCC00E0700E9000B904F09000ACF01225A680E1
:101FDC003FE49000B9F080389000B8E0602330A660
:101FEC000320B51D9000B9E070177F32FE12273127
:101FFC00E49000B8F020A6037F032220B5127F02E4
:10200C002230A60C30B50930A5069000B87401F04A
:02201C007F0043
:01201E00229F
:101D2A0065786368616E67655F686561745F76612F
:101D3A006C7565200D0A0070726F74656374200DEE
:101D4A000A0074696D65206F6666200D0A00746961
:101D5A006D655F746F5F302E3548202074696D653C
:101D6A005F7365633D2564200D0A0074696D655FC4
:101D7A00746F5F3148202074696D655F7365633DD8
:101D8A002564200D0A0074696D655F746F5F3248BF
:101D9A00202074696D655F7365633D2564200D0AB3
:101DAA000074696D655F746F5F3448202074696DD3
:101DBA00655F7365633D2564200D0A0074696D656E
:101DCA005F746F5F3848202074696D655F7365635F
:071DDA003D2564200D0A0005
:1019F80041009F0042009D00004200A100004100FC
:101A08009500410096004100A5004100A00041005A
:101A18009900420097000042009B0000420093009A
:101A28000041009A004200A300004200A6000041C5
:031A380000920019
:0E27B5009000927401F0E49000A6F0A3F022D0
:0C27EA00E4900092F09000A6F0A3F02212
:1024A600900092E0B40125D2A79000A6E475F00151
:1024B600120624FED3E5F0942CEE94014010C2A738
:0F24C600E4900092F09000A6F0A3F022C2A722AB
:0C27F60090009DEEF0A3EFF0E4A3F022B1
:10209F00EFB40A0050759020ACF82828730220CABC
:1020AF000220D40220D40220D40220DE0220E80233
:1020BF0020F20220FC022106022110900093E4F08E
:1020CF00A3741EF022900093E4F0A3743CF02290CE
:1020DF000093E4F0A3745AF022900093E4F0A374F9
:1020EF0078F022900093E4F0A37496F0229000937E
:1020FF00E4F0A374B4F022900093E4F0A374F0F032
:0C210F00229000937401F0A3742CF022C5
:102265009000A8E0B40A00504F902275F828287312
:102275000222930222950222970222990222A002AB
:1022850022A20222A90222B00222B00222B78004B1
:10229500800280009000A07401F02280009000A0D0
:1022A5007403F0229000A07404F0229000A074063C
:0922B500F0229000A07408F02250
:10240700900099E0B40234900097E475F001120649
:1024170024FEC3900094E095F0900093E09E501B3B
:102427007BFF7A1D792A1208E2E4900099F0900068
:0C24370097F0A3F090009AF012226522AA
:10211B00E490009FF09000A9E0FF700890009DF004
:10212B00A3F08052EFB4010C90009D7407F0A30450
:10213B00F0E48042EFB4020D90009D740EF0A37496
:10214B0010F0E48031EFB4030D90009D741CF0A3EC
:10215B007420F0E48020EFB4040D90009D7438F0EF
:10216B00A37440F0E4800FEFB4051790009D7470DA
:10217B00F0A37480F0E49000A1F0A3F090009BF02A
:03218B00A3F0229C
:10274800E490FE80F0F589758CF2758AFBC28DD213
:06275800A9D28CD2AF22D1
:03000B0002131AC3
:10131A00C0E0C0F0C083C082C0D075D000C000C099
:10132A0001C002C003C004C005C006C0071224A63B
:10133A00122815EF600302141390009FE004F0E0F6
:10134A00C39464500302143A1224079000A5E0B42F
:10135A00022D9000A2E004F070069000A1E004F0D3
:10136A00D39000A2E094209000A1E0941C40109039
:10137A0000A5E4F09000A1F0A3F090009504F0D34A
:10138A0090009EE0940090009DE094004048A3E005
:10139A0024FFF090009DE034FFF0900096E0640294
:1013AA0070609000A2E004F070069000A1E004F0E2
:1013BA00D39000A2E094209000A1E0941C404390B6
:1013CA0000957401F0A3E4F09000A1F0A3F07BFF74
:1013DA007A1D794180299000A9E060267F011228B0
:1013EA001B90009DE4F0A3F09000A1F0A3F0900000
:1013FA0096F09000A5F01226907BFF7A1D794C1288
:10140A0008E290009FE4F080279000B9E0B4012040
:10141A009000A3E475F001120624FED3E5F094E0EF
:10142A00EE942E400B9000B9E4F09000A3F0A3F0E4
:10143A00D007D006D005D004D003D002D001D00006
:0B144A00D0D0D082D083D0F0D0E032B0
:1021FB0090009BE475F001120624FEE5F08EF012C0
:10220B00081D22250708222D0E1022351C20223DE9
:10221B00384022457080000022647BFF7A1D79587C
:10222B00801E7BFF7A1D797580167BFF7A1D799056
:10223B00800E7BFF7A1D79AB80067BFF7A1D79C6FA
:10224B0090009DE0FFA3E0900044CFF0A3EFF012CD
:0A225B0008E2E490009BF0A3F022DB
:041A3B004100C500A1
:102719007E009000C5E0FD7C0012084AE47B64FA63
:07272900F9F81206FA8FDF38
:012730002286
:1026110090FF0074C1F0E490FF9CF0AC06AD077E22
:102621007A7F121205CFEF149000C5F0F5DE75DD4B
:022631009722EE
:1026E40090FF017401F090FF03F075B4807F147EB5
:0B26F4000012279990FE9B7449F02211
:10275E00E4FFFE75B50143B440E5B430E5FB53B478
:05276E00DFAEB7AFB6BD
:012773002243
:10277400E4FFFE75B50343B440E5B430E5FB53B460
:05278400DFAEB7AFB6A7
:01278900222D
:0B158700900008EBF0A3EAF0A3E9F0ED
:1015920090000E1207A600000000E4900012F0F086
:1015A20090000EE0F8A3E0F9A3E0FAA3E0FB122713
:1015B2005EE4FCFDEB2FFFEA3EFEED39FDEC38FC6C
:1015C20090000E12079A900012E004F0E0C3940516
:1015D20040CE90000EE0FCA3E0FDA3E0FEA3E0FFFE
:1015E200E47B05FAF9F81206FA90000E12079AE463
:1015F2007F887E13FDFC90000EE0F8A3E0F9A3E0E3
:10160200FAA3E0FB12066FE4FB7A10F9F81206FA6D
:10161200900008E0FBA3E0FAA3E0F9EE8FF01206D7
:101622005090000E1207A600000000E4900012F095
:1016320090000EE0F8A3E0F9A3E0FAA3E0FB122782
:1016420074E4FCFDEB2FFFEA3EFEED39FDEC38FCC5
:1016520090000E12079A900012E004F0E0C3940585
:1016620040CE90000EE0FCA3E0FDA3E0FEA3E0FF6D
:10167200E47B05FAF9F81206FA90000E12079AE4D2
:101682007F887E13FDFC90000EE0F8A3E0F9A3E052
:10169200FAA3E0FB12066FE4FB7A10F9F81206FADD
:1016A20090000BE0FBA3E0FAA3E0F9EE8FF0020654
:0116B20050E7
:0D27D10075BD17EF75F02BA490FEA0F0224F
:04282C0043BD102276
:1024760052203D20256620200D0A002050524F4450
:10248600554354455F4552524F520D0A0020454E62
:102496005445525F544553545F4D4F44450D0A0011
:091A3F004100C0004200C100009A
:0F278A0090FF107461F090FF1274C1F0D2A22280
:0D27C300E4FF12278A20A0030F80027F028E
:0127D00022E6
:1017B900E4900000F0A3F0A3F0A3F0A31207A600A1
:1017C90000000090000B7401F0A37400F0A37402F0
:1017D900F07B017A007900121587900000E0FCA3E4
:1017E900E0FDE4120342E4FBFA797A784412022715
:1017F900C004C005C006C007900002E0FCA3E0FDDC
:10180900E4120342E4FBFA797A7844120227D003FE
:10181900D002D001D000120029C004C005C006C002
:1018290007900000E0FCA3E0FDE4120342E4FBFAA8
:10183900797A7844120227E4FBFA79FF7843120295
:1018490027A804A905AA06AB07D007D006D005D05A
:101859000412022790000412079A7BFF7A247976F2
:10186900900004E0FCA3E0FDA3E0FEA3E0FF9000EC
:101879004412079A1208E2E4FFFE7D487C44900076
:1018890004E0F8A3E0F9A3E0FAA3E0FB1202C450D4
:101899001FE4FFFE7D2F7C44900004E0F8A3E0F9EB
:1018A900A3E0FAA3E0FB1202C4600540037F032210
:0218B9007F00AE
:0118BB00220A
:10201F009000C0E014603624FE607214606A2404DD
:10202F00706D20A51120A50E20A50B9000C0740483
:10203F00F0E4A3F0A3F09000C1E475F001120624C0
:10204F00FEC3E5F09410EE9427404480261217B992
:10205F00BF030B9000C07404F0E4A3F0A3F0900052
:10206F00C1E475F001120624FEC3E5F09405EE9469
:10207F0000401C7BFF7A2479811208E29000C07423
:10208F0003F0E4A3F0A3F022D2A7C2A222D2A2228D
:1026FF001227C3BF01137BFF7A2479931208E2D20A
:0A270F00A712201F12282C80F822C8
:100026000203B0E86480F8E933E83360110460F055
:10003600ED33EC337009E8FCE9FDEAFEEBFF220440
:1000460060DED3EB9FEA9EE99DE8C2E78CF0C2F73B
:1000560095F0400CE8CCF8E9CDF9EACEFAEBCFFB07
:1000660012037B85D0F05804700320D5B3E80470E2
:10007600075002B2D50203BA92D5EC0460F7E4CC7D
:10008600C0E0C398F8603B94186008400DD0E0FBD0
:10009600020392E4FBFAC9FC8028E830E406E4C9CE
:1000A600FBE4CAFCE830E305E4C9CACBFCE8540724
:1000B6006010F8C3E913F9EA13FAEB13FBEC13FC2F
:1000C600D8F130F52FC3E49CFCEF9BFFEE9AFEEDD2
:1000D60099FDD0E0FBEF4E4D4C701222DB0302037C
:1000E600B7EC2CFCEF33FFEE33FEED33FDED30E7DE
:1000F600EB020392EF2BFFEE3AFEED39FDD0E0FB6B
:1001060050130BBB00030203BAED13FDEE13FEEF13
:0801160013FFEC13FC0203923D
:10011E00EC4D6011E8497017ED33EC3304600DE4DB
:10012E00FCFFFEFD22E933E8330470F80203B0123F
:10013E00037B58046009E4CC248150062850090240
:10014E0003BA2840030203B7C0E0EB4A7044B980FB
:10015E0006D0E0FB0203A6EF4E701CBD8008EBFF3D
:10016E00EAFEE9FD80EBE98DF0A4FEE5F002020760
:10017E00E9CDF9EAFEEBFFEF89F0A4FCE5F0CE89BC
:10018E00F0A42EFFE435F0CD89F0A42DFEE435F079
:10019E008067EF4E7005BD80D780C3EF8BF0A4ACA7
:1001AE00F0EE8BF0A42CFCE435F0F8EF8AF0A42CE2
:1001BE00E5F038FCE433CB8DF0A42CFCE5F03BF8F5
:1001CE00EE8AF0A42CFCE5F038F8E433CF89F0A4E5
:1001DE002CFCE5F038CF3400CE89F0A42FFFE5F0EB
:1001EE003EFEE433C98DF0A42EFEE5F039CD8AF043
:1001FE00A42FFFE5F03EFEE43DFD33D0E0FB5007BB
:10020E000BBB000F0203BAEC2CFCEF33FFEE33FEF8
:06021E00ED33FD02039226
:100224000203BAEC5D046005E8590470030203B0EC
:1002340012037B580460F6EC4860F2EC7004FDFE97
:10024400FF22C860DB2481C85009C39860025006AD
:100254000203B79850CAF582E9294B4A7005AB826C
:100264000203A675F0007C1A7880C3EF9BEE9AED2A
:1002740099400DC3EF9BFFEE9AFEED99FDE842F025
:10028400DC23ACF0D0E0FFD0E0FED0E0FDAB822078
:10029400E7101BEB60BAEC2CFCEF33FFEE33FEED02
:1002A40033FD020392E803F830E705C0F075F0006F
:1002B400EF2FFFEE33FEED33FD40B830E7C280AAE6
:1002C40074F8CC6480CCC86480C8F58204604FC3E1
:1002D400EB9FF5F0EA9E42F0E99D42F0E89C45F080
:1002E400603C501DE5825FFFE582D313CB5BCBF40A
:1002F4002B5582FB50280ABA002409B90020088033
:100304001DE5825BFBE582D313CF5FCFF4C3132FCC
:100314005582FF50090EBE00050DBD00010CC3EB54
:100324009FF5F0EA9E42F0E99D42F0E89C45F060BA
:0903340007CC4820E701B3EC22DC
:10033D0075F020800E75F010800575F0087D007E3B
:10034D00007F003392D530D50312078CEC3340106B
:10035D00EF33FFEE33FEED33FDEC33FCD5F0ED2244
:0E036D00E5F0247EA2D513CC92E7CDCEFF2280
:10087700E50D2444F582E43400F583E0050D22906C
:100887000041301003900044E475F0011207D702CD
:1008970005772009E97F2ED2098018EF540F24909D
:1008A700D43440D4FF300D0BEF24BFB41A005003EB
:1008B7002461FFE50E6002150E0511E511700205B2
:1008C7001030100E900041E475F0011207D7EF02C7
:1008D70005BD0228217403D2108003E4C210F50D70
:1008E7009000411207EEE4F50EF510F511E50E60E4
:1008F700077F201208BA80F5750FFFC20AC209C226
:100907000BC20CC20EC20FC211120886FF700D3047
:1009170010057F001208CBAF11AE1022B4255FC2BD
:10092700D5C20D120886FF24D0B40A00501A75F0FC
:100937000A780E30D50508B6FF0106C6A426F620AC
:10094700D5047002D20C80D924CFB41A00EF50041A
:10095700C2E5D20D020BBDD20A80C6D20980C0D231
:100967000B80BCD2D580BAD20E80B47F201208BAD1
:10097700200B077401B50E0040F1120877FF12082B
:10098700BA0208F4D211D20F8095120877FB120829
:1009970077FA120877F94A4B700679BB7A0C7BFF16
:1009A700200B2EE50E602A7E008E827583001205CD
:1009B7009060060EEE650F70F0C2D5EBC0E0EAC09E
:1009C700E0E9C0E0EE120C1ED0E0F9D0E0FAD0E08A
:1009D700FB120577FF60AAEBC0E0EAC0E0E9C0E0E0
:1009E7001208BAD0E02401F9D0E03400FAD0E0FBD5
:1009F700E50F0460DCD50FD98087D20B80A2120CDB
:100A07000060F7E50F7001041203C5A90F600DE53B
:100A17000F600914F50F120CA8EF60F3EA30E70234
:100A2700F404C3995079EAF4250F0430E701E4048C
:100A3700F50F800D120C0060C1EA050F250F120398
:100A4700C5EA900070F030E701E4250F04D50F04E4
:100A5700200E0114120C1EE4C0E0120CA8900070C6
:100A6700E0601320E70714F01208A2802204F0D0F8
:100A7700E014C0E07F001208A2E50F600712089992
:100A8700150F800B300E03120899D0E00208F4D03E
:100A9700E00480C4120C00609EE50F041203C590A9
:100AA7000070EAF0E50F200E026001042404120C26
:010AB7001E20
:100AB80074FF04C0E0120CA81208A2E50F200E0271
:100AC8006003120899D0E0B50FE87F451208AC9092
:100AD8000070E07F2B30E7047F2DF404C0E012089B
:100AE800BAD0E075F00A84C0F01208A3D0E012086A
:100AF800A30208F4791080027908C20FC211800895
:100B0800D2D5790A8004790AC2D5E50F047002F5B6
:100B18000FE4FAFDFEFF120877FC7B08200A131287
:100B28000877FD7B1030090A120877FE120877FF54
:100B38007B20EC3382D592D55013C3E43009069F4D
:100B4800FFE49EFEE4200A039DFDE49CFCE4CBF850
:100B5800C20AEC700CCFCECDCCE824F8F870F38044
:100B680017C3EF33FFEE33FEED33FDEC33FCEB330D
:100B7800FB994002FB0FD8E9EB300A05F8D0E0C436
:100B880048B20AC0E00AEC4D4E4F78207B0070C294
:100B9800EAB50F0040BCC0E0120C20D0F0D0E02035
:100BA8000A04C4C0E0C4B20AC0F01208A3D0F0D549
:100BB800F0EB0208F41207F70991530AFC5809628E
:100BC8004C095E420B004F0B08440B084909774358
:100BD8000B0E550A3B460A9B450A05470CDB500994
:100BE800662D096A2E098D2B096E23098B200CC4EA
:100BF8002A09264800000985E50FB4FF03750F068A
:100C0800120877FC120877FD120877FE120877FFA2
:100C1800900069020402790AA2D5200C14300E094A
:100C2800B910020404B9080104A2D5200F0250012A
:100C380004200B68920BB50E005034C0E07F2030C2
:100C48000C197F30A20B720F720E500F120C77C264
:100C58000BC20FC20EC2117F30800F300E03E9C0E5
:100C6800E01208BA300E03D0E0F9D0E0B50ECC306F
:100C78000E177F30B9100C1208BA7F58300D077F55
:100C8800788003B908031208BA300B057F2D0208D3
:100C9800BA7F202011F87F2B200FF322920B80CFF0
:100CA8007F00B40700500B2469F582E43400F58313
:100CB800E0FF22286E756C6C2900D20A1208773082
:100CC8000AF8C20A780E30D50108F60209262D5016
:100CD8004349581208772403B405004001E4900CF6
:100CE800D6931208AB743A1208ABD20C750E0402F4
:020CF8000AFCF4
:10037B00E9D2E7C933E833F892D5EDD2E7CD33ECC8
:07038B0033FC5002B2D52241
:10039200EC30E7100FBF000C0EBE00080DBD0004CC
:1003A2000BEB6014A2D5EB13FCED92E7FD2274FF78
:1003B200FCFDFEFF22E480F8A2D574FF13FC7D80D1
:0303C200E480EFE5
:1003C500F920E73624F950037907E4F42402FBE524
:1003D50082158270021583DBF6E024FB501BE96071
:1003E50014E4F0E582158270021583E004F0B40A86
:0D03F50008E4F0D9EE7401F00A22C2D5220E
:10040200ED33EC3392D5FA602AB4FF33EDC2E77BC9
:10041200FF60067A047927E4227A04793020D50431
:100422007A04792B224E614E002B494E46002D490B
:100432004E4600E47A08F0A3DAFC7B00740722C07F
:1004420083C082ECC0E0EDC0E0EEC0E0EFC0E0EAC5
:1004520075F010A4CAABF075F04DA42BFBE435F097
:10046200FCEA2410FAEB34C5FBEC34D9FCEDC2E70C
:10047200FF75F056A4F42411C5F0F434C58FF0A42E
:100482002AE5F03BE43CF020E714120537D0E0FF08
:10049200D0E0FED0E0FDD0E0FC1202278014F4048C
:1004A200120537D0E0FFD0E0FED0E0FDD0E0FC1234
:1004B200011ED082D083E0FAEDD2E7CD33EC3324B3
:1004C20082FBE4C3CF33CFCE33CECD33CD33DBF398
:1004D2007B0775F00A846004F0A31B0AE5F0F0A321
:1004E2008FF0740AA4FFACF08EF0740AA42CFEAC58
:1004F200F050010C8DF0740AA42CFDE435F0F0A349
:05050200DBDE7407229E
:100507003F8000004120000042C80000447A0000FC
:10051700461C400047C35000497424004B1896807E
:100527004CBEBC205A0E1BCA6753C21C749DC5AE75
:10053700FB60065407601C2323120565EB543860E3
:100547000912055112056012011EECF8EDF9EEFAD9
:10055700EFCB22EB12056080F1543803241C900581
:1005670007FE93FC0EEE93FD0EEE930ECE93FF2245
:101E9200021B04E493A3F8E493A34003F68001F247
:101EA20008DFF48029E493A3F85407240CC8C33351
:101EB200C4540F4420C8834004F456800146F6DF20
:101EC200E4800B0102040810204080901985E47E12
:101ED200019360BCA3FF543F30E509541FFEE49315
:101EE200A360010ECF54C025E060A840B8E493A3DC
:101EF200FAE493A3F8E493A3C8C582C8CAC583CA07
:101F0200F0A3C8C582C8CAC583CADFE9DEE780BEBE
:011A4800009D
:10057700BB010689828A83E0225002E722BBFE0282
:09058700E32289828A83E49322B5
:10059000BB010CE58229F582E5833AF583E0225020
:1005A00006E92582F8E622BBFE06E92582F8E2226A
:0D05B000E58229F582E5833AF583E4932284
:1005BD00BB010689828A83F0225002F722BBFE011D
:0205CD00F32217
:1005CF00BC000BBE0029EF8DF084FFADF022E4CC10
:1005DF00F875F008EF2FFFEE33FEEC33FCEE9DECD9
:1005EF00984005FCEE9DFE0FD5F0E9E4CEFD22ED1F
:1005FF00F8F5F0EE8420D21CFEADF075F008EF2F69
:10060F00FFED33FD4007985006D5F0F222C398FD59
:05061F000FD5F0EA22F6
:10062400C5F0F8A3E028F0C5F0F8E5821582700261
:060634001583E038F022FE
:10063A00A3F8E0C5F025F0F0E58215827002158373
:06064A00E0C838F0E822D0
:10065000BB010A89828A83F0E5F0A3F0225006F7F5
:0F06600009A7F01922BBFE06F3E5F009F31922F2
:10066F00E88FF0A4CC8BF0A42CFCE98EF0A42CFC2A
:10067F008AF0EDA42CFCEA8EF0A4CDA8F08BF0A4A8
:10068F002DCC3825F0FDE98FF0A42CCD35F0FCEB07
:10069F008EF0A4FEA9F0EB8FF0A4CFC5F02ECD39CC
:0F06AF00FEE43CFCEAA42DCE35F0FDE43CFC2239
:1006BE0075F008758200EF2FFFEE33FECD33CDCCF3
:1006CE0033CCC58233C5829BED9AEC99E582984076
:1006DE000CF582EE9BFEED9AFDEC99FC0FD5F0D653
:1006EE00E4CEFBE4CDFAE4CCF9A88222B800C1B97D
:1006FE000059BA002DEC8BF084CFCECDFCE5F0CBBB
:10070E00F97818EF2FFFEE33FEED33FDEC33FCEBF3
:10071E0033FB10D703994004EB99FB0FD8E5E4F9AE
:10072E00FA227818EF2FFFEE33FEED33FDEC33FC9B
:10073E00C933C910D7059BE99A4007EC9BFCE99A8F
:10074E00F90FD8E0E4C9FAE4CCFB2275F010EF2FD4
:10075E00FFEE33FEED33FDCC33CCC833C810D707D4
:10076E009BEC9AE899400AED9BFDEC9AFCE899F80F
:0E077E000FD5F0DAE4CDFBE4CCFAE4C8F922A2
:0E078C00C3E49FFFE49EFEE49DFDE49CFC227E
:0C079A00ECF0A3EDF0A3EEF0A3EFF022D2
:1007A600A8828583F0D083D0821207BD1207BD12BE
:1007B60007BD1207BDE473E493A3C583C5F0C583E3
:1007C600C8C582C8F0A3C583C5F0C583C8C582C89D
:0107D6002200
:1007D700F8E0FBA3A3E0F925F0F0E58215827002AB
:0707E7001583E0FA38F0224F
:0907EE00EBF0A3EAF0A3E9F0220C
:1007F700D083D082F8E4937012740193700DA3A391
:1008070093F8740193F5828883E4737402936860A4
:06081700EFA3A3A380DFA4
:10081D00D083D082F8E4937012740193700DA3A36A
:10082D0093F8740193F5828883E473740293B5F0A1
:0D083D00067403936860E9A3A3A3A380D809
:10084A00EC8EF0A4CCC5F0CCCDF8EFA4CEC5F02D3B
:10085A00FDE43CFCE8A42EC8C5F03DFDE43CFCEFF9
:0D086A00A4FFE5F028FEE43DFDE43CFC2287
:00000001FF
