:03000000021C756A
:0C1C7500787FE4F6D8FD758122021CBCCB
:101BD300206B65795F7363616E0D0A00204B455975
:101BE3005F325F505245530D0A000D0A3D3D3D3DA6
:101BF3003D3D3D3D3D3D3D3D3D3D3D3D3D3D3D3D12
:101C03003D3D3D3D3D3D3D3D3D3D3D3D3D3D0D0A64
:101C130000736B753A4B2564200D0A00736F66746D
:101C23002076657273696F6E3A2573200D0A003151
:101C33002E30312E303000676170202564200D0A6C
:101C43000074696D6572202564200D0A003D3D3DD9
:101C53003D3D3D3D3D3D3D3D3D3D3D3D3D3D3D3DB1
:101C63003D3D3D3D3D3D3D3D3D3D3D3D3D3D3D0DD1
:021C73000A0065
:101A83004200A900004100AB004100A8004100A7AB
:011A93000052
:10248200758E5390FE917401F090FF027410F02249
:10103900E4900000F09000A8E0700A121E159000DC
:1010490000EFF08005E4900000F0900000E06401FA
:1010590070639000A6E0705D7BFF7A1B79D312085C
:10106900E21224D0EF700D7F011224D6122386E4F8
:10107900FF022411E4FF1224D6121D8B900093E085
:10108900FFD394034016A3E0FE70059000928009F7
:10109900EED3940340069000857402F09000AB747F
:1010A90001F0121E93900093E0FF1215CC9000946A
:1010B900E0FF021D011224D0EF60030211679000C6
:1010C90000E0640270507BFF7A1B79DF1208E2901E
:1010D9000093E0C394095005E004F0800690009362
:1010E9007401F0900093E0FFD394034016A3E0FE4F
:1010F90070059000928009EED39403400690008514
:101109007402F09000AB7401F0121E93900093E00A
:10111900FF1215CC8045900000E0640370409000F8
:1011290094E0C394055005E004F08005E490009430
:10113900F0900093E0D394034016A3E0FF7005906C
:1011490000928009EFD3940340069000857402F061
:0E115900900094E0FF121D01121D8B1222BFA8
:011167002265
:0817A700900006EEF0A3EFF044
:1017AF00900081E06402706A9000A6E064017062AC
:1017BF00900006A3E0FFE4900081F090009704F002
:1017CF00900062E0FED3940F4048EED39F400CE0B0
:1017DF009F900095F0A37401F08016900062E0FED8
:1017EF00C3EF9EFF900095F01224BB9000967402F9
:1017FF00F0900095E0FFC394024006EFD39414409D
:10180F0007E4900095F0A3F01222BF7D027F021231
:10181F002349900096E0FDB40114900095E0FF7EFF
:10182F0000900006EE8FF0120624AFF0FE22EDB40A
:10183F000218900095E0FFC3900007E09FFF900013
:10184F0006E09400FEF0A3EFF022900006E0FEA366
:02185F00E0FFA8
:011861002264
:100CFA00900008ECF0A3EDF0900006EEF0FAA3EFF6
:020D0A00F0FBFC
:100D0C00E490000AF0A37432F0A3740AF0A3120763
:100D1C00A600000000C3EB9432EA94004016900049
:100D2C0008E0FEA3E0FF900006E0FCA3E0FDD39FEB
:100D3C00EC9E4003020DD3E4120342E4FBFA797AF1
:100D4C007844120227C004C005C006C007900008F2
:100D5C00E0FCA3E0FDE4120342E4FBFA797A784468
:100D6C00120227D003D002D001D000120029C004F7
:100D7C00C005C006C007900006E0FCA3E0FDE4122D
:100D8C000342E4FBFA797A7844120227E4FBFA79FD
:100D9C00FF7843120227A804A905AA06AB07D007BF
:100DAC00D006D005D00412022790000D12079AE449
:100DBC00FFFEFDFC90000DE0F8A3E0F9A3E0FAA320
:100DCC00E0FB1202C450057E007FFF2290000DE074
:100DDC00FCA3E0FDA3E0FEA3E0FFE4FBFAF97841FD
:100DEC0012022790000D12079AE4FFFE7D927C42BE
:100DFC0090000DE0F8A3E0F9A3E0FAA3E0FB1202E7
:100E0C00C45004E4FEFF2290000DE0FCA3E0FDA31F
:100E1C00E0FEA3E0FF7BF37A1F79B678421202273B
:100E2C0090000D12079A7FF37E1F7DB67C429000D6
:100E3C000DE0F8A3E0F9A3E0FAA3E0FB12011E7B9E
:100E4C00F37A1F79B678421202C4504C90000DE030
:100E5C00FCA3E0FDA3E0FEA3E0FF7B497A9D798033
:100E6C00783F12022790000D12079A90000AE004B6
:100E7C00F0E4FFFE7D807C3F90000DE0F8A3E0F9EC
:100E8C00A3E0FAA3E0FB1202C4600250BF90000A78
:100E9C00E0FFA3E02FF0804E90000DE0FCA3E0FDFE
:100EAC00A3E0FEA3E0FF7B6D7AC5797E783F12024A
:100EBC002790000D12079A90000AE004F0E4FFFE60
:100ECC007D807C3F90000DE0F8A3E0F9A3E0FAA34D
:100EDC00E0FB1202C440C190000BE0FF90000AE05E
:0D0EEC00FEC3EF9EA3F090000BE0FF7E0020
:010EF90022D6
:10129400E4900000F0A3F0A3F0A3F0A3F0A3F09077
:1012A40000AAE004F070069000A9E004F0D39000D6
:1012B400AAE094109000A9E0942750030213B6E426
:1012C400F0A3F07B0190000904F0A37400F0A37470
:1012D40004F07A007902121168900002E0FEA3E0A3
:1012E400FFA3E0FCA3E0FD120CFA900000EEF0A3D3
:1012F400EFF01217A7900000EEF0A3EFF0D39000E8
:1013040003E09432900002E094005003021395121B
:1013140024D0EF704D9000ABE0B40129E4F0D390F9
:101324000001E09432900000E09400900088740280
:101334004009F090008F740CF0800AF0900089143A
:10134400F090008FF0900094E0FF121D0190009344
:10135400E0FF1215CC900000E0FEA3E0FF1219D0CC
:1013640080299000A6E0B40118E4FF12241112238E
:1013740086900093E0FF1215CC9000AD7401F080CC
:101384000AE4FF1224117F041223DBE49000A8F086
:1013940022E49000A6F09000ADF0122386E4FF1240
:1013A40024119000A774FFF0FF1215CC9000A874CC
:0213B40001F046
:0113B6002214
:101B31001224821222471223F6D2AF12000E12246F
:101B410040120EFA7FC87E001223071222987F20CE
:101B51007E031224297F021224AEE4FF1224117B9A
:101B6100FF7A1B79ED1208E27BFF7A1C7914900051
:101B7100347423F0A3743BF01208E290003474FF34
:101B8100F0A3741CF0A37432F07BFF7A1C791F124E
:101B910008E27BFF7A1C793A900093E0FF900034D1
:101BA100E4F0A3EFF01208E27BFF7A1C7944900085
:101BB10094E0FF900034E4F0A3EFF01208E27BFF21
:101BC1007A1C79501208E21210391212941224EC84
:021BD10080F59D
:10214100900008EEF0A3EFF0A3ECF0A3EDF0D39F25
:10215100EC9E4004E4FF802290008FE0FFC39000DA
:1021610009E09FFF900008E09400FEC390000BE09F
:0E2171009F90000AE09E50057F0A1224112262
:1019D000900006EEF0A3EFF0900089E0B40103025E
:1019E0001A73900093E0B40A004003021A8290191F
:1019F000F5F8282873021A13021A1F021A2B021A6A
:101A000037021A43021A4F021A5B021A67021A6758
:101A1000021A73900006E0FCA3E0FD7F1E805E903A
:101A20000006E0FCA3E0FD7F2B8052900006E0FC66
:101A3000A3E0FD7F328046900006E0FCA3E0FD7F3E
:101A400036803A900006E0FCA3E0FD7F3B802E90BC
:101A50000006E0FCA3E0FD7F418022900006E0FC50
:101A6000A3E0FD7F468016900006E0FCA3E0FD7F2A
:101A70004B800A900006E0FCA3E0FD7F507E001240
:031A8000214122DF
:10232900900084E0B40118900093E0D39403400F27
:102339007403F0FF1215CC1222BFE4900084F0223E
:1014C6000D0A3D3D3D3D3D3D3D3D3D3D3D3D3D3DA9
:1014D6003D3D3D3D3D3D3D3D3D3D3D3D3D3D3D3D36
:1014E6003D3D3D3D3D3D3D3D3D3D0D0A00706F7727
:1014F6006572206F6E20666C617368206761703A52
:101506002564202074696D65723A2564200D0A00F1
:10151600706F776572206F6E20666C6173682076D7
:10152600616C75653A256420207369676E3A256497
:10153600200D0A003D3D3D3D3D3D3D3D3D3D3D3D92
:101546003D3D3D3D3D3D3D3D3D3D3D3D3D3D3D3DC5
:101556003D3D3D3D3D3D3D3D3D3D3D3D0D0A003D55
:101566003D3D3D3D3D3D3D3D3D3D3D3D66697273E5
:101576007420696E697420646174613D3D3D3D3D32
:101586003D3D3D3D3D3D200D0A0030782530345827
:1015960020203078253034582020307825303458B3
:1015A6002020307825303458200D0A00666C61738F
:1015B60068206761703A2564202074696D65723A07
:0615C6002564200D0A005F
:101A94004500930000000000440098202005014107
:031AA400009C01A2
:0624D00090009CE0FF22D9
:0624D60090009CEFF022D3
:1022E500D310AF01C3C0D075FDF075FC0F8EFA8F0A
:1022F500F975FDD275FC2D75FDE175FC1ED0D092EA
:02230500AF2205
:10227000D310AF01C3C0D08FFB75FDF075FC0FAE5E
:1022800004AF058EFA8FF975FDB475FC4B75FDE151
:0822900075FC1ED0D092AF22B4
:0C1F08007B017A0079937D057F047E3C0C
:101F1400D310AF01C3C0D0900008EEF0A3EFF0A33C
:0B1F2400EDF0A3EBF0A3EAF0A3E9F05E
:101F2F00E4A3F0C2AFF090000AE0FF90000EE0C310
:101F3F009F502C90000BE0FBA3E475F00112063AC2
:101F4F00A9F0FA120577FF900008E475F001120668
:101F5F003AADF0FC12227090000EE004F080C7D270
:011F6F00AFC2
:051F7000D0D092AF2269
:040003008F828E83D7
:03000700E493FF80
:01000A0022D3
:10208300900008EEF0A3EFF0A3EBF0A3EAF0A3E9CE
:10209300F0AF051DEF6028900008E475F00112060B
:1020A3003A85F082F583E493FF90000AE0FBA3E412
:1020B30075F00112063AA9F0FAEF1205BD80D2229B
:1021BB00E4FDFCED2400FFE4343CFE1200037498B4
:1021CB002DF582E43400F583E0B507030C80037F23
:1021DB0000220DEDB404DCECC3940440037F012218
:0221EB007F0073
:0121ED0022CF
:100EFA00E4900000F090FE927404F01221BBEF70AF
:100F0A000790000004F0807C7BFF7A1479C61208EF
:100F1A00E27B017A0079937D057F047E3C1220836F
:100F2A007BFF7A1479F3900093E0FF900034E4F0A9
:100F3A00A3EFF0900094E0FF900036E4F0A3EFF006
:100F4A001208E27BFF7A157916900095E0FF90006F
:100F5A0034E4F0A3EFF0900096E0FF900036E4F05E
:100F6A00A3EFF01208E27BFF7A15793A1208E290B1
:100F7A000093E0D394095006A3E09405400690003C
:100F8A00007401F0900000E0640160030210167B17
:100F9A00FF7A1579651208E29000937401F0A37440
:100FAA0003F07F007E3C1222E57B017A0079987D6E
:100FBA0004121F14121F087B017A0079987D047F9E
:100FCA00007E3C1220837BFF7A157990900098E08E
:100FDA00FF900034E4F0A3EFF0900099E0FF900056
:100FEA0036E4F0A3EFF090009AE0FF900038E4F0C6
:100FFA00A3EFF090009BE0FF90003AE4F0A3EFF03B
:10100A001208E27BFF7A15793A1208E27BFF7A1519
:10101A0079B2900093E0FF900034E4F0A3EFF090EF
:0F102A000094E0FF900036E4F0A3EFF00208E23C
:1022BF007F047E3C1222E57B017A0079987D047FB2
:1022CF0000121F14121F087B017A0079937D057F7E
:0622DF00047E3C02208396
:0E249200EF1F70011E144E6004000080F32244
:102429007DA07C01ED1D70011C144C70F7EF1F702D
:06243900011E144E70EAC2
:01243F00227A
:0324F00002249231
:1023C00090FF0974C1F090FF08F090FF07F090FFB4
:0B23D00006F0D291D290D287D2862274
:0820C300900034EFF0A3EDF0F2
:1020CB00E4A3F0F0900035E0FFA3E0C39F5027C2DC
:1020DB0087900034E020E704C2868002D286D28744
:1020EB007F057E001224F0900034E025E0F0900094
:0620FB0036E004F080CE87
:0121010022BB
:08210200900034EFF0A3EDF0B2
:10210A00E4A3F0F0900035E0FFA3E0C39F5027C29C
:10211A0087900034E020E004C2868002D286D2870B
:10212A007F057E001224F0900034E0C313F0900083
:06213A0036E004F080CE47
:01214000227C
:1023DB00900007EFF0C2917D047F801220C3900024
:0B23EB0007E0FF7D081220C3D2912202
:10221B00900032EFF0A3EDF0C2917D037FA012206E
:10222B00C3900032E025E025E0FF7D061220C3902D
:0C223B000033E0FF7D04122102D291224A
:0924C700D291D290D287D2862274
:081AA7004100AC004100AD005C
:0524E2007F060223DB70
:0524E7007F040223DB6D
:10236800E4900000F0F0900000E0FFC39420500DCE
:0D2378007D0F12221B900000E004F080E9B0
:012385002235
:10238600E4900031F0F0900031E0FFC39420500D4E
:0D239600E4FD12221B900031E004F080E90C
:0123A3002217
:102298001223C07F521223DB7F301223DB7F0A1206
:1022A80023DB7F081223DB7F021223DB7F06122346
:0722B800DB122386022368FC
:0E24A000E4FD7F1C12221BE4FD7F1F02221BA5
:101D0100900006EFF07F061223DBE4FD7F1F122215
:101D11001BE4FD7F1C12221B900006E014601B14C3
:101D2100602314602B14603A1460492405705A7DB5
:101D31000A7F1B12221B7D0E80317D0B7F1B12221D
:101D41001B7D0A80267D0E7F1B12221B7D0A801BB4
:101D51007D0A7F1B12221B7D0A7F1C12221B7D0B19
:101D610080227D0A7F1B12221B7D0B7F1C12221BEE
:101D71007D0A80107D0A7F1B12221B7D0A7F1C12A7
:0A1D8100221B7D0E7F1F12221B2281
:1015CC00900006EFF07F061223DBE4FD7F1D122254
:1015DC001BE4FD7F1E12221B9000ADE06401700E17
:1015EC009000ACE070057D060216A30216B69000C2
:1015FC0006E0B401047D068063900006E0B4020BA3
:10160C007D0B7F1D12221B7D0C8065900006E0B4C3
:10161C00030B7D0F7F1D12221B7D0480539000064F
:10162C00E0B4040B7D067F1D12221B7D06804190C9
:10163C000006E0B4050B7D0D7F1D12221B7D06807C
:10164C002F900006E0B4060B7D0D7F1D12221B7D32
:10165C000E801D900006E0B407067D077F1D8059A3
:10166C00900006E0B4080D7D0F7F1D12221B7D0E2D
:10167C007F1E8045900006E0B4090D7D0F7F1D1282
:10168C00221B7D067F1E8031900006E0F4702D90A9
:10169C0000ACE070157D017F1D12221B7D0E7F1E9C
:1016AC0012221B9000AC7401F022E49000ACF0FD0F
:0D16BC007F1C12221BE4FD7F1F12221B2247
:101AAF005E00630000000000000000000000000066
:101ABF000000000000000000000000000000000017
:091ACF00004100810041006200A9
:1022470090FF0E74C1F090FF0F7461F090FFA074BF
:1022570016F090FFA104F075CEFF75CDE675CC069C
:09226700759E02759810D2AC229C
:0C24BB00C2AC8F993099FDC299D2AC22BE
:0324F3000224BB05
:0B21EE0090000DEBF0A3EAF0A3E9F075
:1021F900E4FEEEC39D501A90000DE0FBA3E0FAA3A4
:10220900E0F98E82758300120590FF1224F30E8087
:01221900E1E3
:01221A0022A1
:102349009000087455F0A3EFF0A3EDF0A3740DF01D
:0F235900A3740AF07B017A0079087D050221EE5A
:0624DC00AE071224BB2232
:0300230002203682
:0D203600C0E0C083C082C0D075D000C007DC
:10204300E59830E030AF995398FE900081E014603A
:1020530019047021EFB4551D900063F0900061E006
:1020630004F09000817401F0800B900062EFF09017
:0520730000817402F081
:0B207800D007D0D0D082D083D0E0325F
:101AD8004100A60041009D0042009E00004100A078
:0F1AE800004200A100004100A3014200A4000041
:10000E0090FF1D7461F090FF15F090FF16F090FFB9
:03001E0002F022CB
:10186200E4900002F0A2A533900001F090009DE008
:1018720014602614604E14700302190524036003D9
:1018820002190E900001E0600302191390009EF00D
:10189200A3F090009D04F08078900001E0706B90BE
:1018A200009FE004F0700690009EE004F0C39000F8
:1018B2009FE0940390009EE09400403E90009D744F
:1018C20002F08036900001E0B40106A37404F080B7
:1018D2003B90009FE004F0700690009EE004F0C38D
:1018E20090009FE0947890009EE09400400C90005D
:1018F200027405F090009D7403F07F0A7E001224AA
:1019020029800E900001E0B401078000E490009D60
:06191200F0900002E0FF6E
:0119180022AC
:10191900E4900002F0A2A633900001F09000A0E04C
:1019290014602614604E1470030219BC240360036A
:101939000219C5900001E060030219CA9000A1F0E4
:10194900A3F09000A004F08078900001E0706B9003
:1019590000A2E004F070069000A1E004F0C390003A
:10196900A2E094039000A1E09400403E9000A0748E
:1019790002F08036900001E0B40106A37404F080FF
:101989003B9000A2E004F070069000A1E004F0C3CF
:101999009000A2E094F09000A1E09400400C900027
:1019A900027406F09000A07403F07F0A7E001224EE
:1019B90029800E900001E0B401078000E49000A0A6
:0619C900F0900002E0FFB7
:0119CF0022F5
:101E1500121862BF05037F0122121919BF0621128C
:101E250024D0BF0114900097E0700E9000A604F036
:101E3500900097F01222BF803CE49000A6F0803518
:101E45009000A3E0602330A60320B51D9000A6E016
:101E550070177F32FE122429E49000A3F020A60318
:101E65007F032220B50F7F022230A60930B50690E8
:101E750000A37401F030A513D39000A5E094019060
:0D1E850000A4E094004004E4F0A3F07F000E
:011E9200222D
:1016C9007365742074696D65207365636F6E643A20
:1016D90025640D0A0065786368616E67655F6865F2
:1016E90061745F76616C7565200D0A0074696D65BA
:1016F900207365636F6E643A2564200D0A00707269
:101709006F74656374200D0A0074696D65206F66D6
:1017190066200D0A0074696D655F746F5F302E3540
:1017290048202074696D655F7365633D2564200DEC
:101739000A0074696D655F746F5F314820207469B0
:101749006D655F7365633D2564200D0A0074696DDD
:10175900655F746F5F3248202074696D655F7365DA
:10176900633D2564200D0A0074696D655F746F5FC0
:101779003448202074696D655F7365633D25642075
:101789000D0A0074696D655F746F5F3848202074B5
:0E179900696D655F7365633D2564200D0A0070
:101AF70041008E0042008C0000420090000041002F
:101B07008400410085004100920041008F004100A0
:101B17008800420086000042008A000042008200DE
:051B27000041008900EF
:1023A40090008CEEF0A3EFF0E4A3F07BFF7A1679B3
:0C23B400C9900034EEF0A3EFF00208E244
:101E9300EFB40A00506E901EA0F8282873021EBEED
:101EA300021EC8021ECA021ECC021ED6021EE00279
:101EB3001EEA021EF4021EFE021EFE900082E4F0E1
:101EC300A3741EF02280028000900082E4F0A374C9
:101ED3003CF022900082E4F0A3745AF02290008236
:101EE300E4F0A37478F022900082E4F0A37496F0F7
:101EF30022900082E4F0A374B4F022900082E4F014
:051F0300A374F0F022C0
:101FDF00900093E0B40A00504D901FEFF82828733B
:101FEF0002200D02200F02201602201802201F02CD
:101FFF00202102202802202F02202F02202F8000D4
:10200F0090008F7401F022800090008F7403F022F3
:10201F00800090008F7405F02290008F7408F022DA
:07202F0090008F740CF022F9
:10217F00900088E0B40234900086E475F0011206F6
:10218F0024FEC3900083E095F0900082E09E501BE8
:10219F007BFF7A1679DE1208E2E4900088F0900057
:0C21AF0086F0A3F0900089F0121FDF22E0
:101D8B00E490008EF0900094E0FF700890008CF0CF
:101D9B00A3F08052EFB4010C90008C7407F0A304F5
:101DAB00F0E48042EFB4020D90008C740EF0A3743B
:101DBB0010F0E48031EFB4030D90008C741CF0A391
:101DCB007420F0E48020EFB4040D90008C7438F094
:101DDB00A37440F0E4800FEFB4051790008C74707F
:101DEB00F0A37480F0E4900090F0A3F090008AF0E0
:101DFB00A3F07BFF7A1679F590008CE0FFA3E090BF
:0A1E0B000034CFF0A3EFF00208E26C
:10244000E490FE80F0F589758CF2758AFBC28DD21E
:06245000A9D28CD2AF22DC
:03000B000213B726
:1013B700C0E0C0F0C083C082C0D075D000C000C0FC
:1013C70001C002C003C004C005C006C0071224D074
:1013D700EF60030214AB90008EE004F0E0C3946466
:1013E70050030214AB12217F900092E0B4022D90BB
:1013F7000091E004F07006900090E004F0D39000B4
:1014070091E09420900090E0941C4010900092E4AA
:10141700F0900090F0A3F090008404F0D390008D3A
:10142700E0940090008CE094004048A3E024FFF093
:1014370090008CE034FFF0900085E06402706090CB
:101447000091E004F07006900090E004F0D3900063
:1014570091E09420900090E0941C404390008474A5
:1014670001F0A3E4F0900090F0A3F07BFF7A1779E6
:10147700078029900094E060267F011224D690000F
:101487008CE4F0A3F0900090F0A3F0900085F0902A
:101497000092F01223867BFF7A1779121208E290E6
:1014A700008EE4F0D007D006D005D004D003D002D8
:0F14B700D001D000D0D0D082D083D0F0D0E0329E
:101F750090008AE475F001120624FEE5F08EF01259
:101F8500081D1F9F07081FA70E101FAF1C201FB796
:101F950038401FBF708000001FDE7BFF7A17791E57
:101FA500801E7BFF7A17793B80167BFF7A1779565F
:101FB500800E7BFF7A17797180067BFF7A17798C03
:101FC50090008CE0FFA3E0900034CFF0A3EFF01277
:0A1FD50008E2E490008AF0A3F02275
:041B2C004100AE00C6
:102411007E009000AEE0FD7C0012084AE47B64FA85
:07242100F9F81206FA8FDF43
:012428002291
:1023070090FF0074C1F0E490FF9CF0AC06AD077E2F
:102317007A7F121205CFEF149000AEF0F5DE75DD6F
:022327009722FB
:1023F60090FF017401F090FF03F075B4807F147EA6
:0B2406000012249290FE9B7449F0220B
:10245600E4FFFE75B50143B440E5B430E5FB53B483
:05246600DFAEB7AFB6C8
:01246B00224E
:10246C00E4FFFE75B50343B440E5B430E5FB53B46B
:05247C00DFAEB7AFB6B2
:012481002238
:0B116800900006EBF0A3EAF0A3E9F012
:1011730090000C1207A600000000E4900010F0F0AD
:1011830090000CE0F8A3E0F9A3E0FAA3E0FB12243B
:1011930056E4FCFDEB2FFFEA3EFEED39FDEC38FC97
:1011A30090000C12079A900010E004F0E0C394053D
:1011B30040CE90000CE0FCA3E0FDA3E0FEA3E0FF23
:1011C300E47B05FAF9F81206FA90000C12079AE488
:1011D3007F887E13FDFC90000CE0F8A3E0F9A3E008
:1011E300FAA3E0FB12066FE4FB7A10F9F81206FA91
:1011F300900006E0FBA3E0FAA3E0F9EE8FF01206FD
:101203005090000C1207A600000000E4900010F0BC
:1012130090000CE0F8A3E0F9A3E0FAA3E0FB1224AA
:101223006CE4FCFDEB2FFFEA3EFEED39FDEC38FCF0
:1012330090000C12079A900010E004F0E0C39405AC
:1012430040CE90000CE0FCA3E0FDA3E0FEA3E0FF92
:10125300E47B05FAF9F81206FA90000C12079AE4F7
:101263007F887E13FDFC90000CE0F8A3E0F9A3E077
:10127300FAA3E0FB12066FE4FB7A10F9F81206FA00
:10128300900009E0FBA3E0FAA3E0F9EE8FF0020679
:01129300500A
:0D24AE0075BD17EF75F02BA490FEA0F02275
:0424EC0043BD1022BA
:100026000203B0E86480F8E933E83360110460F055
:10003600ED33EC337009E8FCE9FDEAFEEBFF220440
:1000460060DED3EB9FEA9EE99DE8C2E78CF0C2F73B
:1000560095F0400CE8CCF8E9CDF9EACEFAEBCFFB07
:1000660012037B85D0F05804700320D5B3E80470E2
:10007600075002B2D50203BA92D5EC0460F7E4CC7D
:10008600C0E0C398F8603B94186008400DD0E0FBD0
:10009600020392E4FBFAC9FC8028E830E406E4C9CE
:1000A600FBE4CAFCE830E305E4C9CACBFCE8540724
:1000B6006010F8C3E913F9EA13FAEB13FBEC13FC2F
:1000C600D8F130F52FC3E49CFCEF9BFFEE9AFEEDD2
:1000D60099FDD0E0FBEF4E4D4C701222DB0302037C
:1000E600B7EC2CFCEF33FFEE33FEED33FDED30E7DE
:1000F600EB020392EF2BFFEE3AFEED39FDD0E0FB6B
:1001060050130BBB00030203BAED13FDEE13FEEF13
:0801160013FFEC13FC0203923D
:10011E00EC4D6011E8497017ED33EC3304600DE4DB
:10012E00FCFFFEFD22E933E8330470F80203B0123F
:10013E00037B58046009E4CC248150062850090240
:10014E0003BA2840030203B7C0E0EB4A7044B980FB
:10015E0006D0E0FB0203A6EF4E701CBD8008EBFF3D
:10016E00EAFEE9FD80EBE98DF0A4FEE5F002020760
:10017E00E9CDF9EAFEEBFFEF89F0A4FCE5F0CE89BC
:10018E00F0A42EFFE435F0CD89F0A42DFEE435F079
:10019E008067EF4E7005BD80D780C3EF8BF0A4ACA7
:1001AE00F0EE8BF0A42CFCE435F0F8EF8AF0A42CE2
:1001BE00E5F038FCE433CB8DF0A42CFCE5F03BF8F5
:1001CE00EE8AF0A42CFCE5F038F8E433CF89F0A4E5
:1001DE002CFCE5F038CF3400CE89F0A42FFFE5F0EB
:1001EE003EFEE433C98DF0A42EFEE5F039CD8AF043
:1001FE00A42FFFE5F03EFEE43DFD33D0E0FB5007BB
:10020E000BBB000F0203BAEC2CFCEF33FFEE33FEF8
:06021E00ED33FD02039226
:100224000203BAEC5D046005E8590470030203B0EC
:1002340012037B580460F6EC4860F2EC7004FDFE97
:10024400FF22C860DB2481C85009C39860025006AD
:100254000203B79850CAF582E9294B4A7005AB826C
:100264000203A675F0007C1A7880C3EF9BEE9AED2A
:1002740099400DC3EF9BFFEE9AFEED99FDE842F025
:10028400DC23ACF0D0E0FFD0E0FED0E0FDAB822078
:10029400E7101BEB60BAEC2CFCEF33FFEE33FEED02
:1002A40033FD020392E803F830E705C0F075F0006F
:1002B400EF2FFFEE33FEED33FD40B830E7C280AAE6
:1002C40074F8CC6480CCC86480C8F58204604FC3E1
:1002D400EB9FF5F0EA9E42F0E99D42F0E89C45F080
:1002E400603C501DE5825FFFE582D313CB5BCBF40A
:1002F4002B5582FB50280ABA002409B90020088033
:100304001DE5825BFBE582D313CF5FCFF4C3132FCC
:100314005582FF50090EBE00050DBD00010CC3EB54
:100324009FF5F0EA9E42F0E99D42F0E89C45F060BA
:0903340007CC4820E701B3EC22DC
:10033D0075F020800E75F010800575F0087D007E3B
:10034D00007F003392D530D50312078CEC3340106B
:10035D00EF33FFEE33FEED33FDEC33FCD5F0ED2244
:0E036D00E5F0247EA2D513CC92E7CDCEFF2280
:10087700E50D2434F582E43400F583E0050D22907C
:100887000031301003900034E475F0011207D702ED
:1008970005772009E97F2ED2098018EF540F24909D
:1008A700D43440D4FF300D0BEF24BFB41A005003EB
:1008B7002461FFE50E6002150E0511E511700205B2
:1008C7001030100E900031E475F0011207D7EF02D7
:1008D70005BD0224DC7403D2108003E4C210F50DB9
:1008E7009000311207EEE4F50EF510F511E50E60F4
:1008F700077F201208BA80F5750FFFC20AC209C226
:100907000BC20CC20EC20FC211120886FF700D3047
:1009170010057F001208CBAF11AE1022B4255FC2BD
:10092700D5C20D120886FF24D0B40A00501A75F0FC
:100937000A780E30D50508B6FF0106C6A426F620AC
:10094700D5047002D20C80D924CFB41A00EF50041A
:10095700C2E5D20D020BBDD20A80C6D20980C0D231
:100967000B80BCD2D580BAD20E80B47F201208BAD1
:10097700200B077401B50E0040F1120877FF12082B
:10098700BA0208F4D211D20F8095120877FB120829
:1009970077FA120877F94A4B700679BB7A0C7BFF16
:1009A700200B2EE50E602A7E008E827583001205CD
:1009B7009060060EEE650F70F0C2D5EBC0E0EAC09E
:1009C700E0E9C0E0EE120C1ED0E0F9D0E0FAD0E08A
:1009D700FB120577FF60AAEBC0E0EAC0E0E9C0E0E0
:1009E7001208BAD0E02401F9D0E03400FAD0E0FBD5
:1009F700E50F0460DCD50FD98087D20B80A2120CDB
:100A07000060F7E50F7001041203C5A90F600DE53B
:100A17000F600914F50F120CA8EF60F3EA30E70234
:100A2700F404C3995079EAF4250F0430E701E4048C
:100A3700F50F800D120C0060C1EA050F250F120398
:100A4700C5EA900060F030E701E4250F04D50F04F4
:100A5700200E0114120C1EE4C0E0120CA8900060D6
:100A6700E0601320E70714F01208A2802204F0D0F8
:100A7700E014C0E07F001208A2E50F600712089992
:100A8700150F800B300E03120899D0E00208F4D03E
:100A9700E00480C4120C00609EE50F041203C590A9
:100AA7000060EAF0E50F200E026001042404120C36
:010AB7001E20
:100AB80074FF04C0E0120CA81208A2E50F200E0271
:100AC8006003120899D0E0B50FE87F451208AC9092
:100AD8000060E07F2B30E7047F2DF404C0E01208AB
:100AE800BAD0E075F00A84C0F01208A3D0E012086A
:100AF800A30208F4791080027908C20FC211800895
:100B0800D2D5790A8004790AC2D5E50F047002F5B6
:100B18000FE4FAFDFEFF120877FC7B08200A131287
:100B28000877FD7B1030090A120877FE120877FF54
:100B38007B20EC3382D592D55013C3E43009069F4D
:100B4800FFE49EFEE4200A039DFDE49CFCE4CBF850
:100B5800C20AEC700CCFCECDCCE824F8F870F38044
:100B680017C3EF33FFEE33FEED33FDEC33FCEB330D
:100B7800FB994002FB0FD8E9EB300A05F8D0E0C436
:100B880048B20AC0E00AEC4D4E4F78207B0070C294
:100B9800EAB50F0040BCC0E0120C20D0F0D0E02035
:100BA8000A04C4C0E0C4B20AC0F01208A3D0F0D549
:100BB800F0EB0208F41207F70991530AFC5809628E
:100BC8004C095E420B004F0B08440B084909774358
:100BD8000B0E550A3B460A9B450A05470CDB500994
:100BE800662D096A2E098D2B096E23098B200CC4EA
:100BF8002A09264800000985E50FB4FF03750F068A
:100C0800120877FC120877FD120877FE120877FFA2
:100C1800900059020402790AA2D5200C14300E095A
:100C2800B910020404B9080104A2D5200F0250012A
:100C380004200B68920BB50E005034C0E07F2030C2
:100C48000C197F30A20B720F720E500F120C77C264
:100C58000BC20FC20EC2117F30800F300E03E9C0E5
:100C6800E01208BA300E03D0E0F9D0E0B50ECC306F
:100C78000E177F30B9100C1208BA7F58300D077F55
:100C8800788003B908031208BA300B057F2D0208D3
:100C9800BA7F202011F87F2B200FF322920B80CFF0
:100CA8007F00B40700500B2459F582E43400F58323
:100CB800E0FF22286E756C6C2900D20A1208773082
:100CC8000AF8C20A780E30D50108F60209262D5016
:100CD8004349581208772403B405004001E4900CF6
:100CE800D6931208AB743A1208ABD20C750E0402F4
:020CF8000AFCF4
:10037B00E9D2E7C933E833F892D5EDD2E7CD33ECC8
:07038B0033FC5002B2D52241
:10039200EC30E7100FBF000C0EBE00080DBD0004CC
:1003A2000BEB6014A2D5EB13FCED92E7FD2274FF78
:1003B200FCFDFEFF22E480F8A2D574FF13FC7D80D1
:0303C200E480EFE5
:1003C500F920E73624F950037907E4F42402FBE524
:1003D50082158270021583DBF6E024FB501BE96071
:1003E50014E4F0E582158270021583E004F0B40A86
:0D03F50008E4F0D9EE7401F00A22C2D5220E
:10040200ED33EC3392D5FA602AB4FF33EDC2E77BC9
:10041200FF60067A047927E4227A04793020D50431
:100422007A04792B224E614E002B494E46002D490B
:100432004E4600E47A08F0A3DAFC7B00740722C07F
:1004420083C082ECC0E0EDC0E0EEC0E0EFC0E0EAC5
:1004520075F010A4CAABF075F04DA42BFBE435F097
:10046200FCEA2410FAEB34C5FBEC34D9FCEDC2E70C
:10047200FF75F056A4F42411C5F0F434C58FF0A42E
:100482002AE5F03BE43CF020E714120537D0E0FF08
:10049200D0E0FED0E0FDD0E0FC1202278014F4048C
:1004A200120537D0E0FFD0E0FED0E0FDD0E0FC1234
:1004B200011ED082D083E0FAEDD2E7CD33EC3324B3
:1004C20082FBE4C3CF33CFCE33CECD33CD33DBF398
:1004D2007B0775F00A846004F0A31B0AE5F0F0A321
:1004E2008FF0740AA4FFACF08EF0740AA42CFEAC58
:1004F200F050010C8DF0740AA42CFDE435F0F0A349
:05050200DBDE7407229E
:100507003F8000004120000042C80000447A0000FC
:10051700461C400047C35000497424004B1896807E
:100527004CBEBC205A0E1BCA6753C21C749DC5AE75
:10053700FB60065407601C2323120565EB543860E3
:100547000912055112056012011EECF8EDF9EEFAD9
:10055700EFCB22EB12056080F1543803241C900581
:1005670007FE93FC0EEE93FD0EEE930ECE93FF2245
:101C8100021B31E493A3F8E493A34003F68001F22D
:101C910008DFF48029E493A3F85407240CC8C33364
:101CA100C4540F4420C8834004F456800146F6DF33
:101CB100E4800B0102040810204080901A83E47E26
:101CC100019360BCA3FF543F30E509541FFEE49328
:101CD100A360010ECF54C025E060A840B8E493A3EF
:101CE100FAE493A3F8E493A3C8C582C8CAC583CA1A
:101CF100F0A3C8C582C8CAC583CADFE9DEE780BED2
:011B300000B4
:10057700BB010689828A83E0225002E722BBFE0282
:09058700E32289828A83E49322B5
:10059000BB010CE58229F582E5833AF583E0225020
:1005A00006E92582F8E622BBFE06E92582F8E2226A
:0D05B000E58229F582E5833AF583E4932284
:1005BD00BB010689828A83F0225002F722BBFE011D
:0205CD00F32217
:1005CF00BC000BBE0029EF8DF084FFADF022E4CC10
:1005DF00F875F008EF2FFFEE33FEEC33FCEE9DECD9
:1005EF00984005FCEE9DFE0FD5F0E9E4CEFD22ED1F
:1005FF00F8F5F0EE8420D21CFEADF075F008EF2F69
:10060F00FFED33FD4007985006D5F0F222C398FD59
:05061F000FD5F0EA22F6
:10062400C5F0F8A3E028F0C5F0F8E5821582700261
:060634001583E038F022FE
:10063A00A3F8E0C5F025F0F0E58215827002158373
:06064A00E0C838F0E822D0
:10065000BB010A89828A83F0E5F0A3F0225006F7F5
:0F06600009A7F01922BBFE06F3E5F009F31922F2
:10066F00E88FF0A4CC8BF0A42CFCE98EF0A42CFC2A
:10067F008AF0EDA42CFCEA8EF0A4CDA8F08BF0A4A8
:10068F002DCC3825F0FDE98FF0A42CCD35F0FCEB07
:10069F008EF0A4FEA9F0EB8FF0A4CFC5F02ECD39CC
:0F06AF00FEE43CFCEAA42DCE35F0FDE43CFC2239
:1006BE0075F008758200EF2FFFEE33FECD33CDCCF3
:1006CE0033CCC58233C5829BED9AEC99E582984076
:1006DE000CF582EE9BFEED9AFDEC99FC0FD5F0D653
:1006EE00E4CEFBE4CDFAE4CCF9A88222B800C1B97D
:1006FE000059BA002DEC8BF084CFCECDFCE5F0CBBB
:10070E00F97818EF2FFFEE33FEED33FDEC33FCEBF3
:10071E0033FB10D703994004EB99FB0FD8E5E4F9AE
:10072E00FA227818EF2FFFEE33FEED33FDEC33FC9B
:10073E00C933C910D7059BE99A4007EC9BFCE99A8F
:10074E00F90FD8E0E4C9FAE4CCFB2275F010EF2FD4
:10075E00FFEE33FEED33FDCC33CCC833C810D707D4
:10076E009BEC9AE899400AED9BFDEC9AFCE899F80F
:0E077E000FD5F0DAE4CDFBE4CCFAE4C8F922A2
:0E078C00C3E49FFFE49EFEE49DFDE49CFC227E
:0C079A00ECF0A3EDF0A3EEF0A3EFF022D2
:1007A600A8828583F0D083D0821207BD1207BD12BE
:1007B60007BD1207BDE473E493A3C583C5F0C583E3
:1007C600C8C582C8F0A3C583C5F0C583C8C582C89D
:0107D6002200
:1007D700F8E0FBA3A3E0F925F0F0E58215827002AB
:0707E7001583E0FA38F0224F
:0907EE00EBF0A3EAF0A3E9F0220C
:1007F700D083D082F8E4937012740193700DA3A391
:1008070093F8740193F5828883E4737402936860A4
:06081700EFA3A3A380DFA4
:10081D00D083D082F8E4937012740193700DA3A36A
:10082D0093F8740193F5828883E473740293B5F0A1
:0D083D00067403936860E9A3A3A3A380D809
:10084A00EC8EF0A4CCC5F0CCCDF8EFA4CEC5F02D3B
:10085A00FDE43CFCE8A42EC8C5F03DFDE43CFCEFF9
:0D086A00A4FFE5F028FEE43DFDE43CFC2287
:00000001FF
