:03000000021E4697
:0C1E4600787FE4F6D8FD758122021E8D25
:101DB200206B65795F7363616E0D0A000D0A3D3D0C
:101DC2003D3D3D3D3D3D3D3D3D3D3D3D3D3D3D3D41
:101DD2003D3D3D3D3D3D3D3D3D3D3D3D3D3D3D3D31
:101DE2000D0A00736B753A4B2564200D0A00736F60
:101DF20066742076657273696F6E3A2573200D0AD8
:101E020000312E31302E3030006761702025642081
:101E12000D0A0074696D6572202564200D0A003D6B
:101E22003D3D3D3D3D3D3D3D3D3D3D3D3D3D3D3DE0
:101E32003D3D3D3D3D3D3D3D3D3D3D3D3D3D3D3DD0
:041E42003D0D0A0048
:101956004200B300004100B6004100B2004100B5AC
:05196600004100B1008A
:10000E00758E5390FE917401F090FF027410F022E1
:10142600E4900000F09000B2E0700A121F5C900099
:1014360000EFF08005E4900000F0900000E0640406
:1014460070699000B0E070637BFF7A1D79B2120874
:10145600E21227D5EF70107F011227DB122650E427
:10146600FF1226D90227AA122775E4FF1227DB12DC
:1014760020DB90009FE0FFD394034016A3E0FE70AC
:101486000590009C8009EED39403400690008D746D
:1014960002F09000B67401F012205F90009FE0FF0A
:1014A60012105B9000A0E0FF021ED21227D5EF605B
:1014B60003021557900000E06402704A12277590E7
:1014C600009FE0C394095005E004F0800690009F59
:1014D6007401F090009FE0FFD394034016A3E0FE52
:1014E600700590009C8009EED39403400690008D11
:1014F6007402F09000B67401F012205F90009FE035
:10150600FF12105B8048900000E0640370431227CE
:10151600759000A0E0C394055005E004F08005E452
:101526009000A0F090009FE0D394034016A3E0FF44
:10153600700590009C8009EFD39403400690008DBF
:101546007402F09000A0E0FF121ED21220DB1225DA
:01155600662E
:011557002271
:081A1A00900006EEF0A3EFF0CE
:101A2200900088E06402706A9000B0E06401706225
:101A3200900006A3E0FFE4900088F09000A304F079
:101A4200900069E0FED3940F4048EED39F400CE033
:101A52009F9000A1F0A37401F08016900069E0FE4F
:101A6200C3EF9EFF9000A1F012279E9000A2740285
:101A7200F09000A1E0FFC394024006EFD39414401B
:101A820007E49000A1F0A3F01225667D027F021206
:101A920026139000A2E0FDB401149000A1E0FF7EA5
:101AA20000900006EE8FF0120624AFF0FE22EDB495
:101AB20002189000A1E0FFC3900007E09FFF900092
:101AC20006E09400FEF0A3EFF022900006E0FEA3F1
:021AD200E0FF33
:011AD40022EF
:100CFA00900008ECF0A3EDF0900006EEF0FAA3EFF6
:020D0A00F0FBFC
:100D0C00E490000AF0A37432F0A3740AF0A3120763
:100D1C00A600000000C3EB9432EA94004016900049
:100D2C0008E0FEA3E0FF900006E0FCA3E0FDD39FEB
:100D3C00EC9E4003020DD3E4120342E4FBFA797AF1
:100D4C007844120227C004C005C006C007900008F2
:100D5C00E0FCA3E0FDE4120342E4FBFA797A784468
:100D6C00120227D003D002D001D000120029C004F7
:100D7C00C005C006C007900006E0FCA3E0FDE4122D
:100D8C000342E4FBFA797A7844120227E4FBFA79FD
:100D9C00FF7843120227A804A905AA06AB07D007BF
:100DAC00D006D005D00412022790000D12079AE449
:100DBC00FFFEFDFC90000DE0F8A3E0F9A3E0FAA320
:100DCC00E0FB1202C450057E007FFF2290000DE074
:100DDC00FCA3E0FDA3E0FEA3E0FFE4FBFAF97841FD
:100DEC0012022790000D12079AE4FFFE7D927C42BE
:100DFC0090000DE0F8A3E0F9A3E0FAA3E0FB1202E7
:100E0C00C45004E4FEFF2290000DE0FCA3E0FDA31F
:100E1C00E0FEA3E0FF7BF37A1F79B678421202273B
:100E2C0090000D12079A7FF37E1F7DB67C429000D6
:100E3C000DE0F8A3E0F9A3E0FAA3E0FB12011E7B9E
:100E4C00F37A1F79B678421202C4504C90000DE030
:100E5C00FCA3E0FDA3E0FEA3E0FF7B497A9D798033
:100E6C00783F12022790000D12079A90000AE004B6
:100E7C00F0E4FFFE7D807C3F90000DE0F8A3E0F9EC
:100E8C00A3E0FAA3E0FB1202C4600250BF90000A78
:100E9C00E0FFA3E02FF0804E90000DE0FCA3E0FDFE
:100EAC00A3E0FEA3E0FF7B6D7AC5797E783F12024A
:100EBC002790000D12079A90000AE004F0E4FFFE60
:100ECC007D807C3F90000DE0F8A3E0F9A3E0FAA34D
:100EDC00E0FB1202C440C190000BE0FF90000AE05E
:100EEC00FEC3EF9EA3F09000B5E0B401057E007F39
:090EFC00FE2290000BE0FF7E00D5
:010F050022C9
:100F0600E4900000F0A3F0A3F0A3F0A3F0A3F09008
:100F160000B4E004F070069000B3E004F0D3900053
:100F2600B4E094109000B3E09427500302105AE402
:100F3600F0A3F07B0190000B04F0A37400F0A374FF
:100F460004F07A007902121558900002E0FEA3E040
:100F5600FFA3E0FCA3E0FD120CFA900000EEF0A364
:100F6600EFF0121A1A900000EEF0A3EFF0D3900003
:100F760003E09432900002E09400500302101590B2
:100F860000B5E060030210151227D5EF704D9000F2
:100F9600B6E0B40129E4F0D3900001E09432900069
:100FA60000E0940090009074024009F0900097745D
:100FB60004F0800AF090009114F0900097F09000F1
:100FC600A0E0FF121ED290009FE0FF12105B90007F
:100FD60000E0FEA3E0FF12188D802E9000B0E0B472
:100FE6000118E4FF1226D912265090009FE0FF1246
:100FF600105B9000BB7401F0800FE4FF1226D97FCE
:1010060004122689E49000BBF0E49000B2F022902E
:1010160000B5E070179000B0F09000BBF0122650BB
:10102600E4FF1226D99000B174FF801D9000B5E050
:10103600B40121E49000B0F09000BBF0122650E419
:10104600FF1226D99000B174FEF0FF12105B9000DB
:04105600B27401F07F
:01105A002273
:101AD50012000E1224EE1226A4D2AF12258C122764
:101AE500081211AC7FC87E001225D1122775122568
:101AF5003F7F207E031226F11226507F0312105BD2
:101B05007F021227917F0A1226D91226BFE4FF12FF
:101B150026D97BFF7A1D79BE1208E27BFF7A1D79F3
:101B2500E590003B7423F0A3743BF01208E29000AB
:101B35003B74FFF0A3741EF0A37403F07BFF7A1DC2
:101B450079F01208E27BFF7A1E790B90009FE0FF87
:101B550090003BE4F0A3EFF01208E27BFF7A1E79D8
:101B6500159000A0E0FF90003BE4F0A3EFF0120811
:101B7500E27BFF7A1E79211208E2121426120F0663
:081B85001227C21227EC80F2C6
:10238900900008EEF0A3EFF0A3ECF0A3EDF0D39FDB
:10239900EC9E4004E4FF8022900097E0FFC3900088
:1023A90009E09FFF900008E09400FEC390000BE055
:0E23B9009F90000AE09E50057F0A1226D9224E
:10188D00900006EEF0A3EFF0900091E0B4010D9002
:10189D000006E0FCA3E0FD7F4D02195090009FE093
:1018AD00B40A0040030219559018BCF82828730299
:1018BD0018DA0218E60218F20218FE02190A0219C5
:1018CD001602192202192E02193A02194690000623
:1018DD00E0FCA3E0FD7F1E806A900006E0FCA3E023
:1018ED00FD7F2B805E900006E0FCA3E0FD7F2F8046
:1018FD0052900006E0FCA3E0FD7F3280469000068A
:10190D00E0FCA3E0FD7F36803A900006E0FCA3E00A
:10191D00FD7F3C802E900006E0FCA3E0FD7F418022
:10192D0022900006E0FCA3E0FD7F468016900006A5
:10193D00E0FCA3E0FD7F4A800A900006E0FCA3E0F6
:09194D00FD7F4E7E001223892269
:1025F30090008CE0B4011890009FE0D39403400F47
:102603007403F0FF12105B122566E490008CF02235
:0A27C20030A1069000B57401F0226A
:101684000D0A3D3D3D3D3D3D3D3D3D3D3D3D3D3DE9
:101694003D3D3D3D3D3D3D3D3D3D3D3D3D3D3D3D76
:1016A4003D3D3D3D3D3D3D3D3D3D0D0A00706F7767
:1016B4006572206F6E20666C617368206761703A92
:1016C4002564202074696D65723A2564200D0A0032
:1016D400706F776572206F6E20666C617368207618
:1016E400616C75653A256420207369676E3A2564D8
:1016F400200D0A003D3D3D3D3D3D3D3D3D3D3D3DD3
:101704003D3D3D3D3D3D3D3D3D3D3D3D3D3D3D3D05
:101714003D3D3D3D3D3D3D3D3D3D3D3D0D0A003D95
:101724003D3D3D3D3D3D3D3D3D3D3D3D6669727325
:101734007420696E697420646174613D3D3D3D3D72
:101744003D3D3D3D3D3D200D0A0030782530345867
:1017540020203078253034582020307825303458F3
:101764002020307825303458200D0A00666C6173CF
:1017740068206761703A2564202074696D65723A47
:061784002564200D0A009F
:10196B0045009F00000000004400A4202005014119
:03197B0000A801C0
:0627D5009000A8E0FF22C5
:0627DB009000A8EFF022BF
:1025AF00D310AF01C3C0D075FDF075FC0F8EFA8F3D
:1025BF00F975FDD275FC2D75FDE175FC1ED0D0921D
:0225CF00AF2239
:10251700D310AF01C3C0D08FFB75FDF075FC0FAEB4
:1025270004AF058EFA8FF975FDB475FC4B75FDE1A7
:0825370075FC1ED0D092AF220A
:0C214E007B017A00799F7D057F047E3CB8
:10215A00D310AF01C3C0D0900008EEF0A3EFF0A3F4
:0B216A00EDF0A3EBF0A3EAF0A3E9F016
:10217500E4A3F0C2AFF090000AE0FF90000EE0C3C8
:102185009F502C90000BE0FBA3E475F00112063A7A
:10219500A9F0FA120577FF900008E475F001120620
:1021A5003AADF0FC12251790000EE004F080C7D27E
:0121B500AF7A
:0521B600D0D092AF2221
:040003008F828E83D7
:03000700E493FF80
:01000A0022D3
:1022CB00900008EEF0A3EFF0A3EBF0A3EAF0A3E984
:1022DB00F0AF051DEF6028900008E475F0011206C1
:1022EB003A85F082F583E493FF90000AE0FBA3E4C8
:1022FB0075F00112063AA9F0FAEF1205BD80D22251
:10240300E4FDFCED2400FFE4343CFE12000374A45D
:102413002DF582E43400F583E0B507030C80037FD8
:1024230000220DEDB404DCECC3940440037F0122CD
:022433007F0028
:012435002284
:1011AC00E4900000F090FE927404F0122403EF70AF
:1011BC000790000004F0807C7BFF7A16798412087B
:1011CC00E27B017A00799F7D057F047E3C1222CB65
:1011DC007BFF7A1679B190009FE0FF90003BE4F022
:1011EC00A3EFF09000A0E0FF90003DE4F0A3EFF03F
:1011FC001208E27BFF7A1679D49000A1E0FF9000F0
:10120C003BE4F0A3EFF09000A2E0FF90003DE4F08F
:10121C00A3EFF01208E27BFF7A1679F81208E2903D
:10122C00009FE0D394095006A3E09405400690007B
:10123C00007401F0900000E0640160030212C87BAE
:10124C00FF7A1779231208E290009F7401F0A374BF
:10125C0003F07F007E3C1225AF7B017A0079A47DE0
:10126C000412215A12214E7B017A0079A47D047F4D
:10127C00007E3C1222CB7BFF7A17794E9000A4E0C3
:10128C00FF90003BE4F0A3EFF09000A5E0FF90008E
:10129C003DE4F0A3EFF09000A6E0FF90003FE4F0F7
:1012AC00A3EFF09000A7E0FF900041E4F0A3EFF073
:1012BC001208E27BFF7A1679F81208E27BFF7A17A4
:1012CC00797090009FE0FF90003BE4F0A3EFF0906A
:0F12DC0000A0E0FF90003DE4F0A3EFF00208E275
:102566007F047E3C1225AF7B017A0079A47D047F2F
:102576000012215A12214E7B017A00799F7D057F38
:06258600047E3C0222CBA2
:0E275900EF1F70011E144E6004000080F3227A
:1026F1007DA07C01ED1D70011C144C70F7EF1F7063
:06270100011E144E70EAF7
:0127070022AF
:0327F00002275964
:10266E0090FF0974C1F090FF08F090FF07F090FF03
:0B267E0006F0D291D290D287D28622C3
:08230B0090003BEFF0A3EDF0A0
:10231300E4A3F0F090003CE0FFA3E0C39F5027C28A
:102323008790003BE020E704C2868002D286D287F2
:102333007F057E001227F090003BE025E0F090003F
:062343003DE004F080CE35
:012349002271
:08234A0090003BEFF0A3EDF061
:10235200E4A3F0F090003CE0FFA3E0C39F5027C24B
:102362008790003BE020E004C2868002D286D287BA
:102372007F057E001227F090003BE0C313F090002F
:062382003DE004F080CEF6
:012388002232
:10268900900007EFF0C2917D047F8012230B900028
:0B26990007E0FF7D0812230BD2912206
:1024C200900039EFF0A3EDF0C2917D037FA01223BB
:1024D2000B900039E025E025E0FF7D0612230B90EA
:0C24E200003AE0FF7D0412234AD2912250
:0927CC00D291D290D287D286226C
:08197E004100BA004100BB006A
:05001E007F06022689A7
:0527E7007F04022689B9
:10263200E4900000F0F0900000E0FFC39420500D01
:0D2642007D0F1224C2900000E004F080E93A
:01264F002268
:10265000E4900038F0F0900038E0FFC39420500D73
:0D266000E4FD1224C2900038E004F080E98F
:01266D00224A
:10253F0012266E7F521226897F301226897F0A1249
:10254F0026897F081226897F021226897F06122686
:07255F00891226500226320A
:0E276700E4FD7F1C1224C2E4FD7F1F0224C289
:101ED200900006EFF07F06122689E4FD7F1F122490
:101EE200C2E4FD7F1C1224C2900006E014601B14A1
:101EF200602314602B14603A1460492405705A7DE3
:101F02000A7F1B1224C27D0E80317D0B7F1B12249F
:101F1200C27D0A80267D0E7F1B1224C27D0A801B91
:101F22007D0A7F1B1224C27D0A7F1C1224C27D0BF4
:101F320080227D0A7F1B1224C27D0B7F1C1224C2C9
:101F42007D0A80107D0A7F1B1224C27D0A7F1C122B
:0A1F520024C27D0E7F1F1224C2225C
:10105B00900006EFF07F06122689E4FD7F1D122417
:10106B00C2E4FD7F1E1224C29000BBE06401701F1E
:10107B009000BAE070117D067F1D1224C27D0E7F99
:10108B001E1224C202118EE49000BAF0021163907A
:10109B000006E0B401047D068063900006E0B40214
:1010AB000B7D0B7F1D1224C27D0C8066900006E029
:1010BB00B4030B7D0F7F1D1224C27D04805490005E
:1010CB0006E0B4040B7D067F1D1224C27D06804210
:1010DB00900006E0B4050B7D0D7F1D1224C27D062A
:1010EB008030900006E0B4060B7D0D7F1D1224C2EC
:1010FB007D0E801E900006E0B407077D077F1D0262
:10110B0011A8900006E0B4080E7D0F7F1D1224C2BB
:10111B007D0E7F1E0211A8900006E0B4090D7D0F15
:10112B007F1D1224C27D067F1E8072900006E0F4A4
:10113B0070329000BAE070177D017F1D1224C27DC2
:10114B000E7F1E1224C29000BA7401F0022775E4C0
:10115B009000BAF01227AAE4FD7F1C1224C2E4FD12
:10116B007F1F8039900006E064FE70349000BAE077
:10117B0070187D097F1D1224C27D0E7F1E1224C2A2
:10118B001227759000BA7401F022E49000BAF012A5
:10119B0027AAE4FD7F1C1224C2E4FD7F1F1224C288
:0111AB002221
:101986005E006A0000000000000000000000000089
:101996000000000000000000000000000000000041
:0919A600004100880041006900C5
:1024EE0090FF0E74C1F090FF0F7461F090FFA07416
:1024FE0016F090FFA104F075CEFF75CDE675CC06F3
:09250E00759E02759810D2AC22F2
:0C279E00C2AC8F993099FDC299D2AC22D8
:0327F30002279E1C
:0B24950090000DEBF0A3EAF0A3E9F0CB
:1024A000E4FEEEC39D501A90000DE0FBA3E0FAA3FA
:1024B000E0F98E82758300120590FF1227F30E80DB
:0124C000E13A
:0124C10022F8
:102613009000087455F0A3EFF0A3EDF0A3740DF050
:0F262300A3740AF07B017A0079087D05022495E3
:0627E100AE0712279E2244
:0300230002227E38
:0D227E00C0E0C083C082C0D075D000C00792
:10228B00E59830E030AF995398FE900088E01460E9
:10229B0019047021EFB4551D90006AF0900068E0AE
:1022AB0004F09000887401F0800B900069EFF090BF
:0522BB0000887402F030
:0B22C000D007D0D0D082D083D0E03215
:1019AF004100B0004100A9004200AA00004100AC74
:0A19BF00004200AD00004100AF013E
:10258C0090FF1D7461F090FF15F090FF16F090FF16
:10259C0002F090FF1774C1F090FF00F090FF1174DF
:0325AC0051F022C9
:101B8D00E4900002F0A2A533900001F09000A9E0CE
:101B9D0014602614604E147003021C30240360037D
:101BAD00021C39900001E06003021C3E9000AAF077
:101BBD00A3F09000A904F08078900001E0706B9084
:101BCD0000ABE004F070069000AAE004F0C39000B2
:101BDD00ABE094039000AAE09400403E9000A974FD
:101BED0002F08036900001E0B40106A37404F08089
:101BFD003B9000ABE004F070069000AAE004F0C347
:101C0D009000ABE0943C9000AAE09400400C900052
:101C1D00027405F09000A97403F07F0A7E0012266D
:101C2D00F1800E900001E0B401078000E49000A95E
:061C3D00F0900002E0FF40
:011C4300227E
:101C4400E4900002F0A2A633900001F09000ACE012
:101C540014602614604E147003021CE7240360030E
:101C6400021CF0900001E06003021CF59000ADF04E
:101C7400A3F09000AC04F08078900001E0706B90C9
:101C840000AEE004F070069000ADE004F0C39000F4
:101C9400AEE094039000ADE09400403E9000AC743C
:101CA40002F08036900001E0B40106A37404F080D1
:101CB4003B9000AEE004F070069000ADE004F0C389
:101CC4009000AEE094F09000ADE09400400C9000E1
:101CD400027406F09000AC7403F07F0A7E001226B2
:101CE400F1800E900001E0B401078000E49000ACA4
:061CF400F0900002E0FF89
:011CFA0022C7
:101F5C00121B8DBF05037F01229000AFE0601220A1
:101F6C00A50F7F327E001226F1E49000AFF07F04C3
:101F7C0022121C44BF06211227D5BF01149000A3C6
:101F8C00E0700E9000B004F09000A3F01225668073
:101F9C003FE49000B0F080389000AFE0602330A6B2
:101FAC000320B51D9000B0E070177F32FE1226F1B1
:101FBC00E49000AFF020A6037F032220B5127F022D
:101FCC002230A60C30B50930A5069000AF7401F094
:021FDC007F0084
:011FDE0022E0
:101CFB0065786368616E67655F686561745F76615F
:101D0B006C7565200D0A0070726F74656374200D1D
:101D1B000A0074696D65206F6666200D0A00746990
:101D2B006D655F746F5F302E3548202074696D656B
:101D3B005F7365633D2564200D0A0074696D655FF3
:101D4B00746F5F3148202074696D655F7365633D07
:101D5B002564200D0A0074696D655F746F5F3248EE
:101D6B00202074696D655F7365633D2564200D0AE2
:101D7B000074696D655F746F5F3448202074696D02
:101D8B00655F7365633D2564200D0A0074696D659D
:101D9B005F746F5F3848202074696D655F7365638E
:071DAB003D2564200D0A0034
:1019C9004100960042009400004200980000410046
:1019D9008C0041008D0041009C00410097004100AE
:1019E900900042008E0000420092000042008A00EE
:1019F900004100910042009A000042009D00004110
:031A090000890051
:0E2775009000897401F0E490009DF0A3F02222
:0C27AA00E4900089F090009DF0A3F02264
:10246600900089E0B40125D2A790009DE475F001A3
:10247600120624FED3E5F0942CEE94014010C2A778
:0F248600E4900089F090009DF0A3F022C2A722FD
:0C27B600900094EEF0A3EFF0E4A3F022FA
:10205F00EFB40A00507590206CF828287302208A7C
:10206F0002209402209402209402209E0220A802B3
:10207F0020B20220BC0220C60220D090008AE4F0D9
:10208F00A3741EF02290008AE4F0A3743CF0229017
:10209F00008AE4F0A3745AF02290008AE4F0A3744B
:1020AF0078F02290008AE4F0A37496F02290008AD0
:1020BF00E4F0A374B4F02290008AE4F0A374F0F07B
:0C20CF002290008A7401F0A3742CF0220F
:1022250090009FE0B40A00504F902235F82828739B
:10223500022253022255022257022259022260022B
:102245002262022269022270022270022277800431
:10225500800280009000977401F022800090009722
:102265007403F0229000977404F02290009774068E
:09227500F0229000977408F02299
:1023C700900090E0B4023490008EE475F00112069C
:1023D70024FEC390008BE095F090008AE09E501B8E
:1023E7007BFF7A1C79FB1208E2E4900090F09000E2
:0C23F7008EF0A3F0900091F0122225223D
:1020DB00E4900096F09000A0E0FF7008900094F060
:1020EB00A3F08052EFB4010C9000947407F0A3049A
:1020FB00F0E48042EFB4020D900094740EF0A374E0
:10210B0010F0E48031EFB4030D900094741CF0A335
:10211B007420F0E48020EFB4040D9000947438F038
:10212B00A37440F0E4800FEFB40517900094747023
:10213B00F0A37480F0E4900098F0A3F0900092F07C
:03214B00A3F022DC
:10270800E490FE80F0F589758CF2758AFBC28DD253
:06271800A9D28CD2AF2211
:03000B000212EBF3
:1012EB00C0E0C0F0C083C082C0D075D000C000C0C9
:1012FB0001C002C003C004C005C006C007122466AB
:10130B001227D5EF60030213E4900096E004F0E09F
:10131B00C39464500302140B1223C790009CE0B4D7
:10132B00022D900099E004F07006900098E004F014
:10133B00D3900099E09420900098E0941C4010907A
:10134B00009CE4F0900098F0A3F090008C04F0D394
:10135B00900095E09400900094E094004048A3E046
:10136B0024FFF0900094E034FFF090008DE06402D5
:10137B007060900099E004F07006900098E004F023
:10138B00D3900099E09420900098E0941C404390F7
:10139B00008C7401F0A3E4F0900098F0A3F07BFFB5
:1013AB007A1D791280299000A0E060267F01122718
:1013BB00DB900094E4F0A3F0900098F0A3F0900081
:1013CB008DF090009CF01226507BFF7A1D791D1238
:1013DB0008E2900096E4F080279000B0E0B4012082
:1013EB0090009AE475F001120624FED3E5F094E028
:1013FB00EE942E400B9000B0E4F090009AF0A3F026
:10140B00D007D006D005D004D003D002D001D00035
:0B141B00D0D0D082D083D0F0D0E032DF
:1021BB00900092E475F001120624FEE5F08EF01209
:1021CB00081D21E5070821ED0E1021F51C2021FD2E
:1021DB00384022057080000022247BFF7A1D79296C
:1021EB00801E7BFF7A1D794680167BFF7A1D7961F5
:1021FB00800E7BFF7A1D797C80067BFF7A1D799799
:10220B00900094E0FFA3E090003BCFF0A3EFF0121F
:0A221B0008E2E4900092F0A3F02224
:041A0C004100BC00D9
:1026D9007E009000BCE0FD7C0012084AE47B64FAAD
:0726E900F9F81206FA8FDF79
:0126F00022C7
:1025D10090FF0074C1F0E490FF9CF0AC06AD077E63
:1025E1007A7F121205CFEF149000BCF0F5DE75DD95
:0225F10097222F
:1026A40090FF017401F090FF03F075B4807F147EF5
:0B26B4000012275990FE9B7449F02291
:10271E00E4FFFE75B50143B440E5B430E5FB53B4B8
:05272E00DFAEB7AFB6FD
:012733002283
:10273400E4FFFE75B50343B440E5B430E5FB53B4A0
:05274400DFAEB7AFB6E7
:01274900226D
:0B155800900008EBF0A3EAF0A3E9F01C
:1015630090000E1207A600000000E4900012F0F0B5
:1015730090000EE0F8A3E0F9A3E0FAA3E0FB122742
:101583001EE4FCFDEB2FFFEA3EFEED39FDEC38FCDB
:1015930090000E12079A900012E004F0E0C3940545
:1015A30040CE90000EE0FCA3E0FDA3E0FEA3E0FF2D
:1015B300E47B05FAF9F81206FA90000E12079AE492
:1015C3007F887E13FDFC90000EE0F8A3E0F9A3E012
:1015D300FAA3E0FB12066FE4FB7A10F9F81206FA9D
:1015E300900008E0FBA3E0FAA3E0F9EE8FF0120607
:1015F3005090000E1207A600000000E4900012F0C5
:1016030090000EE0F8A3E0F9A3E0FAA3E0FB1227B1
:1016130034E4FCFDEB2FFFEA3EFEED39FDEC38FC34
:1016230090000E12079A900012E004F0E0C39405B4
:1016330040CE90000EE0FCA3E0FDA3E0FEA3E0FF9C
:10164300E47B05FAF9F81206FA90000E12079AE401
:101653007F887E13FDFC90000EE0F8A3E0F9A3E081
:10166300FAA3E0FB12066FE4FB7A10F9F81206FA0C
:1016730090000BE0FBA3E0FAA3E0F9EE8FF0020683
:011683005016
:0D27910075BD17EF75F02BA490FEA0F0228F
:0427EC0043BD1022B7
:1024360052203D20256620200D0A002050524F4490
:10244600554354455F4552524F520D0A0020454EA2
:102456005445525F544553545F4D4F44450D0A0051
:091A10004100B7004200B80000DB
:0F274A0090FF107461F090FF1274C1F0D2A222C0
:0D278300E4FF12274A20A0030F80027F020E
:012790002226
:10178A00E4900000F0A3F0A3F0A3F0A31207A600D0
:10179A0000000090000B7401F0A37400F0A374021F
:1017AA00F07B017A007900121558900000E0FCA342
:1017BA00E0FDE4120342E4FBFA797A784412022744
:1017CA00C004C005C006C007900002E0FCA3E0FD0B
:1017DA00E4120342E4FBFA797A7844120227D0032E
:1017EA00D002D001D000120029C004C005C006C032
:1017FA0007900000E0FCA3E0FDE4120342E4FBFAD8
:10180A00797A7844120227E4FBFA79FF78431202C4
:10181A0027A804A905AA06AB07D007D006D005D089
:10182A000412022790000412079A7BFF7A24793661
:10183A00900004E0FCA3E0FDA3E0FEA3E0FF90001B
:10184A003B12079A1208E2E4FFFE7D487C449000AE
:10185A0004E0F8A3E0F9A3E0FAA3E0FB1202C45003
:10186A001FE4FFFE7D2F7C44900004E0F8A3E0F91A
:10187A00A3E0FAA3E0FB1202C4600540037F03223F
:02188A007F00DD
:01188C002239
:101FDF009000B7E014603624FE607214606A240427
:101FEF00706D20A51120A50E20A50B9000B77404CD
:101FFF00F0E4A3F0A3F09000B8E475F0011206240A
:10200F00FEC3E5F09410EE94274044802612178A01
:10201F00BF030B9000B77404F0E4A3F0A3F090009B
:10202F00B8E475F001120624FEC3E5F09405EE94B2
:10203F0000401C7BFF7A2479411208E29000B774AC
:10204F0003F0E4A3F0A3F022D2A7C2A222D2A222CD
:1026BF00122783BF01137BFF7A2479531208E2D2CA
:0A26CF00A7121FDF1227EC80F8228B
:100026000203B0E86480F8E933E83360110460F055
:10003600ED33EC337009E8FCE9FDEAFEEBFF220440
:1000460060DED3EB9FEA9EE99DE8C2E78CF0C2F73B
:1000560095F0400CE8CCF8E9CDF9EACEFAEBCFFB07
:1000660012037B85D0F05804700320D5B3E80470E2
:10007600075002B2D50203BA92D5EC0460F7E4CC7D
:10008600C0E0C398F8603B94186008400DD0E0FBD0
:10009600020392E4FBFAC9FC8028E830E406E4C9CE
:1000A600FBE4CAFCE830E305E4C9CACBFCE8540724
:1000B6006010F8C3E913F9EA13FAEB13FBEC13FC2F
:1000C600D8F130F52FC3E49CFCEF9BFFEE9AFEEDD2
:1000D60099FDD0E0FBEF4E4D4C701222DB0302037C
:1000E600B7EC2CFCEF33FFEE33FEED33FDED30E7DE
:1000F600EB020392EF2BFFEE3AFEED39FDD0E0FB6B
:1001060050130BBB00030203BAED13FDEE13FEEF13
:0801160013FFEC13FC0203923D
:10011E00EC4D6011E8497017ED33EC3304600DE4DB
:10012E00FCFFFEFD22E933E8330470F80203B0123F
:10013E00037B58046009E4CC248150062850090240
:10014E0003BA2840030203B7C0E0EB4A7044B980FB
:10015E0006D0E0FB0203A6EF4E701CBD8008EBFF3D
:10016E00EAFEE9FD80EBE98DF0A4FEE5F002020760
:10017E00E9CDF9EAFEEBFFEF89F0A4FCE5F0CE89BC
:10018E00F0A42EFFE435F0CD89F0A42DFEE435F079
:10019E008067EF4E7005BD80D780C3EF8BF0A4ACA7
:1001AE00F0EE8BF0A42CFCE435F0F8EF8AF0A42CE2
:1001BE00E5F038FCE433CB8DF0A42CFCE5F03BF8F5
:1001CE00EE8AF0A42CFCE5F038F8E433CF89F0A4E5
:1001DE002CFCE5F038CF3400CE89F0A42FFFE5F0EB
:1001EE003EFEE433C98DF0A42EFEE5F039CD8AF043
:1001FE00A42FFFE5F03EFEE43DFD33D0E0FB5007BB
:10020E000BBB000F0203BAEC2CFCEF33FFEE33FEF8
:06021E00ED33FD02039226
:100224000203BAEC5D046005E8590470030203B0EC
:1002340012037B580460F6EC4860F2EC7004FDFE97
:10024400FF22C860DB2481C85009C39860025006AD
:100254000203B79850CAF582E9294B4A7005AB826C
:100264000203A675F0007C1A7880C3EF9BEE9AED2A
:1002740099400DC3EF9BFFEE9AFEED99FDE842F025
:10028400DC23ACF0D0E0FFD0E0FED0E0FDAB822078
:10029400E7101BEB60BAEC2CFCEF33FFEE33FEED02
:1002A40033FD020392E803F830E705C0F075F0006F
:1002B400EF2FFFEE33FEED33FD40B830E7C280AAE6
:1002C40074F8CC6480CCC86480C8F58204604FC3E1
:1002D400EB9FF5F0EA9E42F0E99D42F0E89C45F080
:1002E400603C501DE5825FFFE582D313CB5BCBF40A
:1002F4002B5582FB50280ABA002409B90020088033
:100304001DE5825BFBE582D313CF5FCFF4C3132FCC
:100314005582FF50090EBE00050DBD00010CC3EB54
:100324009FF5F0EA9E42F0E99D42F0E89C45F060BA
:0903340007CC4820E701B3EC22DC
:10033D0075F020800E75F010800575F0087D007E3B
:10034D00007F003392D530D50312078CEC3340106B
:10035D00EF33FFEE33FEED33FDEC33FCD5F0ED2244
:0E036D00E5F0247EA2D513CC92E7CDCEFF2280
:10087700E50D243BF582E43400F583E0050D229075
:10088700003830100390003BE475F0011207D702DF
:1008970005772009E97F2ED2098018EF540F24909D
:1008A700D43440D4FF300D0BEF24BFB41A005003EB
:1008B7002461FFE50E6002150E0511E511700205B2
:1008C7001030100E900038E475F0011207D7EF02D0
:1008D70005BD0227E17403D2108003E4C210F50DB1
:1008E7009000381207EEE4F50EF510F511E50E60ED
:1008F700077F201208BA80F5750FFFC20AC209C226
:100907000BC20CC20EC20FC211120886FF700D3047
:1009170010057F001208CBAF11AE1022B4255FC2BD
:10092700D5C20D120886FF24D0B40A00501A75F0FC
:100937000A780E30D50508B6FF0106C6A426F620AC
:10094700D5047002D20C80D924CFB41A00EF50041A
:10095700C2E5D20D020BBDD20A80C6D20980C0D231
:100967000B80BCD2D580BAD20E80B47F201208BAD1
:10097700200B077401B50E0040F1120877FF12082B
:10098700BA0208F4D211D20F8095120877FB120829
:1009970077FA120877F94A4B700679BB7A0C7BFF16
:1009A700200B2EE50E602A7E008E827583001205CD
:1009B7009060060EEE650F70F0C2D5EBC0E0EAC09E
:1009C700E0E9C0E0EE120C1ED0E0F9D0E0FAD0E08A
:1009D700FB120577FF60AAEBC0E0EAC0E0E9C0E0E0
:1009E7001208BAD0E02401F9D0E03400FAD0E0FBD5
:1009F700E50F0460DCD50FD98087D20B80A2120CDB
:100A07000060F7E50F7001041203C5A90F600DE53B
:100A17000F600914F50F120CA8EF60F3EA30E70234
:100A2700F404C3995079EAF4250F0430E701E4048C
:100A3700F50F800D120C0060C1EA050F250F120398
:100A4700C5EA900067F030E701E4250F04D50F04ED
:100A5700200E0114120C1EE4C0E0120CA8900067CF
:100A6700E0601320E70714F01208A2802204F0D0F8
:100A7700E014C0E07F001208A2E50F600712089992
:100A8700150F800B300E03120899D0E00208F4D03E
:100A9700E00480C4120C00609EE50F041203C590A9
:100AA7000067EAF0E50F200E026001042404120C2F
:010AB7001E20
:100AB80074FF04C0E0120CA81208A2E50F200E0271
:100AC8006003120899D0E0B50FE87F451208AC9092
:100AD8000067E07F2B30E7047F2DF404C0E01208A4
:100AE800BAD0E075F00A84C0F01208A3D0E012086A
:100AF800A30208F4791080027908C20FC211800895
:100B0800D2D5790A8004790AC2D5E50F047002F5B6
:100B18000FE4FAFDFEFF120877FC7B08200A131287
:100B28000877FD7B1030090A120877FE120877FF54
:100B38007B20EC3382D592D55013C3E43009069F4D
:100B4800FFE49EFEE4200A039DFDE49CFCE4CBF850
:100B5800C20AEC700CCFCECDCCE824F8F870F38044
:100B680017C3EF33FFEE33FEED33FDEC33FCEB330D
:100B7800FB994002FB0FD8E9EB300A05F8D0E0C436
:100B880048B20AC0E00AEC4D4E4F78207B0070C294
:100B9800EAB50F0040BCC0E0120C20D0F0D0E02035
:100BA8000A04C4C0E0C4B20AC0F01208A3D0F0D549
:100BB800F0EB0208F41207F70991530AFC5809628E
:100BC8004C095E420B004F0B08440B084909774358
:100BD8000B0E550A3B460A9B450A05470CDB500994
:100BE800662D096A2E098D2B096E23098B200CC4EA
:100BF8002A09264800000985E50FB4FF03750F068A
:100C0800120877FC120877FD120877FE120877FFA2
:100C1800900060020402790AA2D5200C14300E0953
:100C2800B910020404B9080104A2D5200F0250012A
:100C380004200B68920BB50E005034C0E07F2030C2
:100C48000C197F30A20B720F720E500F120C77C264
:100C58000BC20FC20EC2117F30800F300E03E9C0E5
:100C6800E01208BA300E03D0E0F9D0E0B50ECC306F
:100C78000E177F30B9100C1208BA7F58300D077F55
:100C8800788003B908031208BA300B057F2D0208D3
:100C9800BA7F202011F87F2B200FF322920B80CFF0
:100CA8007F00B40700500B2460F582E43400F5831C
:100CB800E0FF22286E756C6C2900D20A1208773082
:100CC8000AF8C20A780E30D50108F60209262D5016
:100CD8004349581208772403B405004001E4900CF6
:100CE800D6931208AB743A1208ABD20C750E0402F4
:020CF8000AFCF4
:10037B00E9D2E7C933E833F892D5EDD2E7CD33ECC8
:07038B0033FC5002B2D52241
:10039200EC30E7100FBF000C0EBE00080DBD0004CC
:1003A2000BEB6014A2D5EB13FCED92E7FD2274FF78
:1003B200FCFDFEFF22E480F8A2D574FF13FC7D80D1
:0303C200E480EFE5
:1003C500F920E73624F950037907E4F42402FBE524
:1003D50082158270021583DBF6E024FB501BE96071
:1003E50014E4F0E582158270021583E004F0B40A86
:0D03F50008E4F0D9EE7401F00A22C2D5220E
:10040200ED33EC3392D5FA602AB4FF33EDC2E77BC9
:10041200FF60067A047927E4227A04793020D50431
:100422007A04792B224E614E002B494E46002D490B
:100432004E4600E47A08F0A3DAFC7B00740722C07F
:1004420083C082ECC0E0EDC0E0EEC0E0EFC0E0EAC5
:1004520075F010A4CAABF075F04DA42BFBE435F097
:10046200FCEA2410FAEB34C5FBEC34D9FCEDC2E70C
:10047200FF75F056A4F42411C5F0F434C58FF0A42E
:100482002AE5F03BE43CF020E714120537D0E0FF08
:10049200D0E0FED0E0FDD0E0FC1202278014F4048C
:1004A200120537D0E0FFD0E0FED0E0FDD0E0FC1234
:1004B200011ED082D083E0FAEDD2E7CD33EC3324B3
:1004C20082FBE4C3CF33CFCE33CECD33CD33DBF398
:1004D2007B0775F00A846004F0A31B0AE5F0F0A321
:1004E2008FF0740AA4FFACF08EF0740AA42CFEAC58
:1004F200F050010C8DF0740AA42CFDE435F0F0A349
:05050200DBDE7407229E
:100507003F8000004120000042C80000447A0000FC
:10051700461C400047C35000497424004B1896807E
:100527004CBEBC205A0E1BCA6753C21C749DC5AE75
:10053700FB60065407601C2323120565EB543860E3
:100547000912055112056012011EECF8EDF9EEFAD9
:10055700EFCB22EB12056080F1543803241C900581
:1005670007FE93FC0EEE93FD0EEE930ECE93FF2245
:101E5200021AD5E493A3F8E493A34003F68001F2B7
:101E620008DFF48029E493A3F85407240CC8C33391
:101E7200C4540F4420C8834004F456800146F6DF60
:101E8200E4800B0102040810204080901956E47E81
:101E9200019360BCA3FF543F30E509541FFEE49355
:101EA200A360010ECF54C025E060A840B8E493A31C
:101EB200FAE493A3F8E493A3C8C582C8CAC583CA47
:101EC200F0A3C8C582C8CAC583CADFE9DEE780BEFF
:011A190000CC
:10057700BB010689828A83E0225002E722BBFE0282
:09058700E32289828A83E49322B5
:10059000BB010CE58229F582E5833AF583E0225020
:1005A00006E92582F8E622BBFE06E92582F8E2226A
:0D05B000E58229F582E5833AF583E4932284
:1005BD00BB010689828A83F0225002F722BBFE011D
:0205CD00F32217
:1005CF00BC000BBE0029EF8DF084FFADF022E4CC10
:1005DF00F875F008EF2FFFEE33FEEC33FCEE9DECD9
:1005EF00984005FCEE9DFE0FD5F0E9E4CEFD22ED1F
:1005FF00F8F5F0EE8420D21CFEADF075F008EF2F69
:10060F00FFED33FD4007985006D5F0F222C398FD59
:05061F000FD5F0EA22F6
:10062400C5F0F8A3E028F0C5F0F8E5821582700261
:060634001583E038F022FE
:10063A00A3F8E0C5F025F0F0E58215827002158373
:06064A00E0C838F0E822D0
:10065000BB010A89828A83F0E5F0A3F0225006F7F5
:0F06600009A7F01922BBFE06F3E5F009F31922F2
:10066F00E88FF0A4CC8BF0A42CFCE98EF0A42CFC2A
:10067F008AF0EDA42CFCEA8EF0A4CDA8F08BF0A4A8
:10068F002DCC3825F0FDE98FF0A42CCD35F0FCEB07
:10069F008EF0A4FEA9F0EB8FF0A4CFC5F02ECD39CC
:0F06AF00FEE43CFCEAA42DCE35F0FDE43CFC2239
:1006BE0075F008758200EF2FFFEE33FECD33CDCCF3
:1006CE0033CCC58233C5829BED9AEC99E582984076
:1006DE000CF582EE9BFEED9AFDEC99FC0FD5F0D653
:1006EE00E4CEFBE4CDFAE4CCF9A88222B800C1B97D
:1006FE000059BA002DEC8BF084CFCECDFCE5F0CBBB
:10070E00F97818EF2FFFEE33FEED33FDEC33FCEBF3
:10071E0033FB10D703994004EB99FB0FD8E5E4F9AE
:10072E00FA227818EF2FFFEE33FEED33FDEC33FC9B
:10073E00C933C910D7059BE99A4007EC9BFCE99A8F
:10074E00F90FD8E0E4C9FAE4CCFB2275F010EF2FD4
:10075E00FFEE33FEED33FDCC33CCC833C810D707D4
:10076E009BEC9AE899400AED9BFDEC9AFCE899F80F
:0E077E000FD5F0DAE4CDFBE4CCFAE4C8F922A2
:0E078C00C3E49FFFE49EFEE49DFDE49CFC227E
:0C079A00ECF0A3EDF0A3EEF0A3EFF022D2
:1007A600A8828583F0D083D0821207BD1207BD12BE
:1007B60007BD1207BDE473E493A3C583C5F0C583E3
:1007C600C8C582C8F0A3C583C5F0C583C8C582C89D
:0107D6002200
:1007D700F8E0FBA3A3E0F925F0F0E58215827002AB
:0707E7001583E0FA38F0224F
:0907EE00EBF0A3EAF0A3E9F0220C
:1007F700D083D082F8E4937012740193700DA3A391
:1008070093F8740193F5828883E4737402936860A4
:06081700EFA3A3A380DFA4
:10081D00D083D082F8E4937012740193700DA3A36A
:10082D0093F8740193F5828883E473740293B5F0A1
:0D083D00067403936860E9A3A3A3A380D809
:10084A00EC8EF0A4CCC5F0CCCDF8EFA4CEC5F02D3B
:10085A00FDE43CFCE8A42EC8C5F03DFDE43CFCEFF9
:0D086A00A4FFE5F028FEE43DFDE43CFC2287
:00000001FF
