:03000000021CEAF5
:0C1CEA00787FE4F6D8FD758122021D31E0
:1017EE00206B65795F7363616E0D0A00204B45595E
:1017FE005F325F505245530D0A0052203D20256640
:10180E0020200D0A0074656D702076616C3A256497
:10181E00200D0A0063616C695F74656D70207661DE
:10182E006C3A2564200D0A000D0A3D3D3D3D3D3DBF
:10183E003D3D3D3D3D3D3D3D3D3D3D3D3D3D3D3DCA
:10184E003D3D3D3D3D3D3D3D3D3D3D3D0D0A007324
:10185E006B753A4B2564200D0A00736F6674207603
:10186E00657273696F6E3A2573200D0A00312E3042
:10187E00332E303000676170202564200D0A00740D
:10188E00696D6572202564200D0A003D3D3D3D3D8C
:10189E003D3D3D3D3D3D3D3D3D3D3D3D3D3D3D3D6A
:1018AE003D3D3D3D3D3D3D3D3D3D3D3D3D0D0A00FA
:101B9A004200B900004100BB004100B8004100B753
:011BAA00003A
:1024F000758E5390FE917401F090FF027410F022DB
:1011A300E4900000F09000B8E0700A121E8A9000EC
:1011B30000EFF08005E4900000F0900000E064018F
:1011C30070639000B6E0705D7BFF7A1779EE1208CA
:1011D300E212253EEF700D7F011225441223F4E441
:1011E300FF02247FE4FF122544121E009000A3E0B7
:1011F300FFD394034016A3E0FE70059000A280097C
:10120300EED3940340069000957402F09000BB74F3
:1012130001F0121F019000A3E0FF1216139000A427
:10122300E0FF021D7612253EEF60030212D190000B
:1012330000E0640270507BFF7A1779FA1208E2909B
:1012430000A3E0C394095005E004F080069000A3D6
:101253007401F09000A3E0FFD394034016A3E0FED3
:1012630070059000A28009EED39403400690009588
:101273007402F09000BB7401F0121F019000A3E010
:10128300FF1216138045900000E064037040900045
:10129300A4E0C394055005E004F08005E49000A4A5
:1012A300F09000A3E0D394034016A3E0FF700590F1
:1012B30000A28009EFD3940340069000957402F0D6
:0E12C3009000A4E0FF121D76121E0012232DD3
:0112D10022FA
:0818BE00900006EEF0A3EFF02C
:1018C600900091E06402706A9000B6E06401706274
:1018D600900006A3E0FFE4900091F09000A704F0CA
:1018E600900072E0FED3940F4048EED39F400CE088
:1018F6009F9000A5F0A37401F08016900072E0FEA0
:10190600C3EF9EFF9000A5F01225299000A6740251
:10191600F09000A5E0FFC394024006EFD394144074
:1019260007E49000A5F0A3F012232D7D027F02129A
:1019360023B79000A6E0FDB401149000A5E0FF7E59
:1019460000900006EE8FF0120624AFF0FE22EDB4F2
:1019560002189000A5E0FFC3900007E09FFF9000EB
:1019660006E09400FEF0A3EFF022900006E0FEA34E
:02197600E0FF90
:01197800224C
:100CFA00900008ECF0A3EDF0900006EEF0FAA3EFF6
:020D0A00F0FBFC
:100D0C00E490000AF0A37432F0A3740AF0A3120763
:100D1C00A600000000C3EB9432EA94004016900049
:100D2C0008E0FEA3E0FF900006E0FCA3E0FDD39FEB
:100D3C00EC9E4003020DD3E4120342E4FBFA797AF1
:100D4C007844120227C004C005C006C007900008F2
:100D5C00E0FCA3E0FDE4120342E4FBFA797A784468
:100D6C00120227D003D002D001D000120029C004F7
:100D7C00C005C006C007900006E0FCA3E0FDE4122D
:100D8C000342E4FBFA797A7844120227E4FBFA79FD
:100D9C00FF7843120227A804A905AA06AB07D007BF
:100DAC00D006D005D00412022790000D12079AE449
:100DBC00FFFEFDFC90000DE0F8A3E0F9A3E0FAA320
:100DCC00E0FB1202C450057E007FFF227BFF7A18E5
:100DDC00790890000DE0FCA3E0FDA3E0FEA3E0FF8A
:100DEC0090004412079A1208E290000DE0FCA3E078
:100DFC00FDA3E0FEA3E0FFE4FBFAF9784112022721
:100E0C0090000D12079AE4FFFE7D927C4290000D3B
:100E1C00E0F8A3E0F9A3E0FAA3E0FB1202C450044B
:100E2C00E4FEFF2290000DE0FCA3E0FDA3E0FEA396
:100E3C00E0FF7BF37A1F79B6784212022790000DFF
:100E4C0012079A7FF37E1F7DB67C4290000DE0F86E
:100E5C00A3E0F9A3E0FAA3E0FB12011E7BF37A1FD7
:100E6C0079B678421202C4504C90000DE0FCA3E01D
:100E7C00FDA3E0FEA3E0FF7B497A9D7980783F12C9
:100E8C00022790000D12079A90000AE004F0E4FF8C
:100E9C00FE7D807C3F90000DE0F8A3E0F9A3E0FA22
:100EAC00A3E0FB1202C4600250BF90000AE0FFA353
:100EBC00E02FF0804E90000DE0FCA3E0FDA3E0FEDF
:100ECC00A3E0FF7B6D7AC5797E783F1202279000F4
:100EDC000D12079A90000AE004F0E4FFFE7D807C7E
:100EEC003F90000DE0F8A3E0F9A3E0FAA3E0FB12B9
:100EFC0002C440C190000BE0FF90000AE0FEC3EF7B
:0A0F0C009EA3F090000BE0FF7E00B2
:010F160022B8
:100F1700E4900000F0A3F0A3F0A3F0A3F0A3F090F7
:100F270000BAE004F070069000B9E004F0D3900036
:100F3700BAE094109000B9E094275003021063E4DC
:100F4700F0A3F07B0190000904F0A37400F0A374F0
:100F570004F07A0079021212D2900002E0FEA3E0B8
:100F6700FFA3E0FCA3E0FD120CFA900000EEF0A353
:100F7700EFF07BFF7A187913900044EEF0A3EFF0BF
:100F87001208E2900000E0FEA3E0FF1218BE9000F6
:100F970000EEF0A3EFF07BFF7A187922900044EE81
:100FA700F0A3EFF01208E2D3900003E09432900030
:100FB70002E09400500302104212253EEF704D905C
:100FC70000BBE0B40129E4F0D3900001E094329033
:100FD7000000E0940090009874024009F090009F90
:100FE700740CF0800AF090009914F090009FF09034
:100FF70000A4E0FF121D769000A3E0FF12161390E5
:101007000000E0FEA3E0FF121AE780299000B6E097
:10101700B40118E4FF12247F1223F49000A3E0FF29
:101027001216139000BD7401F0800AE4FF12247FAA
:101037007F04122449E49000B8F022E49000B6F04F
:101047009000BDF01223F4E4FF12247F9000B774E0
:0C105700FFF0FF1216139000B87401F0B7
:01106300226A
:101C48001224F01222B5122464D2AF12000E12240C
:101C5800AE1210647FC87E001223751223067F20FF
:101C68007E031224977F0212251CE4FF12247F7B37
:101C7800FF7A1879361208E27BFF7A18795D9000AE
:101C8800447423F0A37433F01208E290004474FF04
:101C9800F0A37418F0A3747BF07BFF7A18796812AC
:101CA80008E27BFF7A1879839000A3E0FF90004454
:101CB800E4F0A3EFF01208E27BFF7A18798D900028
:101CC800A4E0FF900044E4F0A3EFF01208E27BFFE9
:101CD8007A1879991208E21211A3120F1712255ACD
:021CE80080F585
:1021AF00900008EEF0A3EFF0A3ECF0A3EDF0D39FB7
:1021BF00EC9E4004E4FF802290009FE0FFC390005C
:1021CF0009E09FFF900008E09400FEC390000BE031
:0E21DF009F90000AE09E50057F0A12247F2286
:101AE700900006EEF0A3EFF0900099E0B401030236
:101AF7001B8A9000A3E0B40A004003021B99901BC5
:101B07000CF8282873021B2A021B36021B42021BF1
:101B17004E021B5A021B66021B72021B7E021B7EB1
:101B2700021B8A900006E0FCA3E0FD7F1E805E900A
:101B37000006E0FCA3E0FD7F2B8052900006E0FC4E
:101B4700A3E0FD7F328046900006E0FCA3E0FD7F26
:101B570036803A900006E0FCA3E0FD7F3B802E90A4
:101B67000006E0FCA3E0FD7F418022900006E0FC38
:101B7700A3E0FD7F468016900006E0FCA3E0FD7F12
:101B87004B800A900006E0FCA3E0FD7F507E001228
:031B970021AF2259
:10239700900094E0B401189000A3E0D39403400F99
:1023A7007403F0FF12161312232DE4900094F02209
:10150D000D0A3D3D3D3D3D3D3D3D3D3D3D3D3D3D61
:10151D003D3D3D3D3D3D3D3D3D3D3D3D3D3D3D3DEE
:10152D003D3D3D3D3D3D3D3D3D3D0D0A00706F77DF
:10153D006572206F6E20666C617368206761703A0A
:10154D002564202074696D65723A2564200D0A00AA
:10155D00706F776572206F6E20666C617368207690
:10156D00616C75653A256420207369676E3A256450
:10157D00200D0A003D3D3D3D3D3D3D3D3D3D3D3D4B
:10158D003D3D3D3D3D3D3D3D3D3D3D3D3D3D3D3D7E
:10159D003D3D3D3D3D3D3D3D3D3D3D3D0D0A003D0E
:1015AD003D3D3D3D3D3D3D3D3D3D3D3D666972739E
:1015BD007420696E697420646174613D3D3D3D3DEB
:1015CD003D3D3D3D3D3D200D0A00307825303458E0
:1015DD00202030782530345820203078253034586C
:1015ED002020307825303458200D0A00666C617348
:1015FD0068206761703A2564202074696D65723AC0
:06160D002564200D0A0017
:101BAB004500A300000000004400A82020050141CF
:031BBB0000AC017A
:06253E009000ACE0FF225A
:062544009000ACEFF02254
:10235300D310AF01C3C0D075FDF075FC0F8EFA8F9B
:10236300F975FDD275FC2D75FDE175FC1ED0D0927B
:02237300AF2297
:1022DE00D310AF01C3C0D08FFB75FDF075FC0FAEF0
:1022EE0004AF058EFA8FF975FDB475FC4B75FDE1E3
:0822FE0075FC1ED0D092AF2246
:0C1F76007B017A0079A37D057F047E3C8E
:101F8200D310AF01C3C0D0900008EEF0A3EFF0A3CE
:0B1F9200EDF0A3EBF0A3EAF0A3E9F0F0
:101F9D00E4A3F0C2AFF090000AE0FF90000EE0C3A2
:101FAD009F502C90000BE0FBA3E475F00112063A54
:101FBD00A9F0FA120577FF900008E475F0011206FA
:101FCD003AADF0FC1222DE90000EE004F080C7D294
:011FDD00AF54
:051FDE00D0D092AF22FB
:040003008F828E83D7
:03000700E493FF80
:01000A0022D3
:1020F100900008EEF0A3EFF0A3EBF0A3EAF0A3E960
:10210100F0AF051DEF6028900008E475F00112069C
:102111003A85F082F583E493FF90000AE0FBA3E4A3
:1021210075F00112063AA9F0FAEF1205BD80D2222C
:10222900E4FDFCED2400FFE4343CFE12000374A835
:102239002DF582E43400F583E0B507030C80037FB4
:1022490000220DEDB404DCECC3940440037F0122A9
:022259007F0004
:01225B002260
:10106400E4900000F090FE927404F0122229EF70D4
:101074000790000004F0807C7BFF7A15790D12083C
:10108400E27B017A0079A37D057F047E3C1220F186
:101094007BFF7A15793A9000A3E0FF900044E4F0D6
:1010A400A3EFF09000A4E0FF900046E4F0A3EFF07B
:1010B4001208E27BFF7A15795D9000A5E0FF9000AD
:1010C40044E4F0A3EFF09000A6E0FF900046E4F0C3
:1010D400A3EFF01208E27BFF7A1579811208E290FF
:1010E40000A3E0D394095006A3E0940540069000C1
:1010F400007401F0900000E0640160030211807B41
:10110400FF7A1579AC1208E29000A37401F0A3747D
:1011140003F07F007E3C1223537B017A0079A87D83
:1011240004121F82121F767B017A0079A87D047F46
:10113400007E3C1220F17BFF7A1579D79000A8E05D
:10114400FF900044E4F0A3EFF09000A9E0FF9000CA
:1011540046E4F0A3EFF09000AAE0FF900048E4F02A
:10116400A3EFF09000ABE0FF90004AE4F0A3EFF0AF
:101174001208E27BFF7A1579811208E27BFF7A1567
:1011840079F99000A3E0FF900044E4F0A3EFF0901D
:0F11940000A4E0FF900046E4F0A3EFF00208E2B1
:10232D007F047E3C1223537B017A0079A87D047FC4
:10233D0000121F82121F767B017A0079A37D057F23
:06234D00047E3C0220F1B9
:0E250000EF1F70011E144E6004000080F322D5
:102497007DA07C01ED1D70011C144C70F7EF1F70BF
:0624A700011E144E70EA54
:0124AD00220C
:03255E0002250053
:10242E0090FF0974C1F090FF08F090FF07F090FF45
:0B243E0006F0D291D290D287D2862205
:08213100900044EFF0A3EDF073
:10213900E4A3F0F0900045E0FFA3E0C39F5027C25D
:1021490087900044E020E704C2868002D286D287C5
:102159007F057E0012255E900044E025E0F09000A6
:0621690046E004F080CE08
:01216F00224D
:08217000900044EFF0A3EDF034
:10217800E4A3F0F0900045E0FFA3E0C39F5027C21E
:1021880087900044E020E004C2868002D286D2878D
:102198007F057E0012255E900044E0C313F0900096
:0621A80046E004F080CEC9
:0121AE00220E
:10244900900007EFF0C2917D047F80122131900046
:0B24590007E0FF7D08122131D2912224
:10228900900042EFF0A3EDF0C2917D037FA01221EF
:1022990031900042E025E025E0FF7D0612213190D2
:0C22A9000043E0FF7D04122170D291225E
:09253500D291D290D287D2862205
:081BBE004100BC004100BD0024
:052550007F0602244992
:052555007F040224498F
:1023D600E4900000F0F0900000E0FFC39420500D60
:0D23E6007D0F122289900000E004F080E9D4
:0123F30022C7
:1023F400E4900041F0F0900041E0FFC39420500DC0
:0D240400E4FD122289900041E004F080E91F
:0124110022A8
:1023060012242E7F521224497F301224497F0A124A
:1023160024497F081224497F021224497F06122489
:07232600491223F40223D643
:0E250E00E4FD7F1C122289E4FD7F1F0222895A
:101D7600900006EFF07F06122449E4FD7F1F122231
:101D860089E4FD7F1C122289900006E014601B1472
:101D9600602314602B14603A1460492405705A7D40
:101DA6000A7F1B1222897D0E80317D0B7F1B12223A
:101DB600897D0A80267D0E7F1B1222897D0A801B63
:101DC6007D0A7F1B1222897D0A7F1C1222897D0BC8
:101DD60080227D0A7F1B1222897D0B7F1C1222899D
:101DE6007D0A80107D0A7F1B1222897D0A7F1C12C4
:0A1DF60022897D0E7F1F1222892230
:10161300900006EFF07F06122449E4FD7F1D12229D
:1016230089E4FD7F1E1222899000BDE06401700EE3
:101633009000BCE070057D060216EA0216FD9000DC
:1016430006E0B401047D068063900006E0B4020B5B
:101653007D0B7F1D1222897D0C8065900006E0B40E
:10166300030B7D0F7F1D1222897D0480539000069A
:10167300E0B4040B7D067F1D1222897D0680419014
:101683000006E0B4050B7D0D7F1D1222897D0680C7
:101693002F900006E0B4060B7D0D7F1D1222897D7D
:1016A3000E801D900006E0B407067D077F1D80595C
:1016B300900006E0B4080D7D0F7F1D1222897D0E78
:1016C3007F1E8045900006E0B4090D7D0F7F1D123B
:1016D30022897D067F1E8031900006E0F4702D90F4
:1016E30000BCE070157D017F1D1222897D0E7F1ED7
:1016F3001222899000BC7401F022E49000BCF0FD3A
:0D1703007F1C122289E4FD7F1F1222892223
:101BC6005E0073000000000000000000000000003E
:101BD60000000000000000000000000000000000FF
:091BE60000410091004100720071
:1022B50090FF0E74C1F090FF0F7461F090FFA07451
:1022C50016F090FFA104F075CEFF75CDE675CC062E
:0922D500759E02759810D2AC222E
:0C252900C2AC8F993099FDC299D2AC224F
:0325610002252927
:0B225C0090000DEBF0A3EAF0A3E9F006
:10226700E4FEEEC39D501A90000DE0FBA3E0FAA335
:10227700E0F98E82758300120590FF1225610E80AA
:01228700E175
:012288002233
:1023B7009000087455F0A3EFF0A3EDF0A3740DF0AF
:0F23C700A3740AF07B017A0079087D0502225C7D
:06254A00AE071225292254
:030023000220A414
:0D20A400C0E0C083C082C0D075D000C0076E
:1020B100E59830E030AF995398FE900091E01460BC
:1020C10019047021EFB4551D900073F0900071E078
:1020D10004F09000917401F0800B900072EFF09089
:0520E10000917402F003
:0B20E600D007D0D0D082D083D0E032F1
:101BEF004100B6004100AD004200AE00004100B020
:0F1BFF00004200B100004100B3014200B40000F9
:10000E0090FF1D7461F090FF15F090FF16F090FFB9
:03001E0002F022CB
:10197900E4900002F0A2A533900001F09000ADE0E0
:1019890014602614604E147003021A1C24036003A9
:10199900021A25900001E06003021A2A9000AEF0B5
:1019A900A3F09000AD04F08078900001E0706B9096
:1019B90000AFE004F070069000AEE004F0C39000C0
:1019C900AFE094039000AEE09400403E9000AD7407
:1019D90002F08036900001E0B40106A37404F0809F
:1019E9003B9000AFE004F070069000AEE004F0C355
:1019F9009000AFE094789000AEE09400400C900025
:101A0900027405F09000AD7403F07F0A7E00122481
:101A190097800E900001E0B401078000E49000ADCA
:061A2900F0900002E0FF56
:011A2F002294
:101A3000E4900002F0A2A633900001F09000B0E024
:101A400014602614604E147003021AD3240360033A
:101A5000021ADC900001E06003021AE19000B1F08C
:101A6000A3F09000B004F08078900001E0706B90DB
:101A700000B2E004F070069000B1E004F0C3900002
:101A8000B2E094039000B1E09400403E9000B07446
:101A900002F08036900001E0B40106A37404F080E7
:101AA0003B9000B2E004F070069000B1E004F0C397
:101AB0009000B2E094F09000B1E09400400C9000EF
:101AC000027406F09000B07403F07F0A7E001224C6
:101AD00097800E900001E0B401078000E49000B010
:061AE000F0900002E0FF9F
:011AE60022DD
:101E8A00121979BF05037F0122121A30BF061A12EE
:101E9A00253EBF010D9000A7E070079000B604F040
:101EAA00803CE49000B6F080359000B3E0602330C7
:101EBA00A60320B51D9000B6E070177F32FE1224EB
:101ECA0097E49000B3F020A6037F032220B50F7F8A
:101EDA00022230A60930B5069000B37401F030A58D
:101EEA0013D39000B5E094019000B4E0940040044C
:061EFA00E4F0A3F07F00FC
:011F000022BE
:101710007365742074696D65207365636F6E643AD8
:1017200025640D0A0065786368616E67655F6865AA
:1017300061745F76616C7565200D0A0074696D6572
:10174000207365636F6E643A2564200D0A00707221
:101750006F74656374200D0A0074696D65206F668F
:1017600066200D0A0074696D655F746F5F302E35F9
:1017700048202074696D655F7365633D2564200DA5
:101780000A0074696D655F746F5F31482020746969
:101790006D655F7365633D2564200D0A0074696D96
:1017A000655F746F5F3248202074696D655F736593
:1017B000633D2564200D0A0074696D655F746F5F79
:1017C0003448202074696D655F7365633D2564202E
:1017D0000D0A0074696D655F746F5F38482020746E
:0E17E000696D655F7365633D2564200D0A0029
:101C0E0041009E0042009C00004200A000004100E6
:101C1E009400410095004100A20041009F00410048
:101C2E009800420096000042009A00004200920086
:051C3E000041009900C7
:1024120090009CEEF0A3EFF0E4A3F07BFF7A177933
:0C24220010900044EEF0A3EFF00208E27E
:101F0100EFB40A00506E901F0EF8282873021F2CA0
:101F1100021F36021F38021F3A021F44021F4E02DF
:101F21001F58021F62021F6C021F6C900092E4F0A6
:101F3100A3741EF02280028000900092E4F0A3744A
:101F41003CF022900092E4F0A3745AF022900092A7
:101F5100E4F0A37478F022900092E4F0A37496F078
:101F610022900092E4F0A374B4F022900092E4F085
:051F7100A374F0F02252
:10204D009000A3E0B40A00504D90205DF82828734D
:10205D0002207B02207D02208402208602208D0238
:10206D00208F02209602209D02209D02209D80003F
:10207D0090009F7401F022800090009F7403F02265
:10208D00800090009F7405F02290009F7408F0224C
:07209D0090009F740CF0227B
:1021ED00900098E0B40234900096E475F001120668
:1021FD0024FEC3900093E095F0900092E09E501B5A
:10220D007BFF7A1779251208E2E4900098F0900090
:0C221D0096F0A3F0900099F012204D22E2
:101E0000E490009EF09000A4E0FF700890009CF029
:101E1000A3F08052EFB4010C90009C7407F0A3046F
:101E2000F0E48042EFB4020D90009C740EF0A374B5
:101E300010F0E48031EFB4030D90009C741CF0A30B
:101E40007420F0E48020EFB4040D90009C7438F00E
:101E5000A37440F0E4800FEFB4051790009C7470F9
:101E6000F0A37480F0E49000A0F0A3F090009AF04A
:101E7000A3F07BFF7A17793C90009CE0FFA3E090F1
:0A1E80000044CFF0A3EFF00208E2E7
:1024AE00E490FE80F0F589758CF2758AFBC28DD2B0
:0624BE00A9D28CD2AF226E
:03000B000213FEDF
:1013FE00C0E0C0F0C083C082C0D075D000C000C0B5
:10140E0001C002C003C004C005C006C00712253EBD
:10141E00EF60030214F290009EE004F0E0C39464C7
:10142E0050030214F21221ED9000A2E0B4022D90AE
:10143E0000A1E004F070069000A0E004F0D390004C
:10144E00A1E094209000A0E0941C40109000A2E433
:10145E00F09000A0F0A3F090009404F0D390009DC3
:10146E00E0940090009CE094004048A3E024FFF03C
:10147E0090009CE034FFF0900095E0640270609064
:10148E0000A1E004F070069000A0E004F0D39000FC
:10149E00A1E094209000A0E0941C4043900094742E
:1014AE0001F0A3E4F09000A0F0A3F07BFF7A17798F
:1014BE004E80299000A4E060267F01122544900002
:1014CE009CE4F0A3F09000A0F0A3F0900095F090B3
:1014DE0000A2F01223F47BFF7A1779591208E290DA
:1014EE00009EE4F0D007D006D005D004D003D00281
:0F14FE00D001D000D0D0D082D083D0F0D0E03257
:101FE30090009AE475F001120624FEE5F08EF012DB
:101FF300081D200D070820150E10201D1C2020256C
:102003003840202D70800000204C7BFF7A177965C3
:10201300801E7BFF7A17798280167BFF7A17799D62
:10202300800E7BFF7A1779B880067BFF7A1779D306
:1020330090009CE0FFA3E0900044CFF0A3EFF012E8
:0A20430008E2E490009AF0A3F022F6
:041C43004100BE009E
:10247F007E009000BEE0FD7C0012084AE47B64FA07
:07248F00F9F81206FA8FDFD5
:012496002223
:1023750090FF0074C1F0E490FF9CF0AC06AD077EC1
:102385007A7F121205CFEF149000BEF0F5DE75DDF1
:0223950097228D
:1024640090FF017401F090FF03F075B4807F147E37
:0B2474000012250090FE9B7449F0222E
:1024C400E4FFFE75B50143B440E5B430E5FB53B415
:0524D400DFAEB7AFB65A
:0124D90022E0
:1024DA00E4FFFE75B50343B440E5B430E5FB53B4FD
:0524EA00DFAEB7AFB644
:0124EF0022CA
:0B12D200900006EBF0A3EAF0A3E9F0A7
:1012DD0090000C1207A600000000E4900010F0F042
:1012ED0090000CE0F8A3E0F9A3E0FAA3E0FB1224D0
:1012FD00C4E4FCFDEB2FFFEA3EFEED39FDEC38FCBE
:10130D0090000C12079A900010E004F0E0C39405D1
:10131D0040CE90000CE0FCA3E0FDA3E0FEA3E0FFB7
:10132D00E47B05FAF9F81206FA90000C12079AE41C
:10133D007F887E13FDFC90000CE0F8A3E0F9A3E09C
:10134D00FAA3E0FB12066FE4FB7A10F9F81206FA25
:10135D00900006E0FBA3E0FAA3E0F9EE8FF0120691
:10136D005090000C1207A600000000E4900010F051
:10137D0090000CE0F8A3E0F9A3E0FAA3E0FB12243F
:10138D00DAE4FCFDEB2FFFEA3EFEED39FDEC38FC17
:10139D0090000C12079A900010E004F0E0C3940541
:1013AD0040CE90000CE0FCA3E0FDA3E0FEA3E0FF27
:1013BD00E47B05FAF9F81206FA90000C12079AE48C
:1013CD007F887E13FDFC90000CE0F8A3E0F9A3E00C
:1013DD00FAA3E0FB12066FE4FB7A10F9F81206FA95
:1013ED00900009E0FBA3E0FAA3E0F9EE8FF002060E
:0113FD00509F
:0D251C0075BD17EF75F02BA490FEA0F02206
:04255A0043BD10224B
:100026000203B0E86480F8E933E83360110460F055
:10003600ED33EC337009E8FCE9FDEAFEEBFF220440
:1000460060DED3EB9FEA9EE99DE8C2E78CF0C2F73B
:1000560095F0400CE8CCF8E9CDF9EACEFAEBCFFB07
:1000660012037B85D0F05804700320D5B3E80470E2
:10007600075002B2D50203BA92D5EC0460F7E4CC7D
:10008600C0E0C398F8603B94186008400DD0E0FBD0
:10009600020392E4FBFAC9FC8028E830E406E4C9CE
:1000A600FBE4CAFCE830E305E4C9CACBFCE8540724
:1000B6006010F8C3E913F9EA13FAEB13FBEC13FC2F
:1000C600D8F130F52FC3E49CFCEF9BFFEE9AFEEDD2
:1000D60099FDD0E0FBEF4E4D4C701222DB0302037C
:1000E600B7EC2CFCEF33FFEE33FEED33FDED30E7DE
:1000F600EB020392EF2BFFEE3AFEED39FDD0E0FB6B
:1001060050130BBB00030203BAED13FDEE13FEEF13
:0801160013FFEC13FC0203923D
:10011E00EC4D6011E8497017ED33EC3304600DE4DB
:10012E00FCFFFEFD22E933E8330470F80203B0123F
:10013E00037B58046009E4CC248150062850090240
:10014E0003BA2840030203B7C0E0EB4A7044B980FB
:10015E0006D0E0FB0203A6EF4E701CBD8008EBFF3D
:10016E00EAFEE9FD80EBE98DF0A4FEE5F002020760
:10017E00E9CDF9EAFEEBFFEF89F0A4FCE5F0CE89BC
:10018E00F0A42EFFE435F0CD89F0A42DFEE435F079
:10019E008067EF4E7005BD80D780C3EF8BF0A4ACA7
:1001AE00F0EE8BF0A42CFCE435F0F8EF8AF0A42CE2
:1001BE00E5F038FCE433CB8DF0A42CFCE5F03BF8F5
:1001CE00EE8AF0A42CFCE5F038F8E433CF89F0A4E5
:1001DE002CFCE5F038CF3400CE89F0A42FFFE5F0EB
:1001EE003EFEE433C98DF0A42EFEE5F039CD8AF043
:1001FE00A42FFFE5F03EFEE43DFD33D0E0FB5007BB
:10020E000BBB000F0203BAEC2CFCEF33FFEE33FEF8
:06021E00ED33FD02039226
:100224000203BAEC5D046005E8590470030203B0EC
:1002340012037B580460F6EC4860F2EC7004FDFE97
:10024400FF22C860DB2481C85009C39860025006AD
:100254000203B79850CAF582E9294B4A7005AB826C
:100264000203A675F0007C1A7880C3EF9BEE9AED2A
:1002740099400DC3EF9BFFEE9AFEED99FDE842F025
:10028400DC23ACF0D0E0FFD0E0FED0E0FDAB822078
:10029400E7101BEB60BAEC2CFCEF33FFEE33FEED02
:1002A40033FD020392E803F830E705C0F075F0006F
:1002B400EF2FFFEE33FEED33FD40B830E7C280AAE6
:1002C40074F8CC6480CCC86480C8F58204604FC3E1
:1002D400EB9FF5F0EA9E42F0E99D42F0E89C45F080
:1002E400603C501DE5825FFFE582D313CB5BCBF40A
:1002F4002B5582FB50280ABA002409B90020088033
:100304001DE5825BFBE582D313CF5FCFF4C3132FCC
:100314005582FF50090EBE00050DBD00010CC3EB54
:100324009FF5F0EA9E42F0E99D42F0E89C45F060BA
:0903340007CC4820E701B3EC22DC
:10033D0075F020800E75F010800575F0087D007E3B
:10034D00007F003392D530D50312078CEC3340106B
:10035D00EF33FFEE33FEED33FDEC33FCD5F0ED2244
:0E036D00E5F0247EA2D513CC92E7CDCEFF2280
:10087700E50D2444F582E43400F583E0050D22906C
:100887000041301003900044E475F0011207D702CD
:1008970005772009E97F2ED2098018EF540F24909D
:1008A700D43440D4FF300D0BEF24BFB41A005003EB
:1008B7002461FFE50E6002150E0511E511700205B2
:1008C7001030100E900041E475F0011207D7EF02C7
:1008D70005BD02254A7403D2108003E4C210F50D4A
:1008E7009000411207EEE4F50EF510F511E50E60E4
:1008F700077F201208BA80F5750FFFC20AC209C226
:100907000BC20CC20EC20FC211120886FF700D3047
:1009170010057F001208CBAF11AE1022B4255FC2BD
:10092700D5C20D120886FF24D0B40A00501A75F0FC
:100937000A780E30D50508B6FF0106C6A426F620AC
:10094700D5047002D20C80D924CFB41A00EF50041A
:10095700C2E5D20D020BBDD20A80C6D20980C0D231
:100967000B80BCD2D580BAD20E80B47F201208BAD1
:10097700200B077401B50E0040F1120877FF12082B
:10098700BA0208F4D211D20F8095120877FB120829
:1009970077FA120877F94A4B700679BB7A0C7BFF16
:1009A700200B2EE50E602A7E008E827583001205CD
:1009B7009060060EEE650F70F0C2D5EBC0E0EAC09E
:1009C700E0E9C0E0EE120C1ED0E0F9D0E0FAD0E08A
:1009D700FB120577FF60AAEBC0E0EAC0E0E9C0E0E0
:1009E7001208BAD0E02401F9D0E03400FAD0E0FBD5
:1009F700E50F0460DCD50FD98087D20B80A2120CDB
:100A07000060F7E50F7001041203C5A90F600DE53B
:100A17000F600914F50F120CA8EF60F3EA30E70234
:100A2700F404C3995079EAF4250F0430E701E4048C
:100A3700F50F800D120C0060C1EA050F250F120398
:100A4700C5EA900070F030E701E4250F04D50F04E4
:100A5700200E0114120C1EE4C0E0120CA8900070C6
:100A6700E0601320E70714F01208A2802204F0D0F8
:100A7700E014C0E07F001208A2E50F600712089992
:100A8700150F800B300E03120899D0E00208F4D03E
:100A9700E00480C4120C00609EE50F041203C590A9
:100AA7000070EAF0E50F200E026001042404120C26
:010AB7001E20
:100AB80074FF04C0E0120CA81208A2E50F200E0271
:100AC8006003120899D0E0B50FE87F451208AC9092
:100AD8000070E07F2B30E7047F2DF404C0E012089B
:100AE800BAD0E075F00A84C0F01208A3D0E012086A
:100AF800A30208F4791080027908C20FC211800895
:100B0800D2D5790A8004790AC2D5E50F047002F5B6
:100B18000FE4FAFDFEFF120877FC7B08200A131287
:100B28000877FD7B1030090A120877FE120877FF54
:100B38007B20EC3382D592D55013C3E43009069F4D
:100B4800FFE49EFEE4200A039DFDE49CFCE4CBF850
:100B5800C20AEC700CCFCECDCCE824F8F870F38044
:100B680017C3EF33FFEE33FEED33FDEC33FCEB330D
:100B7800FB994002FB0FD8E9EB300A05F8D0E0C436
:100B880048B20AC0E00AEC4D4E4F78207B0070C294
:100B9800EAB50F0040BCC0E0120C20D0F0D0E02035
:100BA8000A04C4C0E0C4B20AC0F01208A3D0F0D549
:100BB800F0EB0208F41207F70991530AFC5809628E
:100BC8004C095E420B004F0B08440B084909774358
:100BD8000B0E550A3B460A9B450A05470CDB500994
:100BE800662D096A2E098D2B096E23098B200CC4EA
:100BF8002A09264800000985E50FB4FF03750F068A
:100C0800120877FC120877FD120877FE120877FFA2
:100C1800900069020402790AA2D5200C14300E094A
:100C2800B910020404B9080104A2D5200F0250012A
:100C380004200B68920BB50E005034C0E07F2030C2
:100C48000C197F30A20B720F720E500F120C77C264
:100C58000BC20FC20EC2117F30800F300E03E9C0E5
:100C6800E01208BA300E03D0E0F9D0E0B50ECC306F
:100C78000E177F30B9100C1208BA7F58300D077F55
:100C8800788003B908031208BA300B057F2D0208D3
:100C9800BA7F202011F87F2B200FF322920B80CFF0
:100CA8007F00B40700500B2469F582E43400F58313
:100CB800E0FF22286E756C6C2900D20A1208773082
:100CC8000AF8C20A780E30D50108F60209262D5016
:100CD8004349581208772403B405004001E4900CF6
:100CE800D6931208AB743A1208ABD20C750E0402F4
:020CF8000AFCF4
:10037B00E9D2E7C933E833F892D5EDD2E7CD33ECC8
:07038B0033FC5002B2D52241
:10039200EC30E7100FBF000C0EBE00080DBD0004CC
:1003A2000BEB6014A2D5EB13FCED92E7FD2274FF78
:1003B200FCFDFEFF22E480F8A2D574FF13FC7D80D1
:0303C200E480EFE5
:1003C500F920E73624F950037907E4F42402FBE524
:1003D50082158270021583DBF6E024FB501BE96071
:1003E50014E4F0E582158270021583E004F0B40A86
:0D03F50008E4F0D9EE7401F00A22C2D5220E
:10040200ED33EC3392D5FA602AB4FF33EDC2E77BC9
:10041200FF60067A047927E4227A04793020D50431
:100422007A04792B224E614E002B494E46002D490B
:100432004E4600E47A08F0A3DAFC7B00740722C07F
:1004420083C082ECC0E0EDC0E0EEC0E0EFC0E0EAC5
:1004520075F010A4CAABF075F04DA42BFBE435F097
:10046200FCEA2410FAEB34C5FBEC34D9FCEDC2E70C
:10047200FF75F056A4F42411C5F0F434C58FF0A42E
:100482002AE5F03BE43CF020E714120537D0E0FF08
:10049200D0E0FED0E0FDD0E0FC1202278014F4048C
:1004A200120537D0E0FFD0E0FED0E0FDD0E0FC1234
:1004B200011ED082D083E0FAEDD2E7CD33EC3324B3
:1004C20082FBE4C3CF33CFCE33CECD33CD33DBF398
:1004D2007B0775F00A846004F0A31B0AE5F0F0A321
:1004E2008FF0740AA4FFACF08EF0740AA42CFEAC58
:1004F200F050010C8DF0740AA42CFDE435F0F0A349
:05050200DBDE7407229E
:100507003F8000004120000042C80000447A0000FC
:10051700461C400047C35000497424004B1896807E
:100527004CBEBC205A0E1BCA6753C21C749DC5AE75
:10053700FB60065407601C2323120565EB543860E3
:100547000912055112056012011EECF8EDF9EEFAD9
:10055700EFCB22EB12056080F1543803241C900581
:1005670007FE93FC0EEE93FD0EEE930ECE93FF2245
:101CF600021C48E493A3F8E493A34003F68001F2A0
:101D060008DFF48029E493A3F85407240CC8C333EE
:101D1600C4540F4420C8834004F456800146F6DFBD
:101D2600E4800B0102040810204080901B9AE47E98
:101D3600019360BCA3FF543F30E509541FFEE493B2
:101D4600A360010ECF54C025E060A840B8E493A379
:101D5600FAE493A3F8E493A3C8C582C8CAC583CAA4
:101D6600F0A3C8C582C8CAC583CADFE9DEE780BE5C
:011C4700009C
:10057700BB010689828A83E0225002E722BBFE0282
:09058700E32289828A83E49322B5
:10059000BB010CE58229F582E5833AF583E0225020
:1005A00006E92582F8E622BBFE06E92582F8E2226A
:0D05B000E58229F582E5833AF583E4932284
:1005BD00BB010689828A83F0225002F722BBFE011D
:0205CD00F32217
:1005CF00BC000BBE0029EF8DF084FFADF022E4CC10
:1005DF00F875F008EF2FFFEE33FEEC33FCEE9DECD9
:1005EF00984005FCEE9DFE0FD5F0E9E4CEFD22ED1F
:1005FF00F8F5F0EE8420D21CFEADF075F008EF2F69
:10060F00FFED33FD4007985006D5F0F222C398FD59
:05061F000FD5F0EA22F6
:10062400C5F0F8A3E028F0C5F0F8E5821582700261
:060634001583E038F022FE
:10063A00A3F8E0C5F025F0F0E58215827002158373
:06064A00E0C838F0E822D0
:10065000BB010A89828A83F0E5F0A3F0225006F7F5
:0F06600009A7F01922BBFE06F3E5F009F31922F2
:10066F00E88FF0A4CC8BF0A42CFCE98EF0A42CFC2A
:10067F008AF0EDA42CFCEA8EF0A4CDA8F08BF0A4A8
:10068F002DCC3825F0FDE98FF0A42CCD35F0FCEB07
:10069F008EF0A4FEA9F0EB8FF0A4CFC5F02ECD39CC
:0F06AF00FEE43CFCEAA42DCE35F0FDE43CFC2239
:1006BE0075F008758200EF2FFFEE33FECD33CDCCF3
:1006CE0033CCC58233C5829BED9AEC99E582984076
:1006DE000CF582EE9BFEED9AFDEC99FC0FD5F0D653
:1006EE00E4CEFBE4CDFAE4CCF9A88222B800C1B97D
:1006FE000059BA002DEC8BF084CFCECDFCE5F0CBBB
:10070E00F97818EF2FFFEE33FEED33FDEC33FCEBF3
:10071E0033FB10D703994004EB99FB0FD8E5E4F9AE
:10072E00FA227818EF2FFFEE33FEED33FDEC33FC9B
:10073E00C933C910D7059BE99A4007EC9BFCE99A8F
:10074E00F90FD8E0E4C9FAE4CCFB2275F010EF2FD4
:10075E00FFEE33FEED33FDCC33CCC833C810D707D4
:10076E009BEC9AE899400AED9BFDEC9AFCE899F80F
:0E077E000FD5F0DAE4CDFBE4CCFAE4C8F922A2
:0E078C00C3E49FFFE49EFEE49DFDE49CFC227E
:0C079A00ECF0A3EDF0A3EEF0A3EFF022D2
:1007A600A8828583F0D083D0821207BD1207BD12BE
:1007B60007BD1207BDE473E493A3C583C5F0C583E3
:1007C600C8C582C8F0A3C583C5F0C583C8C582C89D
:0107D6002200
:1007D700F8E0FBA3A3E0F925F0F0E58215827002AB
:0707E7001583E0FA38F0224F
:0907EE00EBF0A3EAF0A3E9F0220C
:1007F700D083D082F8E4937012740193700DA3A391
:1008070093F8740193F5828883E4737402936860A4
:06081700EFA3A3A380DFA4
:10081D00D083D082F8E4937012740193700DA3A36A
:10082D0093F8740193F5828883E473740293B5F0A1
:0D083D00067403936860E9A3A3A3A380D809
:10084A00EC8EF0A4CCC5F0CCCDF8EFA4CEC5F02D3B
:10085A00FDE43CFCE8A42EC8C5F03DFDE43CFCEFF9
:0D086A00A4FFE5F028FEE43DFDE43CFC2287
:00000001FF
