:03000000021D538B
:0C1D5300787FE4F6D8FD758122021D9A0D
:101CB900206B65795F7363616E0D0A002564200DE1
:101CC9000A000D0A3D3D3D3D3D3D3D3D3D3D3D3D0E
:101CD9003D3D3D3D3D3D3D3D3D3D3D3D3D3D3D3D2B
:101CE9003D3D3D3D3D3D0D0A00736B753A4B256405
:101CF900200D0A00736F66742076657273696F6EC2
:101D09003A2573200D0A00312E30302E303000670D
:101D19006170202564200D0A0074696D65722025A3
:101D290064200D0A003D3D3D3D3D3D3D3D3D3D3D70
:101D39003D3D3D3D3D3D3D3D3D3D3D3D3D3D3D3DCA
:0A1D49003D3D3D3D3D3D3D0D0A00CE
:101929004200B100004100B4004100B0004100B3E1
:05193900004100AF00B9
:10000E00758E5390FE917401F090FF027410F022E1
:1012FC00E4900000F09000B0E0700A121E699000BB
:10130C0000EFF08005E4900000F0900000E0640134
:10131C0070699000AEE070637BFF7A1C79B912089B
:10132C00E21225FAEF70107F011226001224ADE4B0
:10133C00FF12251C0225D01225A9E4FF122600124B
:10134C001F6890009DE0FFD394034016A3E0FE704D
:10135C000590009A8009EED39403400690008B749C
:10136C0002F09000B47401F0121EEC90009DE0FFAE
:10137C0012106C90009EE0FF021DDF1225FAEF6048
:10138C0003021437900000E0B404031225A9900066
:10139C0000E06402704A1225A990009DE0C39409F4
:1013AC005005E004F0800690009D7401F090009DC3
:1013BC00E0FFD394034016A3E0FE700590009A80E2
:1013CC0009EED39403400690008B7402F09000B4A5
:1013DC007401F0121EEC90009DE0FF12106C80481E
:1013EC00900000E0640370431225A990009EE0C3B6
:1013FC0094055005E004F08005E490009EF0900008
:10140C009DE0D394034016A3E0FF700590009A80F2
:10141C0009EFD39403400690008B7402F090009E69
:0B142C00E0FF121DDF121F681223C337
:011437002292
:08186E00900006EEF0A3EFF07C
:10187600900086E06402706A9000AEE064017062D7
:10188600900006A3E0FFE4900086F09000A104F02B
:10189600900067E0FED3940F4048EED39F400CE0E3
:1018A6009F90009FF0A37401F08016900067E0FE01
:1018B600C3EF9EFF90009FF01225C49000A0740213
:1018C600F090009FE0FFC394024006EFD3941440CB
:1018D60007E490009FF0A3F01223C37D027F02125B
:1018E60024709000A0E0FDB4011490009FE0FF7EFC
:1018F60000900006EE8FF0120624AFF0FE22EDB443
:10190600021890009FE0FFC3900007E09FFF900041
:1019160006E09400FEF0A3EFF022900006E0FEA39E
:02192600E0FFE0
:01192800229C
:100CFA00900008ECF0A3EDF0900006EEF0FAA3EFF6
:020D0A00F0FBFC
:100D0C00E490000AF0A37432F0A3740AF0A3120763
:100D1C00A600000000C3EB9432EA94004016900049
:100D2C0008E0FEA3E0FF900006E0FCA3E0FDD39FEB
:100D3C00EC9E4003020DD3E4120342E4FBFA797AF1
:100D4C007844120227C004C005C006C007900008F2
:100D5C00E0FCA3E0FDE4120342E4FBFA797A784468
:100D6C00120227D003D002D001D000120029C004F7
:100D7C00C005C006C007900006E0FCA3E0FDE4122D
:100D8C000342E4FBFA797A7844120227E4FBFA79FD
:100D9C00FF7843120227A804A905AA06AB07D007BF
:100DAC00D006D005D00412022790000D12079AE449
:100DBC00FFFEFDFC90000DE0F8A3E0F9A3E0FAA320
:100DCC00E0FB1202C450057E007FFF2290000DE074
:100DDC00FCA3E0FDA3E0FEA3E0FFE4FBFAF97841FD
:100DEC0012022790000D12079AE4FFFE7D927C42BE
:100DFC0090000DE0F8A3E0F9A3E0FAA3E0FB1202E7
:100E0C00C45004E4FEFF2290000DE0FCA3E0FDA31F
:100E1C00E0FEA3E0FF7BF37A1F79B678421202273B
:100E2C0090000D12079A7FF37E1F7DB67C429000D6
:100E3C000DE0F8A3E0F9A3E0FAA3E0FB12011E7B9E
:100E4C00F37A1F79B678421202C4504C90000DE030
:100E5C00FCA3E0FDA3E0FEA3E0FF7B497A9D798033
:100E6C00783F12022790000D12079A90000AE004B6
:100E7C00F0E4FFFE7D807C3F90000DE0F8A3E0F9EC
:100E8C00A3E0FAA3E0FB1202C4600250BF90000A78
:100E9C00E0FFA3E02FF0804E90000DE0FCA3E0FDFE
:100EAC00A3E0FEA3E0FF7B6D7AC5797E783F12024A
:100EBC002790000D12079A90000AE004F0E4FFFE60
:100ECC007D807C3F90000DE0F8A3E0F9A3E0FAA34D
:100EDC00E0FB1202C440C190000BE0FF90000AE05E
:100EEC00FEC3EF9EA3F09000B3E0B401057E007F3B
:090EFC00FE2290000BE0FF7E00D5
:010F050022C9
:100F0600E4900000F0A3F0A3F0A3F0A3F0A3F09008
:100F160000B2E004F070069000B1E004F0D3900057
:100F2600B2E094109000B1E09427500302106BE4F5
:100F3600F0A3F07B0190000904F0A37400F0A37401
:100F460004F07A007902121573900002E0FEA3E025
:100F5600FFA3E0FCA3E0FD120CFA900000EEF0A364
:100F6600EFF012186E900000EEF0A3EFF07BFF7A20
:100F76001C79C5900039EEF0A3EFF01208E2D39089
:100F86000003E09432900002E09400500302102621
:100F96009000B3E060030210261225FAEF704D9020
:100FA60000B4E0B40129E4F0D3900001E09432905B
:100FB6000000E0940090008E74024009F0900095C5
:100FC6007408F0800AF090008F14F0900095F0906D
:100FD600009EE0FF121DDF90009DE0FF12106C9056
:100FE6000000E0FEA3E0FF1217A5802E9000AEE001
:100FF600B40118E4FF12251C1224AD90009DE0FFF9
:1010060012106C9000B67401F0800FE4FF12251CDC
:101016007F041224E6E49000B6F0E49000B0F022DB
:101026009000B3E070179000AEF09000B6F0122476
:10103600ADE4FF12251C9000AF74FF801D9000B335
:10104600E0B40121E49000AEF09000B6F01224ADB9
:10105600E4FF12251C9000AF74FEF0FF12106C9096
:0510660000B07401F070
:01106B002262
:101C090012000E12234B122501D2AF1223E912251D
:101C19004B1211BD7FC87E0012242E1225A9122352
:101C29009C7F207E031225341224AD7F0312106C91
:101C39007F021225B7E4FF12251C7BFF7A1C79CBA2
:101C49001208E27BFF7A1C79F29000397423F0A321
:101C5900743BF01208E290003974FFF0A3741DF090
:101C6900A37410F07BFF7A1C79FD1208E27BFF7ADE
:101C79001D791890009DE0FF900039E4F0A3EFF082
:101C89001208E27BFF7A1D792290009EE0FF900006
:101C990039E4F0A3EFF01208E27BFF7A1D792E12E6
:101CA90008E21212FC120F061225E812261180F220
:10221600900008EEF0A3EFF0A3ECF0A3EDF0D39F4F
:10222600EC9E4004E4FF8022900095E0FFC39000FE
:1022360009E09FFF900008E09400FEC390000BE0C9
:0E2246009F90000AE09E50057F0A12251C2280
:1017A500900006EEF0A3EFF090008FE0B4010D90ED
:1017B5000006E0FCA3E0FD7F4D02186890009DE067
:1017C500B40A00400302186D9017D4F82828730254
:1017D50017F20217FE02180A02181602182202183A
:1017E5002E02183A02184602185202185E90000698
:1017F500E0FCA3E0FD7F1E806A900006E0FCA3E00C
:10180500FD7F2B805E900006E0FCA3E0FD7F2F802E
:1018150052900006E0FCA3E0FD7F32804690000672
:10182500E0FCA3E0FD7F36803A900006E0FCA3E0F3
:10183500FD7F3C802E900006E0FCA3E0FD7F41800B
:1018450022900006E0FCA3E0FD7F4680169000068E
:10185500E0FCA3E0FD7F4A800A900006E0FCA3E0DF
:09186500FD7F4E7E0012221622C6
:1024500090008AE0B4011890009DE0D39403400FEF
:102460007403F0FF12106C1223C3E490008AF02270
:0925E80030A105E49000B3F022DB
:10169F000D0A3D3D3D3D3D3D3D3D3D3D3D3D3D3DCE
:1016AF003D3D3D3D3D3D3D3D3D3D3D3D3D3D3D3D5B
:1016BF003D3D3D3D3D3D3D3D3D3D0D0A00706F774C
:1016CF006572206F6E20666C617368206761703A77
:1016DF002564202074696D65723A2564200D0A0017
:1016EF00706F776572206F6E20666C6173682076FD
:1016FF00616C75653A256420207369676E3A2564BD
:10170F00200D0A003D3D3D3D3D3D3D3D3D3D3D3DB7
:10171F003D3D3D3D3D3D3D3D3D3D3D3D3D3D3D3DEA
:10172F003D3D3D3D3D3D3D3D3D3D3D3D0D0A003D7A
:10173F003D3D3D3D3D3D3D3D3D3D3D3D666972730A
:10174F007420696E697420646174613D3D3D3D3D57
:10175F003D3D3D3D3D3D200D0A003078253034584C
:10176F0020203078253034582020307825303458D8
:10177F002020307825303458200D0A00666C6173B4
:10178F0068206761703A2564202074696D65723A2C
:06179F002564200D0A0084
:10193E0045009D00000000004400A220200501414A
:03194E0000A601EF
:0625FA009000A6E0FF22A4
:062600009000A6EFF0229D
:10240C00D310AF01C3C0D075FDF075FC0F8EFA8FE1
:10241C00F975FDD275FC2D75FDE175FC1ED0D092C1
:02242C00AF22DD
:10237400D310AF01C3C0D08FFB75FDF075FC0FAE59
:1023840004AF058EFA8FF975FDB475FC4B75FDE14C
:0823940075FC1ED0D092AF22AF
:0C1FDB007B017A00799D7D057F047E3C2F
:101FE700D310AF01C3C0D0900008EEF0A3EFF0A369
:0B1FF700EDF0A3EBF0A3EAF0A3E9F08B
:10200200E4A3F0C2AFF090000AE0FF90000EE0C33C
:102012009F502C90000BE0FBA3E475F00112063AEE
:10202200A9F0FA120577FF900008E475F001120694
:102032003AADF0FC12237490000EE004F080C7D297
:01204200AFEE
:05204300D0D092AF2295
:040003008F828E83D7
:03000700E493FF80
:01000A0022D3
:10215800900008EEF0A3EFF0A3EBF0A3EAF0A3E9F8
:10216800F0AF051DEF6028900008E475F001120635
:102178003A85F082F583E493FF90000AE0FBA3E43C
:1021880075F00112063AA9F0FAEF1205BD80D222C5
:10229000E4FDFCED2400FFE4343CFE12000374A2D4
:1022A0002DF582E43400F583E0B507030C80037F4D
:1022B00000220DEDB404DCECC3940440037F012242
:0222C0007F009D
:0122C20022F9
:1011BD00E4900000F090FE927404F0122290EF7013
:1011CD000790000004F0807C7BFF7A16799F12084F
:1011DD00E27B017A00799D7D057F047E3C122158CA
:1011ED007BFF7A1679CC90009DE0FF900039E4F0FA
:1011FD00A3EFF090009EE0FF90003BE4F0A3EFF032
:10120D001208E27BFF7A1679EF90009FE0FF9000C5
:10121D0039E4F0A3EFF09000A0E0FF90003BE4F084
:10122D00A3EFF01208E27BFF7A1779131208E29010
:10123D00009DE0D394095006A3E09405400690006C
:10124D00007401F0900000E0640160030212D97B8C
:10125D00FF7A17793E1208E290009D7401F0A37495
:10126D0003F07F007E3C12240C7B017A0079A27D75
:10127D0004121FE7121FDB7B017A0079A27D047F28
:10128D00007E3C1221587BFF7A1779699000A2E00D
:10129D00FF900039E4F0A3EFF09000A3E0FF900081
:1012AD003BE4F0A3EFF09000A4E0FF90003DE4F0EC
:1012BD00A3EFF09000A5E0FF90003FE4F0A3EFF066
:1012CD001208E27BFF7A1779131208E27BFF7A1777
:1012DD00798B90009DE0FF900039E4F0A3EFF09042
:0F12ED00009EE0FF90003BE4F0A3EFF00208E268
:1023C3007F047E3C12240C7B017A0079A27D047F7A
:1023D30000121FE7121FDB7B017A00799D7D057FC9
:0623E300047E3C022158BB
:0E258D00EF1F70011E144E6004000080F32248
:102534007DA07C01ED1D70011C144C70F7EF1F7021
:06254400011E144E70EAB6
:01254A00226E
:0326150002258D0E
:1024CB0090FF0974C1F090FF08F090FF07F090FFA8
:0B24DB0006F0D291D290D287D2862268
:08219800900039EFF0A3EDF017
:1021A000E4A3F0F090003AE0FFA3E0C39F5027C201
:1021B00087900039E020E704C2868002D286D28769
:1021C0007F057E00122615900039E025E0F0900092
:0621D0003BE004F080CEAC
:0121D60022E6
:0821D700900039EFF0A3EDF0D8
:1021DF00E4A3F0F090003AE0FFA3E0C39F5027C2C2
:1021EF0087900039E020E004C2868002D286D28731
:1021FF007F057E00122615900039E0C313F0900082
:06220F003BE004F080CE6C
:0122150022A6
:1024E600900007EFF0C2917D047F80122198900042
:0B24F60007E0FF7D08122198D2912220
:10231F00900037EFF0A3EDF0C2917D037FA0122163
:10232F0098900037E025E025E0FF7D061221989078
:0C233F000038E0FF7D041221D7D291226B
:0925F100D291D290D287D2862249
:081951004100B5004100B600A1
:05001E007F060224E64C
:05260C007F040224E63A
:10248F00E4900000F0F0900000E0FFC39420500DA6
:0D249F007D0F12231F900000E004F080E983
:0124AC00220D
:1024AD00E4900036F0F0900036E0FFC39420500D1C
:0D24BD00E4FD12231F900036E004F080E9DA
:0124CA0022EF
:10239C001224CB7F521224E67F301224E67F0A12DD
:1023AC0024E67F081224E67F021224E67F0612241C
:0723BC00E61224AD02248F9C
:0E259B00E4FD7F1C12231FE4FD7F1F02231F9F
:101DDF00900006EFF07F061224E6E4FD7F1F12232A
:101DEF001FE4FD7F1C12231F900006E014601B14DC
:101DFF00602314602B14603A1460492405705A7DD7
:101E0F000A7F1B12231F7D0E80317D0B7F1B122338
:101E1F001F7D0A80267D0E7F1B12231F7D0A801BCC
:101E2F007D0A7F1B12231F7D0A7F1C12231F7D0B30
:101E3F0080227D0A7F1B12231F7D0B7F1C12231F05
:101E4F007D0A80107D0A7F1B12231F7D0A7F1C12C3
:0A1E5F00231F7D0E7F1F12231F2298
:10106C00900006EFF07F061224E6E4FD7F1D1223AC
:10107C001FE4FD7F1E12231F9000B6E06401701F59
:10108C009000B5E070117D067F1D12231F7D0E7F31
:10109C001E12231F02119FE49000B5F002117490F0
:1010AC000006E0B401047D068063900006E0B40203
:1010BC000B7D0B7F1D12231F7D0C8066900006E0BC
:1010CC00B4030B7D0F7F1D12231F7D0480549000F1
:1010DC0006E0B4040B7D067F1D12231F7D068042A3
:1010EC00900006E0B4050B7D0D7F1D12231F7D06BD
:1010FC008030900006E0B4060B7D0D7F1D12231F7F
:10110C007D0E801E900006E0B407077D077F1D0250
:10111C0011B9900006E0B4080E7D0F7F1D12231F3D
:10112C007D0E7F1E0211B9900006E0B4090D7D0FF3
:10113C007F1D12231F7D067F1E8072900006E0F437
:10114C0070329000B5E070177D017F1D12231F7D5A
:10115C000E7F1E12231F9000B57401F00225A9E426
:10116C009000B5F01225D0E4FD7F1C12231FE4FD86
:10117C007F1F8039900006E064FE70349000B5E06B
:10118C0070187D097F1D12231F7D0E7F1E12231FD9
:10119C001225A99000B57401F022E49000B5F0126C
:1011AC0025D0E4FD7F1C12231FE4FD7F1F12231F9B
:0111BC002210
:101959005E006800000000000000000000000000B8
:10196900000000000000000000000000000000006E
:09197900004100860041006700F6
:10234B0090FF0E74C1F090FF0F7461F090FFA074BA
:10235B0016F090FFA104F075CEFF75CDE675CC0697
:09236B00759E02759810D2AC2297
:0C25C400C2AC8F993099FDC299D2AC22B4
:032618000225C4D4
:0B22F20090000DEBF0A3EAF0A3E9F070
:1022FD00E4FEEEC39D501A90000DE0FBA3E0FAA39F
:10230D00E0F98E82758300120590FF1226180E805B
:01231D00E1DE
:01231E00229C
:102470009000087455F0A3EFF0A3EDF0A3740DF0F5
:0F248000A3740AF07B017A0079087D050222F22D
:06260600AE071225C422FC
:0300230002210BAC
:0D210B00C0E0C083C082C0D075D000C00706
:10211800E59830E030AF995398FE900086E014605F
:1021280019047021EFB4551D900068F0900066E026
:1021380004F09000867401F0800B900067EFF09037
:0521480000867402F0A6
:0B214D00D007D0D0D082D083D0E03289
:101982004100AE004100A7004200A800004100AAA9
:0A199200004200AB00004100AD016F
:1023E90090FF1D7461F090FF15F090FF16F090FFBB
:1023F90002F090FF1774C1F090FF00F090FF117484
:0324090051F0226D
:1019E400E4900002F0A2A533900001F09000A7E07B
:1019F40014602614604E147003021A8724036003D3
:101A0400021A90900001E06003021A959000A8F079
:101A1400A3F09000A704F08078900001E0706B9030
:101A240000A9E004F070069000A8E004F0C3900060
:101A3400A9E094039000A8E09400403E9000A774AD
:101A440002F08036900001E0B40106A37404F08033
:101A54003B9000A9E004F070069000A8E004F0C3F5
:101A64009000A9E094789000A8E09400400C9000C5
:101A7400027405F09000A77403F07F0A7E0012251B
:101A840034800E900001E0B401078000E49000A7C8
:061A9400F0900002E0FFEB
:011A9A002229
:101A9B00E4900002F0A2A633900001F09000AAE0BF
:101AAB0014602614604E147003021B3E2403600363
:101ABB00021B47900001E06003021B4C9000ABF04F
:101ACB00A3F09000AA04F08078900001E0706B9076
:101ADB0000ACE004F070069000ABE004F0C39000A3
:101AEB00ACE094039000ABE09400403E9000AA74ED
:101AFB0002F08036900001E0B40106A37404F0807C
:101B0B003B9000ACE004F070069000ABE004F0C337
:101B1B009000ACE094F09000ABE09400400C90008F
:101B2B00027406F09000AA7403F07F0A7E0012255F
:101B3B0034800E900001E0B401078000E49000AA0D
:061B4B00F0900002E0FF33
:011B51002271
:101E69001219E4BF05037F01229000ADE060122042
:101E7900A50F7F327E00122534E49000ADF07F0477
:101E890022121A9BBF06211225FABF01149000A144
:101E9900E0700E9000AE04F09000A1F01223C38010
:101EA9003FE49000AEF080389000ADE0602330A6AA
:101EB9000320B51D9000AEE070177F32FE12253465
:101EC900E49000ADF020A6037F032220B5127F0223
:101ED9002230A60C30B50930A5069000AD7401F08A
:021EE9007F0078
:011EEB0022D4
:101B520065786368616E67655F686561745F766109
:101B62006C7565200D0A0070726F74656374200DC8
:101B72000A0074696D65206F6666200D0A0074693B
:101B82006D655F746F5F302E3548202074696D6516
:101B92005F7365633D2564200D0A0074696D655F9E
:101BA200746F5F3148202074696D655F7365633DB2
:101BB2002564200D0A0074696D655F746F5F324899
:101BC200202074696D655F7365633D2564200D0A8D
:101BD2000074696D655F746F5F3448202074696DAD
:101BE200655F7365633D2564200D0A0074696D6548
:101BF2005F746F5F3848202074696D655F73656339
:071C02003D2564200D0A00DE
:10199C004100940042009200004200960000410079
:1019AC008A0041008B0041009A00410095004100E3
:1019BC008E0042008C000042009000004200880023
:1019CC000041008F00420098000042009B00004143
:0319DC0000870081
:0E25A9009000877401F0E490009BF0A3F022F4
:0C25D000E4900087F090009BF0A3F02244
:1022C300900087E0B40125D29390009BE475F00160
:1022D300120624FED3E5F0942CEE94014010C29331
:0F22E300E4900087F090009BF0A3F022C29322BA
:0C25DC00900092EEF0A3EFF0E4A3F022D8
:101EEC00EFB40A005075901EF9F8282873021F17DA
:101EFC00021F21021F21021F21021F2B021F35026C
:101F0C001F3F021F49021F53021F5D900088E4F01F
:101F1C00A3741EF022900088E4F0A3743CF022908D
:101F2C000088E4F0A3745AF022900088E4F0A374C3
:101F3C0078F022900088E4F0A37496F02290008848
:101F4C00E4F0A374B4F022900088E4F0A374F0F0F1
:0C1F5C00229000887401F0A3742CF02285
:1020B20090009DE0B40A00504F9020C2F828287387
:1020C2000220E00220E20220E40220E60220ED02E9
:1020D20020EF0220F60220FD0220FD0221048004EE
:1020E200800280009000957401F02280009000959B
:1020F2007403F0229000957404F022900095740607
:09210200F0229000957408F0220F
:1022540090008EE0B4023490008CE475F001120614
:1022640024FEC3900089E095F0900088E09E501B06
:102274007BFF7A1B79521208E2E490008EF0900002
:0C2284008CF0A3F090008FF01220B2222A
:101F6800E4900094F090009EE0FF7008900092F0DA
:101F7800A3F08052EFB4010C9000927407F0A30410
:101F8800F0E48042EFB4020D900092740EF0A37456
:101F980010F0E48031EFB4030D900092741CF0A3AC
:101FA8007420F0E48020EFB4040D9000927438F0AF
:101FB800A37440F0E4800FEFB4051790009274709A
:101FC800F0A37480F0E4900096F0A3F0900090F0F5
:031FD800A3F02251
:10254B00E490FE80F0F589758CF2758AFBC28DD212
:06255B00A9D28CD2AF22D0
:03000B00021438A4
:10143800C0E0C0F0C083C082C0D075D000C000C07A
:1014480001C002C003C004C005C006C0071222C301
:101458001225FAEF6003021531900094E004F0E0E1
:10146800C39464500302155812225490009AE0B4B1
:10147800022D900097E004F07006900096E004F0CA
:10148800D3900097E09420900096E0941C40109030
:10149800009AE4F0900096F0A3F090008A04F0D34C
:1014A800900093E09400900092E094004048A3E0FC
:1014B80024FFF0900092E034FFF090008BE064028B
:1014C8007060900097E004F07006900096E004F0D9
:1014D800D3900097E09420900096E0941C404390AD
:1014E800008A7401F0A3E4F0900096F0A3F07BFF6B
:1014F8007A1B7969802990009EE060267F01122678
:1015080000900092E4F0A3F0900096F0A3F0900011
:101518008BF090009AF01224AD7BFF7A1B7974123D
:1015280008E2900094E4F080279000AEE0B4012037
:10153800900098E475F001120624FED3E5F094E0DB
:10154800EE942E400B9000AEE4F0900098F0A3F0DB
:10155800D007D006D005D004D003D002D001D000E7
:0B156800D0D0D082D083D0F0D0E03291
:10204800900090E475F001120624FEE5F08EF0127F
:10205800081D20720708207A0E1020821C20208A72
:10206800384020927080000020B17BFF7A1B798075
:10207800801E7BFF7A1B799D80167BFF7A1B79B8BF
:10208800800E7BFF7A1B79D380067BFF7A1B79EE63
:10209800900092E0FFA3E0900039CFF0A3EFF01298
:0A20A80008E2E4900090F0A3F0229B
:0419DF004100B7000C
:10251C007E009000B7E0FD7C0012084AE47B64FA70
:07252C00F9F81206FA8FDF37
:012533002285
:10242E0090FF0074C1F0E490FF9CF0AC06AD077E07
:10243E007A7F121205CFEF149000B7F0F5DE75DD3E
:02244E009722D3
:1025010090FF017401F090FF03F075B4807F147E99
:0B2511000012258D90FE9B7449F02203
:10256100E4FFFE75B50143B440E5B430E5FB53B477
:05257100DFAEB7AFB6BC
:012576002242
:10257700E4FFFE75B50343B440E5B430E5FB53B45F
:05258700DFAEB7AFB6A6
:01258C00222C
:0B157300900006EBF0A3EAF0A3E9F003
:10157E0090000C1207A600000000E4900010F0F09E
:10158E0090000CE0F8A3E0F9A3E0FAA3E0FB12252B
:10159E0061E4FCFDEB2FFFEA3EFEED39FDEC38FC7D
:1015AE0090000C12079A900010E004F0E0C394052E
:1015BE0040CE90000CE0FCA3E0FDA3E0FEA3E0FF14
:1015CE00E47B05FAF9F81206FA90000C12079AE479
:1015DE007F887E13FDFC90000CE0F8A3E0F9A3E0F9
:1015EE00FAA3E0FB12066FE4FB7A10F9F81206FA82
:1015FE00900006E0FBA3E0FAA3E0F9EE8FF01206EE
:10160E005090000C1207A600000000E4900010F0AD
:10161E0090000CE0F8A3E0F9A3E0FAA3E0FB12259A
:10162E0077E4FCFDEB2FFFEA3EFEED39FDEC38FCD6
:10163E0090000C12079A900010E004F0E0C394059D
:10164E0040CE90000CE0FCA3E0FDA3E0FEA3E0FF83
:10165E00E47B05FAF9F81206FA90000C12079AE4E8
:10166E007F887E13FDFC90000CE0F8A3E0F9A3E068
:10167E00FAA3E0FB12066FE4FB7A10F9F81206FAF1
:10168E00900009E0FBA3E0FAA3E0F9EE8FF002066A
:01169E0050FB
:0D25B70075BD17EF75F02BA490FEA0F0226B
:0426110043BD102293
:100026000203B0E86480F8E933E83360110460F055
:10003600ED33EC337009E8FCE9FDEAFEEBFF220440
:1000460060DED3EB9FEA9EE99DE8C2E78CF0C2F73B
:1000560095F0400CE8CCF8E9CDF9EACEFAEBCFFB07
:1000660012037B85D0F05804700320D5B3E80470E2
:10007600075002B2D50203BA92D5EC0460F7E4CC7D
:10008600C0E0C398F8603B94186008400DD0E0FBD0
:10009600020392E4FBFAC9FC8028E830E406E4C9CE
:1000A600FBE4CAFCE830E305E4C9CACBFCE8540724
:1000B6006010F8C3E913F9EA13FAEB13FBEC13FC2F
:1000C600D8F130F52FC3E49CFCEF9BFFEE9AFEEDD2
:1000D60099FDD0E0FBEF4E4D4C701222DB0302037C
:1000E600B7EC2CFCEF33FFEE33FEED33FDED30E7DE
:1000F600EB020392EF2BFFEE3AFEED39FDD0E0FB6B
:1001060050130BBB00030203BAED13FDEE13FEEF13
:0801160013FFEC13FC0203923D
:10011E00EC4D6011E8497017ED33EC3304600DE4DB
:10012E00FCFFFEFD22E933E8330470F80203B0123F
:10013E00037B58046009E4CC248150062850090240
:10014E0003BA2840030203B7C0E0EB4A7044B980FB
:10015E0006D0E0FB0203A6EF4E701CBD8008EBFF3D
:10016E00EAFEE9FD80EBE98DF0A4FEE5F002020760
:10017E00E9CDF9EAFEEBFFEF89F0A4FCE5F0CE89BC
:10018E00F0A42EFFE435F0CD89F0A42DFEE435F079
:10019E008067EF4E7005BD80D780C3EF8BF0A4ACA7
:1001AE00F0EE8BF0A42CFCE435F0F8EF8AF0A42CE2
:1001BE00E5F038FCE433CB8DF0A42CFCE5F03BF8F5
:1001CE00EE8AF0A42CFCE5F038F8E433CF89F0A4E5
:1001DE002CFCE5F038CF3400CE89F0A42FFFE5F0EB
:1001EE003EFEE433C98DF0A42EFEE5F039CD8AF043
:1001FE00A42FFFE5F03EFEE43DFD33D0E0FB5007BB
:10020E000BBB000F0203BAEC2CFCEF33FFEE33FEF8
:06021E00ED33FD02039226
:100224000203BAEC5D046005E8590470030203B0EC
:1002340012037B580460F6EC4860F2EC7004FDFE97
:10024400FF22C860DB2481C85009C39860025006AD
:100254000203B79850CAF582E9294B4A7005AB826C
:100264000203A675F0007C1A7880C3EF9BEE9AED2A
:1002740099400DC3EF9BFFEE9AFEED99FDE842F025
:10028400DC23ACF0D0E0FFD0E0FED0E0FDAB822078
:10029400E7101BEB60BAEC2CFCEF33FFEE33FEED02
:1002A40033FD020392E803F830E705C0F075F0006F
:1002B400EF2FFFEE33FEED33FD40B830E7C280AAE6
:1002C40074F8CC6480CCC86480C8F58204604FC3E1
:1002D400EB9FF5F0EA9E42F0E99D42F0E89C45F080
:1002E400603C501DE5825FFFE582D313CB5BCBF40A
:1002F4002B5582FB50280ABA002409B90020088033
:100304001DE5825BFBE582D313CF5FCFF4C3132FCC
:100314005582FF50090EBE00050DBD00010CC3EB54
:100324009FF5F0EA9E42F0E99D42F0E89C45F060BA
:0903340007CC4820E701B3EC22DC
:10033D0075F020800E75F010800575F0087D007E3B
:10034D00007F003392D530D50312078CEC3340106B
:10035D00EF33FFEE33FEED33FDEC33FCD5F0ED2244
:0E036D00E5F0247EA2D513CC92E7CDCEFF2280
:10087700E50D2439F582E43400F583E0050D229077
:100887000036301003900039E475F0011207D702E3
:1008970005772009E97F2ED2098018EF540F24909D
:1008A700D43440D4FF300D0BEF24BFB41A005003EB
:1008B7002461FFE50E6002150E0511E511700205B2
:1008C7001030100E900036E475F0011207D7EF02D2
:1008D70005BD0226067403D2108003E4C210F50D8D
:1008E7009000361207EEE4F50EF510F511E50E60EF
:1008F700077F201208BA80F5750FFFC20AC209C226
:100907000BC20CC20EC20FC211120886FF700D3047
:1009170010057F001208CBAF11AE1022B4255FC2BD
:10092700D5C20D120886FF24D0B40A00501A75F0FC
:100937000A780E30D50508B6FF0106C6A426F620AC
:10094700D5047002D20C80D924CFB41A00EF50041A
:10095700C2E5D20D020BBDD20A80C6D20980C0D231
:100967000B80BCD2D580BAD20E80B47F201208BAD1
:10097700200B077401B50E0040F1120877FF12082B
:10098700BA0208F4D211D20F8095120877FB120829
:1009970077FA120877F94A4B700679BB7A0C7BFF16
:1009A700200B2EE50E602A7E008E827583001205CD
:1009B7009060060EEE650F70F0C2D5EBC0E0EAC09E
:1009C700E0E9C0E0EE120C1ED0E0F9D0E0FAD0E08A
:1009D700FB120577FF60AAEBC0E0EAC0E0E9C0E0E0
:1009E7001208BAD0E02401F9D0E03400FAD0E0FBD5
:1009F700E50F0460DCD50FD98087D20B80A2120CDB
:100A07000060F7E50F7001041203C5A90F600DE53B
:100A17000F600914F50F120CA8EF60F3EA30E70234
:100A2700F404C3995079EAF4250F0430E701E4048C
:100A3700F50F800D120C0060C1EA050F250F120398
:100A4700C5EA900065F030E701E4250F04D50F04EF
:100A5700200E0114120C1EE4C0E0120CA8900065D1
:100A6700E0601320E70714F01208A2802204F0D0F8
:100A7700E014C0E07F001208A2E50F600712089992
:100A8700150F800B300E03120899D0E00208F4D03E
:100A9700E00480C4120C00609EE50F041203C590A9
:100AA7000065EAF0E50F200E026001042404120C31
:010AB7001E20
:100AB80074FF04C0E0120CA81208A2E50F200E0271
:100AC8006003120899D0E0B50FE87F451208AC9092
:100AD8000065E07F2B30E7047F2DF404C0E01208A6
:100AE800BAD0E075F00A84C0F01208A3D0E012086A
:100AF800A30208F4791080027908C20FC211800895
:100B0800D2D5790A8004790AC2D5E50F047002F5B6
:100B18000FE4FAFDFEFF120877FC7B08200A131287
:100B28000877FD7B1030090A120877FE120877FF54
:100B38007B20EC3382D592D55013C3E43009069F4D
:100B4800FFE49EFEE4200A039DFDE49CFCE4CBF850
:100B5800C20AEC700CCFCECDCCE824F8F870F38044
:100B680017C3EF33FFEE33FEED33FDEC33FCEB330D
:100B7800FB994002FB0FD8E9EB300A05F8D0E0C436
:100B880048B20AC0E00AEC4D4E4F78207B0070C294
:100B9800EAB50F0040BCC0E0120C20D0F0D0E02035
:100BA8000A04C4C0E0C4B20AC0F01208A3D0F0D549
:100BB800F0EB0208F41207F70991530AFC5809628E
:100BC8004C095E420B004F0B08440B084909774358
:100BD8000B0E550A3B460A9B450A05470CDB500994
:100BE800662D096A2E098D2B096E23098B200CC4EA
:100BF8002A09264800000985E50FB4FF03750F068A
:100C0800120877FC120877FD120877FE120877FFA2
:100C180090005E020402790AA2D5200C14300E0955
:100C2800B910020404B9080104A2D5200F0250012A
:100C380004200B68920BB50E005034C0E07F2030C2
:100C48000C197F30A20B720F720E500F120C77C264
:100C58000BC20FC20EC2117F30800F300E03E9C0E5
:100C6800E01208BA300E03D0E0F9D0E0B50ECC306F
:100C78000E177F30B9100C1208BA7F58300D077F55
:100C8800788003B908031208BA300B057F2D0208D3
:100C9800BA7F202011F87F2B200FF322920B80CFF0
:100CA8007F00B40700500B245EF582E43400F5831E
:100CB800E0FF22286E756C6C2900D20A1208773082
:100CC8000AF8C20A780E30D50108F60209262D5016
:100CD8004349581208772403B405004001E4900CF6
:100CE800D6931208AB743A1208ABD20C750E0402F4
:020CF8000AFCF4
:10037B00E9D2E7C933E833F892D5EDD2E7CD33ECC8
:07038B0033FC5002B2D52241
:10039200EC30E7100FBF000C0EBE00080DBD0004CC
:1003A2000BEB6014A2D5EB13FCED92E7FD2274FF78
:1003B200FCFDFEFF22E480F8A2D574FF13FC7D80D1
:0303C200E480EFE5
:1003C500F920E73624F950037907E4F42402FBE524
:1003D50082158270021583DBF6E024FB501BE96071
:1003E50014E4F0E582158270021583E004F0B40A86
:0D03F50008E4F0D9EE7401F00A22C2D5220E
:10040200ED33EC3392D5FA602AB4FF33EDC2E77BC9
:10041200FF60067A047927E4227A04793020D50431
:100422007A04792B224E614E002B494E46002D490B
:100432004E4600E47A08F0A3DAFC7B00740722C07F
:1004420083C082ECC0E0EDC0E0EEC0E0EFC0E0EAC5
:1004520075F010A4CAABF075F04DA42BFBE435F097
:10046200FCEA2410FAEB34C5FBEC34D9FCEDC2E70C
:10047200FF75F056A4F42411C5F0F434C58FF0A42E
:100482002AE5F03BE43CF020E714120537D0E0FF08
:10049200D0E0FED0E0FDD0E0FC1202278014F4048C
:1004A200120537D0E0FFD0E0FED0E0FDD0E0FC1234
:1004B200011ED082D083E0FAEDD2E7CD33EC3324B3
:1004C20082FBE4C3CF33CFCE33CECD33CD33DBF398
:1004D2007B0775F00A846004F0A31B0AE5F0F0A321
:1004E2008FF0740AA4FFACF08EF0740AA42CFEAC58
:1004F200F050010C8DF0740AA42CFDE435F0F0A349
:05050200DBDE7407229E
:100507003F8000004120000042C80000447A0000FC
:10051700461C400047C35000497424004B1896807E
:100527004CBEBC205A0E1BCA6753C21C749DC5AE75
:10053700FB60065407601C2323120565EB543860E3
:100547000912055112056012011EECF8EDF9EEFAD9
:10055700EFCB22EB12056080F1543803241C900581
:1005670007FE93FC0EEE93FD0EEE930ECE93FF2245
:101D5F00021C09E493A3F8E493A34003F68001F275
:101D6F0008DFF48029E493A3F85407240CC8C33385
:101D7F00C4540F4420C8834004F456800146F6DF54
:101D8F00E4800B0102040810204080901929E47EA2
:101D9F00019360BCA3FF543F30E509541FFEE49349
:101DAF00A360010ECF54C025E060A840B8E493A310
:101DBF00FAE493A3F8E493A3C8C582C8CAC583CA3B
:101DCF00F0A3C8C582C8CAC583CADFE9DEE780BEF3
:0119E3000003
:10057700BB010689828A83E0225002E722BBFE0282
:09058700E32289828A83E49322B5
:10059000BB010CE58229F582E5833AF583E0225020
:1005A00006E92582F8E622BBFE06E92582F8E2226A
:0D05B000E58229F582E5833AF583E4932284
:1005BD00BB010689828A83F0225002F722BBFE011D
:0205CD00F32217
:1005CF00BC000BBE0029EF8DF084FFADF022E4CC10
:1005DF00F875F008EF2FFFEE33FEEC33FCEE9DECD9
:1005EF00984005FCEE9DFE0FD5F0E9E4CEFD22ED1F
:1005FF00F8F5F0EE8420D21CFEADF075F008EF2F69
:10060F00FFED33FD4007985006D5F0F222C398FD59
:05061F000FD5F0EA22F6
:10062400C5F0F8A3E028F0C5F0F8E5821582700261
:060634001583E038F022FE
:10063A00A3F8E0C5F025F0F0E58215827002158373
:06064A00E0C838F0E822D0
:10065000BB010A89828A83F0E5F0A3F0225006F7F5
:0F06600009A7F01922BBFE06F3E5F009F31922F2
:10066F00E88FF0A4CC8BF0A42CFCE98EF0A42CFC2A
:10067F008AF0EDA42CFCEA8EF0A4CDA8F08BF0A4A8
:10068F002DCC3825F0FDE98FF0A42CCD35F0FCEB07
:10069F008EF0A4FEA9F0EB8FF0A4CFC5F02ECD39CC
:0F06AF00FEE43CFCEAA42DCE35F0FDE43CFC2239
:1006BE0075F008758200EF2FFFEE33FECD33CDCCF3
:1006CE0033CCC58233C5829BED9AEC99E582984076
:1006DE000CF582EE9BFEED9AFDEC99FC0FD5F0D653
:1006EE00E4CEFBE4CDFAE4CCF9A88222B800C1B97D
:1006FE000059BA002DEC8BF084CFCECDFCE5F0CBBB
:10070E00F97818EF2FFFEE33FEED33FDEC33FCEBF3
:10071E0033FB10D703994004EB99FB0FD8E5E4F9AE
:10072E00FA227818EF2FFFEE33FEED33FDEC33FC9B
:10073E00C933C910D7059BE99A4007EC9BFCE99A8F
:10074E00F90FD8E0E4C9FAE4CCFB2275F010EF2FD4
:10075E00FFEE33FEED33FDCC33CCC833C810D707D4
:10076E009BEC9AE899400AED9BFDEC9AFCE899F80F
:0E077E000FD5F0DAE4CDFBE4CCFAE4C8F922A2
:0E078C00C3E49FFFE49EFEE49DFDE49CFC227E
:0C079A00ECF0A3EDF0A3EEF0A3EFF022D2
:1007A600A8828583F0D083D0821207BD1207BD12BE
:1007B60007BD1207BDE473E493A3C583C5F0C583E3
:1007C600C8C582C8F0A3C583C5F0C583C8C582C89D
:0107D6002200
:1007D700F8E0FBA3A3E0F925F0F0E58215827002AB
:0707E7001583E0FA38F0224F
:0907EE00EBF0A3EAF0A3E9F0220C
:1007F700D083D082F8E4937012740193700DA3A391
:1008070093F8740193F5828883E4737402936860A4
:06081700EFA3A3A380DFA4
:10081D00D083D082F8E4937012740193700DA3A36A
:10082D0093F8740193F5828883E473740293B5F0A1
:0D083D00067403936860E9A3A3A3A380D809
:10084A00EC8EF0A4CCC5F0CCCDF8EFA4CEC5F02D3B
:10085A00FDE43CFCE8A42EC8C5F03DFDE43CFCEFF9
:0D086A00A4FFE5F028FEE43DFDE43CFC2287
:00000001FF
